{
  "contractName": "ERC1155CreatorUpgradeable",
  "abi": [
    {
      "anonymous": false,
      "inputs": [
        {
          "indexed": true,
          "internalType": "address",
          "name": "account",
          "type": "address"
        },
        {
          "indexed": true,
          "internalType": "address",
          "name": "sender",
          "type": "address"
        }
      ],
      "name": "AdminApproved",
      "type": "event"
    },
    {
      "anonymous": false,
      "inputs": [
        {
          "indexed": true,
          "internalType": "address",
          "name": "account",
          "type": "address"
        },
        {
          "indexed": true,
          "internalType": "address",
          "name": "sender",
          "type": "address"
        }
      ],
      "name": "AdminRevoked",
      "type": "event"
    },
    {
      "anonymous": false,
      "inputs": [
        {
          "indexed": true,
          "internalType": "address",
          "name": "account",
          "type": "address"
        },
        {
          "indexed": true,
          "internalType": "address",
          "name": "operator",
          "type": "address"
        },
        {
          "indexed": false,
          "internalType": "bool",
          "name": "approved",
          "type": "bool"
        }
      ],
      "name": "ApprovalForAll",
      "type": "event"
    },
    {
      "anonymous": false,
      "inputs": [
        {
          "indexed": false,
          "internalType": "address payable[]",
          "name": "receivers",
          "type": "address[]"
        },
        {
          "indexed": false,
          "internalType": "uint256[]",
          "name": "basisPoints",
          "type": "uint256[]"
        }
      ],
      "name": "DefaultRoyaltiesUpdated",
      "type": "event"
    },
    {
      "anonymous": false,
      "inputs": [
        {
          "indexed": true,
          "internalType": "address",
          "name": "extension",
          "type": "address"
        },
        {
          "indexed": false,
          "internalType": "bool",
          "name": "enabled",
          "type": "bool"
        }
      ],
      "name": "ExtensionApproveTransferUpdated",
      "type": "event"
    },
    {
      "anonymous": false,
      "inputs": [
        {
          "indexed": true,
          "internalType": "address",
          "name": "extension",
          "type": "address"
        },
        {
          "indexed": true,
          "internalType": "address",
          "name": "sender",
          "type": "address"
        }
      ],
      "name": "ExtensionBlacklisted",
      "type": "event"
    },
    {
      "anonymous": false,
      "inputs": [
        {
          "indexed": true,
          "internalType": "address",
          "name": "extension",
          "type": "address"
        },
        {
          "indexed": true,
          "internalType": "address",
          "name": "sender",
          "type": "address"
        }
      ],
      "name": "ExtensionRegistered",
      "type": "event"
    },
    {
      "anonymous": false,
      "inputs": [
        {
          "indexed": true,
          "internalType": "address",
          "name": "extension",
          "type": "address"
        },
        {
          "indexed": false,
          "internalType": "address payable[]",
          "name": "receivers",
          "type": "address[]"
        },
        {
          "indexed": false,
          "internalType": "uint256[]",
          "name": "basisPoints",
          "type": "uint256[]"
        }
      ],
      "name": "ExtensionRoyaltiesUpdated",
      "type": "event"
    },
    {
      "anonymous": false,
      "inputs": [
        {
          "indexed": true,
          "internalType": "address",
          "name": "extension",
          "type": "address"
        },
        {
          "indexed": true,
          "internalType": "address",
          "name": "sender",
          "type": "address"
        }
      ],
      "name": "ExtensionUnregistered",
      "type": "event"
    },
    {
      "anonymous": false,
      "inputs": [
        {
          "indexed": false,
          "internalType": "uint8",
          "name": "version",
          "type": "uint8"
        }
      ],
      "name": "Initialized",
      "type": "event"
    },
    {
      "anonymous": false,
      "inputs": [
        {
          "indexed": true,
          "internalType": "address",
          "name": "extension",
          "type": "address"
        },
        {
          "indexed": true,
          "internalType": "address",
          "name": "permissions",
          "type": "address"
        },
        {
          "indexed": true,
          "internalType": "address",
          "name": "sender",
          "type": "address"
        }
      ],
      "name": "MintPermissionsUpdated",
      "type": "event"
    },
    {
      "anonymous": false,
      "inputs": [
        {
          "indexed": true,
          "internalType": "address",
          "name": "previousOwner",
          "type": "address"
        },
        {
          "indexed": true,
          "internalType": "address",
          "name": "newOwner",
          "type": "address"
        }
      ],
      "name": "OwnershipTransferred",
      "type": "event"
    },
    {
      "anonymous": false,
      "inputs": [
        {
          "indexed": true,
          "internalType": "uint256",
          "name": "tokenId",
          "type": "uint256"
        },
        {
          "indexed": false,
          "internalType": "address payable[]",
          "name": "receivers",
          "type": "address[]"
        },
        {
          "indexed": false,
          "internalType": "uint256[]",
          "name": "basisPoints",
          "type": "uint256[]"
        }
      ],
      "name": "RoyaltiesUpdated",
      "type": "event"
    },
    {
      "anonymous": false,
      "inputs": [
        {
          "indexed": true,
          "internalType": "address",
          "name": "operator",
          "type": "address"
        },
        {
          "indexed": true,
          "internalType": "address",
          "name": "from",
          "type": "address"
        },
        {
          "indexed": true,
          "internalType": "address",
          "name": "to",
          "type": "address"
        },
        {
          "indexed": false,
          "internalType": "uint256[]",
          "name": "ids",
          "type": "uint256[]"
        },
        {
          "indexed": false,
          "internalType": "uint256[]",
          "name": "values",
          "type": "uint256[]"
        }
      ],
      "name": "TransferBatch",
      "type": "event"
    },
    {
      "anonymous": false,
      "inputs": [
        {
          "indexed": true,
          "internalType": "address",
          "name": "operator",
          "type": "address"
        },
        {
          "indexed": true,
          "internalType": "address",
          "name": "from",
          "type": "address"
        },
        {
          "indexed": true,
          "internalType": "address",
          "name": "to",
          "type": "address"
        },
        {
          "indexed": false,
          "internalType": "uint256",
          "name": "id",
          "type": "uint256"
        },
        {
          "indexed": false,
          "internalType": "uint256",
          "name": "value",
          "type": "uint256"
        }
      ],
      "name": "TransferSingle",
      "type": "event"
    },
    {
      "anonymous": false,
      "inputs": [
        {
          "indexed": false,
          "internalType": "string",
          "name": "value",
          "type": "string"
        },
        {
          "indexed": true,
          "internalType": "uint256",
          "name": "id",
          "type": "uint256"
        }
      ],
      "name": "URI",
      "type": "event"
    },
    {
      "inputs": [
        {
          "internalType": "address",
          "name": "admin",
          "type": "address"
        }
      ],
      "name": "approveAdmin",
      "outputs": [],
      "stateMutability": "nonpayable",
      "type": "function"
    },
    {
      "inputs": [
        {
          "internalType": "address",
          "name": "account",
          "type": "address"
        },
        {
          "internalType": "uint256",
          "name": "id",
          "type": "uint256"
        }
      ],
      "name": "balanceOf",
      "outputs": [
        {
          "internalType": "uint256",
          "name": "",
          "type": "uint256"
        }
      ],
      "stateMutability": "view",
      "type": "function"
    },
    {
      "inputs": [
        {
          "internalType": "address[]",
          "name": "accounts",
          "type": "address[]"
        },
        {
          "internalType": "uint256[]",
          "name": "ids",
          "type": "uint256[]"
        }
      ],
      "name": "balanceOfBatch",
      "outputs": [
        {
          "internalType": "uint256[]",
          "name": "",
          "type": "uint256[]"
        }
      ],
      "stateMutability": "view",
      "type": "function"
    },
    {
      "inputs": [],
      "name": "getAdmins",
      "outputs": [
        {
          "internalType": "address[]",
          "name": "admins",
          "type": "address[]"
        }
      ],
      "stateMutability": "view",
      "type": "function"
    },
    {
      "inputs": [],
      "name": "getExtensions",
      "outputs": [
        {
          "internalType": "address[]",
          "name": "extensions",
          "type": "address[]"
        }
      ],
      "stateMutability": "view",
      "type": "function"
    },
    {
      "inputs": [
        {
          "internalType": "address",
          "name": "admin",
          "type": "address"
        }
      ],
      "name": "isAdmin",
      "outputs": [
        {
          "internalType": "bool",
          "name": "",
          "type": "bool"
        }
      ],
      "stateMutability": "view",
      "type": "function"
    },
    {
      "inputs": [
        {
          "internalType": "address",
          "name": "account",
          "type": "address"
        },
        {
          "internalType": "address",
          "name": "operator",
          "type": "address"
        }
      ],
      "name": "isApprovedForAll",
      "outputs": [
        {
          "internalType": "bool",
          "name": "",
          "type": "bool"
        }
      ],
      "stateMutability": "view",
      "type": "function"
    },
    {
      "inputs": [],
      "name": "owner",
      "outputs": [
        {
          "internalType": "address",
          "name": "",
          "type": "address"
        }
      ],
      "stateMutability": "view",
      "type": "function"
    },
    {
      "inputs": [],
      "name": "renounceOwnership",
      "outputs": [],
      "stateMutability": "nonpayable",
      "type": "function"
    },
    {
      "inputs": [
        {
          "internalType": "address",
          "name": "admin",
          "type": "address"
        }
      ],
      "name": "revokeAdmin",
      "outputs": [],
      "stateMutability": "nonpayable",
      "type": "function"
    },
    {
      "inputs": [
        {
          "internalType": "address",
          "name": "from",
          "type": "address"
        },
        {
          "internalType": "address",
          "name": "to",
          "type": "address"
        },
        {
          "internalType": "uint256[]",
          "name": "ids",
          "type": "uint256[]"
        },
        {
          "internalType": "uint256[]",
          "name": "amounts",
          "type": "uint256[]"
        },
        {
          "internalType": "bytes",
          "name": "data",
          "type": "bytes"
        }
      ],
      "name": "safeBatchTransferFrom",
      "outputs": [],
      "stateMutability": "nonpayable",
      "type": "function"
    },
    {
      "inputs": [
        {
          "internalType": "address",
          "name": "from",
          "type": "address"
        },
        {
          "internalType": "address",
          "name": "to",
          "type": "address"
        },
        {
          "internalType": "uint256",
          "name": "id",
          "type": "uint256"
        },
        {
          "internalType": "uint256",
          "name": "amount",
          "type": "uint256"
        },
        {
          "internalType": "bytes",
          "name": "data",
          "type": "bytes"
        }
      ],
      "name": "safeTransferFrom",
      "outputs": [],
      "stateMutability": "nonpayable",
      "type": "function"
    },
    {
      "inputs": [
        {
          "internalType": "address",
          "name": "operator",
          "type": "address"
        },
        {
          "internalType": "bool",
          "name": "approved",
          "type": "bool"
        }
      ],
      "name": "setApprovalForAll",
      "outputs": [],
      "stateMutability": "nonpayable",
      "type": "function"
    },
    {
      "inputs": [
        {
          "internalType": "bool",
          "name": "enabled",
          "type": "bool"
        }
      ],
      "name": "setApproveTransferExtension",
      "outputs": [],
      "stateMutability": "nonpayable",
      "type": "function"
    },
    {
      "inputs": [
        {
          "internalType": "address",
          "name": "newOwner",
          "type": "address"
        }
      ],
      "name": "transferOwnership",
      "outputs": [],
      "stateMutability": "nonpayable",
      "type": "function"
    },
    {
      "inputs": [],
      "name": "initialize",
      "outputs": [],
      "stateMutability": "nonpayable",
      "type": "function"
    },
    {
      "inputs": [
        {
          "internalType": "bytes4",
          "name": "interfaceId",
          "type": "bytes4"
        }
      ],
      "name": "supportsInterface",
      "outputs": [
        {
          "internalType": "bool",
          "name": "",
          "type": "bool"
        }
      ],
      "stateMutability": "view",
      "type": "function"
    },
    {
      "inputs": [
        {
          "internalType": "address",
          "name": "extension",
          "type": "address"
        },
        {
          "internalType": "string",
          "name": "baseURI",
          "type": "string"
        }
      ],
      "name": "registerExtension",
      "outputs": [],
      "stateMutability": "nonpayable",
      "type": "function"
    },
    {
      "inputs": [
        {
          "internalType": "address",
          "name": "extension",
          "type": "address"
        },
        {
          "internalType": "string",
          "name": "baseURI",
          "type": "string"
        },
        {
          "internalType": "bool",
          "name": "baseURIIdentical",
          "type": "bool"
        }
      ],
      "name": "registerExtension",
      "outputs": [],
      "stateMutability": "nonpayable",
      "type": "function"
    },
    {
      "inputs": [
        {
          "internalType": "address",
          "name": "extension",
          "type": "address"
        }
      ],
      "name": "unregisterExtension",
      "outputs": [],
      "stateMutability": "nonpayable",
      "type": "function"
    },
    {
      "inputs": [
        {
          "internalType": "address",
          "name": "extension",
          "type": "address"
        }
      ],
      "name": "blacklistExtension",
      "outputs": [],
      "stateMutability": "nonpayable",
      "type": "function"
    },
    {
      "inputs": [
        {
          "internalType": "string",
          "name": "uri_",
          "type": "string"
        }
      ],
      "name": "setBaseTokenURIExtension",
      "outputs": [],
      "stateMutability": "nonpayable",
      "type": "function"
    },
    {
      "inputs": [
        {
          "internalType": "string",
          "name": "uri_",
          "type": "string"
        },
        {
          "internalType": "bool",
          "name": "identical",
          "type": "bool"
        }
      ],
      "name": "setBaseTokenURIExtension",
      "outputs": [],
      "stateMutability": "nonpayable",
      "type": "function"
    },
    {
      "inputs": [
        {
          "internalType": "string",
          "name": "prefix",
          "type": "string"
        }
      ],
      "name": "setTokenURIPrefixExtension",
      "outputs": [],
      "stateMutability": "nonpayable",
      "type": "function"
    },
    {
      "inputs": [
        {
          "internalType": "uint256[]",
          "name": "tokenIds",
          "type": "uint256[]"
        },
        {
          "internalType": "string[]",
          "name": "uris",
          "type": "string[]"
        }
      ],
      "name": "setTokenURIExtension",
      "outputs": [],
      "stateMutability": "nonpayable",
      "type": "function"
    },
    {
      "inputs": [
        {
          "internalType": "uint256",
          "name": "tokenId",
          "type": "uint256"
        },
        {
          "internalType": "string",
          "name": "uri_",
          "type": "string"
        }
      ],
      "name": "setTokenURIExtension",
      "outputs": [],
      "stateMutability": "nonpayable",
      "type": "function"
    },
    {
      "inputs": [
        {
          "internalType": "string",
          "name": "uri_",
          "type": "string"
        }
      ],
      "name": "setBaseTokenURI",
      "outputs": [],
      "stateMutability": "nonpayable",
      "type": "function"
    },
    {
      "inputs": [
        {
          "internalType": "string",
          "name": "prefix",
          "type": "string"
        }
      ],
      "name": "setTokenURIPrefix",
      "outputs": [],
      "stateMutability": "nonpayable",
      "type": "function"
    },
    {
      "inputs": [
        {
          "internalType": "uint256",
          "name": "tokenId",
          "type": "uint256"
        },
        {
          "internalType": "string",
          "name": "uri_",
          "type": "string"
        }
      ],
      "name": "setTokenURI",
      "outputs": [],
      "stateMutability": "nonpayable",
      "type": "function"
    },
    {
      "inputs": [
        {
          "internalType": "uint256[]",
          "name": "tokenIds",
          "type": "uint256[]"
        },
        {
          "internalType": "string[]",
          "name": "uris",
          "type": "string[]"
        }
      ],
      "name": "setTokenURI",
      "outputs": [],
      "stateMutability": "nonpayable",
      "type": "function"
    },
    {
      "inputs": [
        {
          "internalType": "address",
          "name": "extension",
          "type": "address"
        },
        {
          "internalType": "address",
          "name": "permissions",
          "type": "address"
        }
      ],
      "name": "setMintPermissions",
      "outputs": [],
      "stateMutability": "nonpayable",
      "type": "function"
    },
    {
      "inputs": [
        {
          "internalType": "address[]",
          "name": "to",
          "type": "address[]"
        },
        {
          "internalType": "uint256[]",
          "name": "amounts",
          "type": "uint256[]"
        },
        {
          "internalType": "string[]",
          "name": "uris",
          "type": "string[]"
        }
      ],
      "name": "mintBaseNew",
      "outputs": [
        {
          "internalType": "uint256[]",
          "name": "",
          "type": "uint256[]"
        }
      ],
      "stateMutability": "nonpayable",
      "type": "function"
    },
    {
      "inputs": [
        {
          "internalType": "address[]",
          "name": "to",
          "type": "address[]"
        },
        {
          "internalType": "uint256[]",
          "name": "tokenIds",
          "type": "uint256[]"
        },
        {
          "internalType": "uint256[]",
          "name": "amounts",
          "type": "uint256[]"
        }
      ],
      "name": "mintBaseExisting",
      "outputs": [],
      "stateMutability": "nonpayable",
      "type": "function"
    },
    {
      "inputs": [
        {
          "internalType": "address[]",
          "name": "to",
          "type": "address[]"
        },
        {
          "internalType": "uint256[]",
          "name": "amounts",
          "type": "uint256[]"
        },
        {
          "internalType": "string[]",
          "name": "uris",
          "type": "string[]"
        }
      ],
      "name": "mintExtensionNew",
      "outputs": [
        {
          "internalType": "uint256[]",
          "name": "tokenIds",
          "type": "uint256[]"
        }
      ],
      "stateMutability": "nonpayable",
      "type": "function"
    },
    {
      "inputs": [
        {
          "internalType": "address[]",
          "name": "to",
          "type": "address[]"
        },
        {
          "internalType": "uint256[]",
          "name": "tokenIds",
          "type": "uint256[]"
        },
        {
          "internalType": "uint256[]",
          "name": "amounts",
          "type": "uint256[]"
        }
      ],
      "name": "mintExtensionExisting",
      "outputs": [],
      "stateMutability": "nonpayable",
      "type": "function"
    },
    {
      "inputs": [
        {
          "internalType": "uint256",
          "name": "tokenId",
          "type": "uint256"
        }
      ],
      "name": "tokenExtension",
      "outputs": [
        {
          "internalType": "address",
          "name": "",
          "type": "address"
        }
      ],
      "stateMutability": "view",
      "type": "function"
    },
    {
      "inputs": [
        {
          "internalType": "address",
          "name": "account",
          "type": "address"
        },
        {
          "internalType": "uint256[]",
          "name": "tokenIds",
          "type": "uint256[]"
        },
        {
          "internalType": "uint256[]",
          "name": "amounts",
          "type": "uint256[]"
        }
      ],
      "name": "burn",
      "outputs": [],
      "stateMutability": "nonpayable",
      "type": "function"
    },
    {
      "inputs": [
        {
          "internalType": "uint256",
          "name": "tokenId",
          "type": "uint256"
        },
        {
          "internalType": "address payable[]",
          "name": "receivers",
          "type": "address[]"
        },
        {
          "internalType": "uint256[]",
          "name": "basisPoints",
          "type": "uint256[]"
        }
      ],
      "name": "setRoyalties",
      "outputs": [],
      "stateMutability": "nonpayable",
      "type": "function"
    },
    {
      "inputs": [
        {
          "internalType": "address payable[]",
          "name": "receivers",
          "type": "address[]"
        },
        {
          "internalType": "uint256[]",
          "name": "basisPoints",
          "type": "uint256[]"
        }
      ],
      "name": "setRoyalties",
      "outputs": [],
      "stateMutability": "nonpayable",
      "type": "function"
    },
    {
      "inputs": [
        {
          "internalType": "address",
          "name": "extension",
          "type": "address"
        },
        {
          "internalType": "address payable[]",
          "name": "receivers",
          "type": "address[]"
        },
        {
          "internalType": "uint256[]",
          "name": "basisPoints",
          "type": "uint256[]"
        }
      ],
      "name": "setRoyaltiesExtension",
      "outputs": [],
      "stateMutability": "nonpayable",
      "type": "function"
    },
    {
      "inputs": [
        {
          "internalType": "uint256",
          "name": "tokenId",
          "type": "uint256"
        }
      ],
      "name": "getRoyalties",
      "outputs": [
        {
          "internalType": "address payable[]",
          "name": "",
          "type": "address[]"
        },
        {
          "internalType": "uint256[]",
          "name": "",
          "type": "uint256[]"
        }
      ],
      "stateMutability": "view",
      "type": "function"
    },
    {
      "inputs": [
        {
          "internalType": "uint256",
          "name": "tokenId",
          "type": "uint256"
        }
      ],
      "name": "getFees",
      "outputs": [
        {
          "internalType": "address payable[]",
          "name": "",
          "type": "address[]"
        },
        {
          "internalType": "uint256[]",
          "name": "",
          "type": "uint256[]"
        }
      ],
      "stateMutability": "view",
      "type": "function"
    },
    {
      "inputs": [
        {
          "internalType": "uint256",
          "name": "tokenId",
          "type": "uint256"
        }
      ],
      "name": "getFeeRecipients",
      "outputs": [
        {
          "internalType": "address payable[]",
          "name": "",
          "type": "address[]"
        }
      ],
      "stateMutability": "view",
      "type": "function"
    },
    {
      "inputs": [
        {
          "internalType": "uint256",
          "name": "tokenId",
          "type": "uint256"
        }
      ],
      "name": "getFeeBps",
      "outputs": [
        {
          "internalType": "uint256[]",
          "name": "",
          "type": "uint256[]"
        }
      ],
      "stateMutability": "view",
      "type": "function"
    },
    {
      "inputs": [
        {
          "internalType": "uint256",
          "name": "tokenId",
          "type": "uint256"
        },
        {
          "internalType": "uint256",
          "name": "value",
          "type": "uint256"
        }
      ],
      "name": "royaltyInfo",
      "outputs": [
        {
          "internalType": "address",
          "name": "",
          "type": "address"
        },
        {
          "internalType": "uint256",
          "name": "",
          "type": "uint256"
        }
      ],
      "stateMutability": "view",
      "type": "function"
    },
    {
      "inputs": [
        {
          "internalType": "uint256",
          "name": "tokenId",
          "type": "uint256"
        }
      ],
      "name": "uri",
      "outputs": [
        {
          "internalType": "string",
          "name": "",
          "type": "string"
        }
      ],
      "stateMutability": "view",
      "type": "function"
    },
    {
      "inputs": [
        {
          "internalType": "uint256",
          "name": "tokenId",
          "type": "uint256"
        }
      ],
      "name": "totalSupply",
      "outputs": [
        {
          "internalType": "uint256",
          "name": "",
          "type": "uint256"
        }
      ],
      "stateMutability": "view",
      "type": "function"
    }
  ],
  "bytecode": "0x6080604052600060cc553480156200001657600080fd5b50600160658190555061ad54806200002f6000396000f3fe608060405234801561001057600080fd5b50600436106102945760003560e01c80636d73e66911610167578063b9c4d9fb116100ce578063e92a89f611610087578063e92a89f6146107fe578063e985e9c51461081a578063f0cdc4991461084a578063f242432a14610866578063f2fde38b14610882578063feeb5a9a1461089e57610294565b8063b9c4d9fb14610704578063bb3bafd614610734578063bd85b03914610765578063ce8aee9d14610795578063d5a06d4c146107b1578063e6c884dc146107e257610294565b80638da5cb5b116101205780638da5cb5b1461065a57806399e0dd7c14610678578063a22cb46514610694578063aafb2d44146106b0578063ac0c8cfa146106cc578063b0fe87c9146106e857610294565b80636d73e669146105c0578063715018a6146105dc5780638129fc1c146105e657806382dcc0c8146105f057806383b7db631461060c5780638c6e84721461062a57610294565b80632eb2c2d61161020b5780633e6134b8116101c45780633e6134b8146105045780633f0f37f6146105205780634e1273f41461053c57806361e5bc6b1461056c57806366d1e9d014610588578063695c96e6146105a457610294565b80632eb2c2d61461045a57806330176e13146104765780633071a0f91461049257806331ae450b146104ae578063332dd1ae146104cc5780633db0f8ab146104e857610294565b8063162094c41161025d578063162094c41461037557806320e4afe214610391578063239be317146103ad57806324d7806c146103dd5780632a55205a1461040d5780632d3456701461043e57610294565b8062fdd58e1461029957806301ffc9a7146102c957806302e7afb7146102f95780630e89341c146103155780630ebd4c7f14610345575b600080fd5b6102b360048036038101906102ae919061840b565b6108ce565b6040516102c09190619ba2565b60405180910390f35b6102e360048036038101906102de9190618782565b610998565b6040516102f0919061968f565b60405180910390f35b610313600480360381019061030e9190618004565b6109ca565b005b61032f600480360381019061032a91906188d2565b610a66565b60405161033c91906196e0565b60405180910390f35b61035f600480360381019061035a91906188d2565b610a78565b60405161036c9190619636565b60405180910390f35b61038f600480360381019061038a9190618994565b610ad9565b005b6103ab60048036038101906103a691906188ff565b610b79565b005b6103c760048036038101906103c291906188d2565b610c1d565b6040516103d49190619388565b60405180910390f35b6103f760048036038101906103f29190618004565b610c2f565b604051610404919061968f565b60405180910390f35b610427600480360381019061042291906189f4565b610c89565b604051610435929190619557565b60405180910390f35b61045860048036038101906104539190618004565b610ca1565b005b610474600480360381019061046f9190618071565b610da9565b005b610490600480360381019061048b91906187dc565b610e4a565b005b6104ac60048036038101906104a79190618337565b610f2b565b005b6104b6611023565b6040516104c39190619580565b60405180910390f35b6104e660048036038101906104e1919061862b565b611105565b005b61050260048036038101906104fd919061826c565b6111a8565b005b61051e600480360381019061051991906187dc565b61132d565b005b61053a60048036038101906105359190618397565b611390565b005b610556600480360381019061055191906185b3565b611488565b6040516105639190619636565b60405180910390f35b610586600480360381019061058191906186ac565b6115a1565b005b6105a2600480360381019061059d91906187dc565b6116a7565b005b6105be60048036038101906105b991906184ff565b611708565b005b6105da60048036038101906105d59190618004565b6119a1565b005b6105e4611aa8565b005b6105ee611b30565b005b61060a60048036038101906106059190618829565b611bdc565b005b610614611c3f565b6040516106219190619580565b60405180910390f35b610644600480360381019061063f919061844b565b611d21565b6040516106519190619636565b60405180910390f35b610662611e72565b60405161066f9190619388565b60405180910390f35b610692600480360381019061068d91906187dc565b611e9c565b005b6106ae60048036038101906106a991906182f7565b611f3a565b005b6106ca60048036038101906106c591906186ac565b611f50565b005b6106e660048036038101906106e19190618728565b612093565b005b61070260048036038101906106fd91906181d7565b612258565b005b61071e600480360381019061071991906188d2565b6122fc565b60405161072b91906195dd565b60405180910390f35b61074e600480360381019061074991906188d2565b612393565b60405161075c9291906195ff565b60405180910390f35b61077f600480360381019061077a91906188d2565b612482565b60405161078c9190619ba2565b60405180910390f35b6107af60048036038101906107aa9190618004565b61249f565b005b6107cb60048036038101906107c691906188d2565b61253b565b6040516107d99291906195ff565b60405180910390f35b6107fc60048036038101906107f791906184ff565b61262a565b005b61081860048036038101906108139190618994565b612886565b005b610834600480360381019061082f9190618031565b6128e9565b604051610841919061968f565b60405180910390f35b610864600480360381019061085f9190618031565b61297d565b005b610880600480360381019061087b9190618140565b612a1b565b005b61089c60048036038101906108979190618004565b612abc565b005b6108b860048036038101906108b3919061844b565b612bb4565b6040516108c59190619636565b60405180910390f35b60008073ffffffffffffffffffffffffffffffffffffffff168373ffffffffffffffffffffffffffffffffffffffff16141561093f576040517f08c379a000000000000000000000000000000000000000000000000000000000815260040161093690619782565b60405180910390fd5b609a600083815260200190815260200160002060008473ffffffffffffffffffffffffffffffffffffffff1673ffffffffffffffffffffffffffffffffffffffff16815260200190815260200160002054905092915050565b60006109a382612d42565b806109b357506109b282612dbc565b5b806109c357506109c282612e9e565b5b9050919050565b3373ffffffffffffffffffffffffffffffffffffffff166109e9611e72565b73ffffffffffffffffffffffffffffffffffffffff161480610a1b5750610a1a336066612f1890919063ffffffff16565b5b610a5a576040517f08c379a0000000000000000000000000000000000000000000000000000000008152600401610a5190619a62565b60405180910390fd5b610a6381612f48565b50565b6060610a71826130cb565b9050919050565b6060610a838261354a565b805480602002602001604051908101604052809291908181526020018280548015610acd57602002820191906000526020600020905b815481526020019060010190808311610ab9575b50505050509050919050565b3373ffffffffffffffffffffffffffffffffffffffff16610af8611e72565b73ffffffffffffffffffffffffffffffffffffffff161480610b2a5750610b29336066612f1890919063ffffffff16565b5b610b69576040517f08c379a0000000000000000000000000000000000000000000000000000000008152600401610b6090619a62565b60405180910390fd5b610b748383836136c2565b505050565b3373ffffffffffffffffffffffffffffffffffffffff16610b98611e72565b73ffffffffffffffffffffffffffffffffffffffff161480610bca5750610bc9336066612f1890919063ffffffff16565b5b610c09576040517f08c379a0000000000000000000000000000000000000000000000000000000008152600401610c0090619a62565b60405180910390fd5b610c16858585858561378b565b5050505050565b6000610c28826138f1565b9050919050565b60008173ffffffffffffffffffffffffffffffffffffffff16610c50611e72565b73ffffffffffffffffffffffffffffffffffffffff161480610c825750610c81826066612f1890919063ffffffff16565b5b9050919050565b600080610c9684846139f1565b915091509250929050565b610ca9613aee565b73ffffffffffffffffffffffffffffffffffffffff16610cc7611e72565b73ffffffffffffffffffffffffffffffffffffffff1614610d1d576040517f08c379a0000000000000000000000000000000000000000000000000000000008152600401610d14906199a2565b60405180910390fd5b610d31816066612f1890919063ffffffff16565b15610da6573373ffffffffffffffffffffffffffffffffffffffff168173ffffffffffffffffffffffffffffffffffffffff167f7c0c3c84c67c85fcac635147348bfe374c24a1a93d0366d1cfe9d8853cbf89d560405160405180910390a3610da4816066613af690919063ffffffff16565b505b50565b610db1613aee565b73ffffffffffffffffffffffffffffffffffffffff168573ffffffffffffffffffffffffffffffffffffffff161480610df75750610df685610df1613aee565b6128e9565b5b610e36576040517f08c379a0000000000000000000000000000000000000000000000000000000008152600401610e2d906198c2565b60405180910390fd5b610e438585858585613b26565b5050505050565b3373ffffffffffffffffffffffffffffffffffffffff16610e69611e72565b73ffffffffffffffffffffffffffffffffffffffff161480610e9b5750610e9a336066612f1890919063ffffffff16565b5b610eda576040517f08c379a0000000000000000000000000000000000000000000000000000000008152600401610ed190619a62565b60405180910390fd5b610f2782828080601f016020809104026020016040519081016040528093929190818152602001838380828437600081840152601f19601f82011690508083019250505050505050613e4b565b5050565b3373ffffffffffffffffffffffffffffffffffffffff16610f4a611e72565b73ffffffffffffffffffffffffffffffffffffffff161480610f7c5750610f7b336066612f1890919063ffffffff16565b5b610fbb576040517f08c379a0000000000000000000000000000000000000000000000000000000008152600401610fb290619a62565b60405180910390fd5b82610fd08160cf612f1890919063ffffffff16565b15611010576040517f08c379a000000000000000000000000000000000000000000000000000000000815260040161100790619822565b60405180910390fd5b61101d8484846000613ea2565b50505050565b606061102f60666140a3565b67ffffffffffffffff8111156110485761104761a269565b5b6040519080825280602002602001820160405280156110765781602001602082028036833780820191505090505b50905060005b61108660666140a3565b811015611101576110a18160666140b890919063ffffffff16565b8282815181106110b4576110b361a23a565b5b602002602001019073ffffffffffffffffffffffffffffffffffffffff16908173ffffffffffffffffffffffffffffffffffffffff168152505080806110f99061a104565b91505061107c565b5090565b3373ffffffffffffffffffffffffffffffffffffffff16611124611e72565b73ffffffffffffffffffffffffffffffffffffffff1614806111565750611155336066612f1890919063ffffffff16565b5b611195576040517f08c379a000000000000000000000000000000000000000000000000000000000815260040161118c90619a62565b60405180910390fd5b6111a230858585856140d2565b50505050565b600260655414156111ee576040517f08c379a00000000000000000000000000000000000000000000000000000000081526004016111e590619b82565b60405180910390fd5b60026065819055503373ffffffffffffffffffffffffffffffffffffffff168373ffffffffffffffffffffffffffffffffffffffff161480611236575061123583336128e9565b5b611275576040517f08c379a000000000000000000000000000000000000000000000000000000000815260040161126c90619a42565b60405180910390fd5b80518251146112b9576040517f08c379a00000000000000000000000000000000000000000000000000000000081526004016112b0906199e2565b60405180910390fd5b6001825114156113095761130483836000815181106112db576112da61a23a565b5b6020026020010151836000815181106112f7576112f661a23a565b5b602002602001015161431d565b611315565b611314838383614357565b5b6113208383836143e3565b6001606581905550505050565b6113413360cd612f1890919063ffffffff16565b611380576040517f08c379a000000000000000000000000000000000000000000000000000000000815260040161137790619862565b60405180910390fd5b61138c8282600061462e565b5050565b3373ffffffffffffffffffffffffffffffffffffffff166113af611e72565b73ffffffffffffffffffffffffffffffffffffffff1614806113e157506113e0336066612f1890919063ffffffff16565b5b611420576040517f08c379a000000000000000000000000000000000000000000000000000000000815260040161141790619a62565b60405180910390fd5b836114358160cf612f1890919063ffffffff16565b15611475576040517f08c379a000000000000000000000000000000000000000000000000000000000815260040161146c90619822565b60405180910390fd5b61148185858585613ea2565b5050505050565b606081518351146114ce576040517f08c379a00000000000000000000000000000000000000000000000000000000081526004016114c590619b22565b60405180910390fd5b6000835167ffffffffffffffff8111156114eb576114ea61a269565b5b6040519080825280602002602001820160405280156115195781602001602082028036833780820191505090505b50905060005b84518110156115965761156685828151811061153e5761153d61a23a565b5b60200260200101518583815181106115595761155861a23a565b5b60200260200101516108ce565b8282815181106115795761157861a23a565b5b6020026020010181815250508061158f9061a104565b905061151f565b508091505092915050565b6115b53360cd612f1890919063ffffffff16565b6115f4576040517f08c379a00000000000000000000000000000000000000000000000000000000081526004016115eb90619862565b60405180910390fd5b8181905083511461163a576040517f08c379a0000000000000000000000000000000000000000000000000000000008152600401611631906199e2565b60405180910390fd5b60005b83518110156116a15761168e84828151811061165c5761165b61a23a565b5b60200260200101518484848181106116775761167661a23a565b5b90506020028101906116899190619be6565b6146d9565b80806116999061a104565b91505061163d565b50505050565b6116bb3360cd612f1890919063ffffffff16565b6116fa576040517f08c379a00000000000000000000000000000000000000000000000000000000081526004016116f190619862565b60405180910390fd5b61170482826147a2565b5050565b6002606554141561174e576040517f08c379a000000000000000000000000000000000000000000000000000000000815260040161174590619b82565b60405180910390fd5b60026065819055503373ffffffffffffffffffffffffffffffffffffffff16611775611e72565b73ffffffffffffffffffffffffffffffffffffffff1614806117a757506117a6336066612f1890919063ffffffff16565b5b6117e6576040517f08c379a00000000000000000000000000000000000000000000000000000000081526004016117dd90619a62565b60405180910390fd5b60005b848490508110156118c1573073ffffffffffffffffffffffffffffffffffffffff1660d360008787858181106118225761182161a23a565b5b90506020020135815260200190815260200160002060009054906101000a900473ffffffffffffffffffffffffffffffffffffffff1673ffffffffffffffffffffffffffffffffffffffff16146118ae576040517f08c379a00000000000000000000000000000000000000000000000000000000081526004016118a590619ae2565b60405180910390fd5b80806118b99061a104565b9150506117e9565b5061199130878780806020026020016040519081016040528093929190818152602001838360200280828437600081840152601f19601f82011690508083019250505050505050868680806020026020016040519081016040528093929190818152602001838360200280828437600081840152601f19601f82011690508083019250505050505050858580806020026020016040519081016040528093929190818152602001838360200280828437600081840152601f19601f820116905080830192505050505050506147f5565b6001606581905550505050505050565b6119a9613aee565b73ffffffffffffffffffffffffffffffffffffffff166119c7611e72565b73ffffffffffffffffffffffffffffffffffffffff1614611a1d576040517f08c379a0000000000000000000000000000000000000000000000000000000008152600401611a14906199a2565b60405180910390fd5b611a31816066612f1890919063ffffffff16565b611aa5573373ffffffffffffffffffffffffffffffffffffffff168173ffffffffffffffffffffffffffffffffffffffff167f7e1a1a08d52e4ba0e21554733d66165fd5151f99460116223d9e3a608eec5cb160405160405180910390a3611aa3816066614c8890919063ffffffff16565b505b50565b611ab0613aee565b73ffffffffffffffffffffffffffffffffffffffff16611ace611e72565b73ffffffffffffffffffffffffffffffffffffffff1614611b24576040517f08c379a0000000000000000000000000000000000000000000000000000000008152600401611b1b906199a2565b60405180910390fd5b611b2e6000614cb8565b565b6000611b3c6001614d7e565b90508015611b60576001600060016101000a81548160ff0219169083151502179055505b611b7860405180602001604052806000815250614e6e565b611b80614ec9565b8015611bd95760008060016101000a81548160ff0219169083151502179055507f7f26b83ff96e1f2b6a682f133852f6798a09c465da95921460cefb38474024986001604051611bd091906196c5565b60405180910390a15b50565b611bf03360cd612f1890919063ffffffff16565b611c2f576040517f08c379a0000000000000000000000000000000000000000000000000000000008152600401611c2690619862565b60405180910390fd5b611c3a83838361462e565b505050565b6060611c4b60cd6140a3565b67ffffffffffffffff811115611c6457611c6361a269565b5b604051908082528060200260200182016040528015611c925781602001602082028036833780820191505090505b50905060005b611ca260cd6140a3565b811015611d1d57611cbd8160cd6140b890919063ffffffff16565b828281518110611cd057611ccf61a23a565b5b602002602001019073ffffffffffffffffffffffffffffffffffffffff16908173ffffffffffffffffffffffffffffffffffffffff16815250508080611d159061a104565b915050611c98565b5090565b606060026065541415611d69576040517f08c379a0000000000000000000000000000000000000000000000000000000008152600401611d6090619b82565b60405180910390fd5b6002606581905550611d853360cd612f1890919063ffffffff16565b611dc4576040517f08c379a0000000000000000000000000000000000000000000000000000000008152600401611dbb90619862565b60405180910390fd5b611e5e33888880806020026020016040519081016040528093929190818152602001838360200280828437600081840152601f19601f82011690508083019250505050505050878780806020026020016040519081016040528093929190818152602001838360200280828437600081840152601f19601f82011690508083019250505050505050868690611e59919061a038565b614f22565b905060016065819055509695505050505050565b6000603360009054906101000a900473ffffffffffffffffffffffffffffffffffffffff16905090565b3373ffffffffffffffffffffffffffffffffffffffff16611ebb611e72565b73ffffffffffffffffffffffffffffffffffffffff161480611eed5750611eec336066612f1890919063ffffffff16565b5b611f2c576040517f08c379a0000000000000000000000000000000000000000000000000000000008152600401611f2390619a62565b60405180910390fd5b611f368282615508565b5050565b611f4c611f45613aee565b838361555b565b5050565b3373ffffffffffffffffffffffffffffffffffffffff16611f6f611e72565b73ffffffffffffffffffffffffffffffffffffffff161480611fa15750611fa0336066612f1890919063ffffffff16565b5b611fe0576040517f08c379a0000000000000000000000000000000000000000000000000000000008152600401611fd790619a62565b60405180910390fd5b81819050835114612026576040517f08c379a000000000000000000000000000000000000000000000000000000000815260040161201d906199e2565b60405180910390fd5b60005b835181101561208d5761207a8482815181106120485761204761a23a565b5b60200260200101518484848181106120635761206261a23a565b5b90506020028101906120759190619be6565b6136c2565b80806120859061a104565b915050612029565b50505050565b6120a73360cd612f1890919063ffffffff16565b6120e6576040517f08c379a00000000000000000000000000000000000000000000000000000000081526004016120dd90619862565b60405180910390fd5b8015806121195750612118337f93a80b14000000000000000000000000000000000000000000000000000000006156c8565b5b612158576040517f08c379a000000000000000000000000000000000000000000000000000000000815260040161214f90619882565b60405180910390fd5b80151560d260003373ffffffffffffffffffffffffffffffffffffffff1673ffffffffffffffffffffffffffffffffffffffff16815260200190815260200160002060009054906101000a900460ff16151514612255578060d260003373ffffffffffffffffffffffffffffffffffffffff1673ffffffffffffffffffffffffffffffffffffffff16815260200190815260200160002060006101000a81548160ff0219169083151502179055503373ffffffffffffffffffffffffffffffffffffffff167f072a7592283e2c2d1d56d21517ff6013325e0f55483f4828373ff4d98b0a1a368260405161224c919061968f565b60405180910390a25b50565b3373ffffffffffffffffffffffffffffffffffffffff16612277611e72565b73ffffffffffffffffffffffffffffffffffffffff1614806122a957506122a8336066612f1890919063ffffffff16565b5b6122e8576040517f08c379a00000000000000000000000000000000000000000000000000000000081526004016122df90619a62565b60405180910390fd5b6122f585858585856140d2565b5050505050565b6060612307826156ed565b80548060200260200160405190810160405280929190818152602001828054801561238757602002820191906000526020600020905b8160009054906101000a900473ffffffffffffffffffffffffffffffffffffffff1673ffffffffffffffffffffffffffffffffffffffff168152602001906001019080831161233d575b50505050509050919050565b60608061239f83615865565b8180548060200260200160405190810160405280929190818152602001828054801561242057602002820191906000526020600020905b8160009054906101000a900473ffffffffffffffffffffffffffffffffffffffff1673ffffffffffffffffffffffffffffffffffffffff16815260200190600101908083116123d6575b505050505091508080548060200260200160405190810160405280929190818152602001828054801561247257602002820191906000526020600020905b81548152602001906001019080831161245e575b5050505050905091509150915091565b600060dc6000838152602001908152602001600020549050919050565b3373ffffffffffffffffffffffffffffffffffffffff166124be611e72565b73ffffffffffffffffffffffffffffffffffffffff1614806124f057506124ef336066612f1890919063ffffffff16565b5b61252f576040517f08c379a000000000000000000000000000000000000000000000000000000000815260040161252690619a62565b60405180910390fd5b61253881615883565b50565b60608061254783615865565b818054806020026020016040519081016040528092919081815260200182805480156125c857602002820191906000526020600020905b8160009054906101000a900473ffffffffffffffffffffffffffffffffffffffff1673ffffffffffffffffffffffffffffffffffffffff168152602001906001019080831161257e575b505050505091508080548060200260200160405190810160405280929190818152602001828054801561261a57602002820191906000526020600020905b815481526020019060010190808311612606575b5050505050905091509150915091565b60026065541415612670576040517f08c379a000000000000000000000000000000000000000000000000000000000815260040161266790619b82565b60405180910390fd5b600260658190555061268c3360cd612f1890919063ffffffff16565b6126cb576040517f08c379a00000000000000000000000000000000000000000000000000000000081526004016126c290619862565b60405180910390fd5b60005b848490508110156127a6573373ffffffffffffffffffffffffffffffffffffffff1660d360008787858181106127075761270661a23a565b5b90506020020135815260200190815260200160002060009054906101000a900473ffffffffffffffffffffffffffffffffffffffff1673ffffffffffffffffffffffffffffffffffffffff1614612793576040517f08c379a000000000000000000000000000000000000000000000000000000000815260040161278a90619a82565b60405180910390fd5b808061279e9061a104565b9150506126ce565b5061287633878780806020026020016040519081016040528093929190818152602001838360200280828437600081840152601f19601f82011690508083019250505050505050868680806020026020016040519081016040528093929190818152602001838360200280828437600081840152601f19601f82011690508083019250505050505050858580806020026020016040519081016040528093929190818152602001838360200280828437600081840152601f19601f820116905080830192505050505050506147f5565b6001606581905550505050505050565b61289a3360cd612f1890919063ffffffff16565b6128d9576040517f08c379a00000000000000000000000000000000000000000000000000000000081526004016128d090619862565b60405180910390fd5b6128e48383836146d9565b505050565b6000609b60008473ffffffffffffffffffffffffffffffffffffffff1673ffffffffffffffffffffffffffffffffffffffff16815260200190815260200160002060008373ffffffffffffffffffffffffffffffffffffffff1673ffffffffffffffffffffffffffffffffffffffff16815260200190815260200160002060009054906101000a900460ff16905092915050565b3373ffffffffffffffffffffffffffffffffffffffff1661299c611e72565b73ffffffffffffffffffffffffffffffffffffffff1614806129ce57506129cd336066612f1890919063ffffffff16565b5b612a0d576040517f08c379a0000000000000000000000000000000000000000000000000000000008152600401612a0490619a62565b60405180910390fd5b612a17828261590f565b5050565b612a23613aee565b73ffffffffffffffffffffffffffffffffffffffff168573ffffffffffffffffffffffffffffffffffffffff161480612a695750612a6885612a63613aee565b6128e9565b5b612aa8576040517f08c379a0000000000000000000000000000000000000000000000000000000008152600401612a9f906197e2565b60405180910390fd5b612ab58585858585615b88565b5050505050565b612ac4613aee565b73ffffffffffffffffffffffffffffffffffffffff16612ae2611e72565b73ffffffffffffffffffffffffffffffffffffffff1614612b38576040517f08c379a0000000000000000000000000000000000000000000000000000000008152600401612b2f906199a2565b60405180910390fd5b600073ffffffffffffffffffffffffffffffffffffffff168173ffffffffffffffffffffffffffffffffffffffff161415612ba8576040517f08c379a0000000000000000000000000000000000000000000000000000000008152600401612b9f906197a2565b60405180910390fd5b612bb181614cb8565b50565b606060026065541415612bfc576040517f08c379a0000000000000000000000000000000000000000000000000000000008152600401612bf390619b82565b60405180910390fd5b60026065819055503373ffffffffffffffffffffffffffffffffffffffff16612c23611e72565b73ffffffffffffffffffffffffffffffffffffffff161480612c555750612c54336066612f1890919063ffffffff16565b5b612c94576040517f08c379a0000000000000000000000000000000000000000000000000000000008152600401612c8b90619a62565b60405180910390fd5b612d2e30888880806020026020016040519081016040528093929190818152602001838360200280828437600081840152601f19601f82011690508083019250505050505050878780806020026020016040519081016040528093929190818152602001838360200280828437600081840152601f19601f82011690508083019250505050505050868690612d29919061a038565b614f22565b905060016065819055509695505050505050565b60007f7d248440000000000000000000000000000000000000000000000000000000007bffffffffffffffffffffffffffffffffffffffffffffffffffffffff1916827bffffffffffffffffffffffffffffffffffffffffffffffffffffffff19161480612db55750612db482615e27565b5b9050919050565b60007fd9b67a26000000000000000000000000000000000000000000000000000000007bffffffffffffffffffffffffffffffffffffffffffffffffffffffff1916827bffffffffffffffffffffffffffffffffffffffffffffffffffffffff19161480612e8757507f0e89341c000000000000000000000000000000000000000000000000000000007bffffffffffffffffffffffffffffffffffffffffffffffffffffffff1916827bffffffffffffffffffffffffffffffffffffffffffffffffffffffff1916145b80612e975750612e9682615fdd565b5b9050919050565b60007f553e757e000000000000000000000000000000000000000000000000000000007bffffffffffffffffffffffffffffffffffffffffffffffffffffffff1916827bffffffffffffffffffffffffffffffffffffffffffffffffffffffff19161480612f115750612f1082616047565b5b9050919050565b6000612f40836000018373ffffffffffffffffffffffffffffffffffffffff1660001b6160b1565b905092915050565b3073ffffffffffffffffffffffffffffffffffffffff168173ffffffffffffffffffffffffffffffffffffffff161415612fb7576040517f08c379a0000000000000000000000000000000000000000000000000000000008152600401612fae90619742565b60405180910390fd5b612fcb8160cd612f1890919063ffffffff16565b15613040573373ffffffffffffffffffffffffffffffffffffffff168173ffffffffffffffffffffffffffffffffffffffff167fd19cf84cf0fec6bec9ddfa29c63adf83a55707c712f32c8285d6180a7890147960405160405180910390a361303e8160cd613af690919063ffffffff16565b505b6130548160cf612f1890919063ffffffff16565b6130c8573373ffffffffffffffffffffffffffffffffffffffff168173ffffffffffffffffffffffffffffffffffffffff167f05ac7bc5a606cd92a63365f9fda244499b9add0526b22d99937b6bd88181059c60405160405180910390a36130c68160cf614c8890919063ffffffff16565b505b50565b6060600060d3600084815260200190815260200160002060009054906101000a900473ffffffffffffffffffffffffffffffffffffffff1690506131198160cf612f1890919063ffffffff16565b15613159576040517f08c379a000000000000000000000000000000000000000000000000000000000815260040161315090619822565b60405180910390fd5b600060d7600085815260200190815260200160002080546131799061a0a1565b9050146132f157600060d660008373ffffffffffffffffffffffffffffffffffffffff1673ffffffffffffffffffffffffffffffffffffffff16815260200190815260200160002080546131cc9061a0a1565b90501461324d5760d660008273ffffffffffffffffffffffffffffffffffffffff1673ffffffffffffffffffffffffffffffffffffffff16815260200190815260200160002060d76000858152602001908152602001600020604051602001613236929190619364565b604051602081830303815290604052915050613545565b60d76000848152602001908152602001600020805461326b9061a0a1565b80601f01602080910402602001604051908101604052809291908181526020018280546132979061a0a1565b80156132e45780601f106132b9576101008083540402835291602001916132e4565b820191906000526020600020905b8154815290600101906020018083116132c757829003601f168201915b5050505050915050613545565b61331b817fe9dc6375000000000000000000000000000000000000000000000000000000006156c8565b156133b8578073ffffffffffffffffffffffffffffffffffffffff1663e9dc637530856040518363ffffffff1660e01b815260040161335b929190619557565b60006040518083038186803b15801561337357600080fd5b505afa158015613387573d6000803e3d6000fd5b505050506040513d6000823e3d601f19601f820116820180604052508101906133b09190618889565b915050613545565b60d560008273ffffffffffffffffffffffffffffffffffffffff1673ffffffffffffffffffffffffffffffffffffffff16815260200190815260200160002060009054906101000a900460ff166134795760d460008273ffffffffffffffffffffffffffffffffffffffff1673ffffffffffffffffffffffffffffffffffffffff168152602001908152602001600020613451846160d4565b604051602001613462929190619340565b604051602081830303815290604052915050613545565b60d460008273ffffffffffffffffffffffffffffffffffffffff1673ffffffffffffffffffffffffffffffffffffffff16815260200190815260200160002080546134c39061a0a1565b80601f01602080910402602001604051908101604052809291908181526020018280546134ef9061a0a1565b801561353c5780601f106135115761010080835404028352916020019161353c565b820191906000526020600020905b81548152906001019060200180831161351f57829003601f168201915b50505050509150505b919050565b60008060db60008481526020019081526020016000208054905011156135845760db600083815260200190815260200160002090506136bd565b600060d9600060d3600086815260200190815260200160002060009054906101000a900473ffffffffffffffffffffffffffffffffffffffff1673ffffffffffffffffffffffffffffffffffffffff1673ffffffffffffffffffffffffffffffffffffffff16815260200190815260200160002080549050111561367b5760d9600060d3600085815260200190815260200160002060009054906101000a900473ffffffffffffffffffffffffffffffffffffffff1673ffffffffffffffffffffffffffffffffffffffff1673ffffffffffffffffffffffffffffffffffffffff16815260200190815260200160002090506136bd565b60d960003073ffffffffffffffffffffffffffffffffffffffff1673ffffffffffffffffffffffffffffffffffffffff16815260200190815260200160002090505b919050565b3073ffffffffffffffffffffffffffffffffffffffff1660d3600085815260200190815260200160002060009054906101000a900473ffffffffffffffffffffffffffffffffffffffff1673ffffffffffffffffffffffffffffffffffffffff1614613763576040517f08c379a000000000000000000000000000000000000000000000000000000000815260040161375a90619842565b60405180910390fd5b818160d760008681526020019081526020016000209190613785929190617893565b50505050565b8181905084849050146137d3576040517f08c379a00000000000000000000000000000000000000000000000000000000081526004016137ca906199e2565b60405180910390fd5b600080600090505b83839050811015613820578383828181106137f9576137f861a23a565b5b905060200201358261380b9190619e90565b915080806138189061a104565b9150506137db565b506127108110613865576040517f08c379a000000000000000000000000000000000000000000000000000000000815260040161385c90619a02565b60405180910390fd5b848460da60008981526020019081526020016000209190613887929190617919565b50828260db600089815260200190815260200160002091906138aa9291906179b9565b50857fabb46fe0761d77584bde75697647804ffd8113abd4d8d06bc664150395eccdee868686866040516138e194939291906195a2565b60405180910390a2505050505050565b600060d3600083815260200190815260200160002060009054906101000a900473ffffffffffffffffffffffffffffffffffffffff1690503073ffffffffffffffffffffffffffffffffffffffff168173ffffffffffffffffffffffffffffffffffffffff161415613998576040517f08c379a000000000000000000000000000000000000000000000000000000000815260040161398f906199c2565b60405180910390fd5b6139ac8160cf612f1890919063ffffffff16565b156139ec576040517f08c379a00000000000000000000000000000000000000000000000000000000081526004016139e390619822565b60405180910390fd5b919050565b60008060006139ff856156ed565b9050600181805490501115613a49576040517f08c379a0000000000000000000000000000000000000000000000000000000008152600401613a40906198e2565b60405180910390fd5b600081805490501415613a63573060009250925050613ae7565b80600081548110613a7757613a7661a23a565b5b9060005260206000200160009054906101000a900473ffffffffffffffffffffffffffffffffffffffff1661271085613aaf8861354a565b600081548110613ac257613ac161a23a565b5b9060005260206000200154613ad79190619f17565b613ae19190619ee6565b92509250505b9250929050565b600033905090565b6000613b1e836000018373ffffffffffffffffffffffffffffffffffffffff1660001b616235565b905092915050565b8151835114613b6a576040517f08c379a0000000000000000000000000000000000000000000000000000000008152600401613b6190619b42565b60405180910390fd5b600073ffffffffffffffffffffffffffffffffffffffff168473ffffffffffffffffffffffffffffffffffffffff161415613bda576040517f08c379a0000000000000000000000000000000000000000000000000000000008152600401613bd1906198a2565b60405180910390fd5b6000613be4613aee565b9050613bf4818787878787616349565b60005b8451811015613da8576000858281518110613c1557613c1461a23a565b5b602002602001015190506000858381518110613c3457613c3361a23a565b5b602002602001015190506000609a600084815260200190815260200160002060008b73ffffffffffffffffffffffffffffffffffffffff1673ffffffffffffffffffffffffffffffffffffffff16815260200190815260200160002054905081811015613cd6576040517f08c379a0000000000000000000000000000000000000000000000000000000008152600401613ccd90619942565b60405180910390fd5b818103609a600085815260200190815260200160002060008c73ffffffffffffffffffffffffffffffffffffffff1673ffffffffffffffffffffffffffffffffffffffff1681526020019081526020016000208190555081609a600085815260200190815260200160002060008b73ffffffffffffffffffffffffffffffffffffffff1673ffffffffffffffffffffffffffffffffffffffff1681526020019081526020016000206000828254613d8d9190619e90565b9250508190555050505080613da19061a104565b9050613bf7565b508473ffffffffffffffffffffffffffffffffffffffff168673ffffffffffffffffffffffffffffffffffffffff168273ffffffffffffffffffffffffffffffffffffffff167f4a39dc06d4c0dbc64b70af90fd698a233a518aa5d07e595d983b8c0526c8f7fb8787604051613e1f929190619658565b60405180910390a4613e3581878787878761635d565b613e43818787878787616365565b505050505050565b8060d460003073ffffffffffffffffffffffffffffffffffffffff1673ffffffffffffffffffffffffffffffffffffffff1681526020019081526020016000209080519060200190613e9e929190617a06565b5050565b3073ffffffffffffffffffffffffffffffffffffffff168473ffffffffffffffffffffffffffffffffffffffff161415613f11576040517f08c379a0000000000000000000000000000000000000000000000000000000008152600401613f0890619ac2565b60405180910390fd5b613f308473ffffffffffffffffffffffffffffffffffffffff1661654c565b613f6f576040517f08c379a0000000000000000000000000000000000000000000000000000000008152600401613f6690619962565b60405180910390fd5b613f838460cd612f1890919063ffffffff16565b61409d57828260d460008773ffffffffffffffffffffffffffffffffffffffff1673ffffffffffffffffffffffffffffffffffffffff1681526020019081526020016000209190613fd5929190617893565b508060d560008673ffffffffffffffffffffffffffffffffffffffff1673ffffffffffffffffffffffffffffffffffffffff16815260200190815260200160002060006101000a81548160ff0219169083151502179055503373ffffffffffffffffffffffffffffffffffffffff168473ffffffffffffffffffffffffffffffffffffffff167fd8cb8ba4086944eabf43c5535b7712015e4d4c714b24bf812c040ea5b7a3e42a60405160405180910390a361409b8460cd614c8890919063ffffffff16565b505b50505050565b60006140b18260000161656f565b9050919050565b60006140c78360000183616580565b60001c905092915050565b81819050848490501461411a576040517f08c379a0000000000000000000000000000000000000000000000000000000008152600401614111906199e2565b60405180910390fd5b600080600090505b83839050811015614167578383828181106141405761413f61a23a565b5b90506020020135826141529190619e90565b9150808061415f9061a104565b915050614122565b5061271081106141ac576040517f08c379a00000000000000000000000000000000000000000000000000000000081526004016141a390619a02565b60405180910390fd5b848460d860008973ffffffffffffffffffffffffffffffffffffffff1673ffffffffffffffffffffffffffffffffffffffff16815260200190815260200160002091906141fa929190617919565b50828260d960008973ffffffffffffffffffffffffffffffffffffffff1673ffffffffffffffffffffffffffffffffffffffff16815260200190815260200160002091906142499291906179b9565b503073ffffffffffffffffffffffffffffffffffffffff168673ffffffffffffffffffffffffffffffffffffffff1614156142c0577f2b6849d5976d799a5b0ca4dfd6b40a3d7afe9ea72c091fa01a958594f9a2659b858585856040516142b394939291906195a2565b60405180910390a1614315565b8573ffffffffffffffffffffffffffffffffffffffff167f535a93d2cb000582c0ebeaa9be4890ec6a287f98eb2df00c54c300612fd78d8f8686868660405161430c94939291906195a2565b60405180910390a25b505050505050565b6143288383836165ab565b8060dc6000848152602001908152602001600020600082825461434b9190619f71565b92505081905550505050565b6143628383836167f4565b60005b82518110156143dd578181815181106143815761438061a23a565b5b602002602001015160dc60008584815181106143a05761439f61a23a565b5b6020026020010151815260200190815260200160002060008282546143c59190619f71565b92505081905550806143d69061a104565b9050614365565b50505050565b6000825111614427576040517f08c379a000000000000000000000000000000000000000000000000000000000815260040161441e906199e2565b60405180910390fd5b600060d36000846000815181106144415761444061a23a565b5b6020026020010151815260200190815260200160002060009054906101000a900473ffffffffffffffffffffffffffffffffffffffff16905060005b8351811015614554578173ffffffffffffffffffffffffffffffffffffffff1660d360008684815181106144b4576144b361a23a565b5b6020026020010151815260200190815260200160002060009054906101000a900473ffffffffffffffffffffffffffffffffffffffff1673ffffffffffffffffffffffffffffffffffffffff1614614541576040517f08c379a000000000000000000000000000000000000000000000000000000000815260040161453890619982565b60405180910390fd5b808061454c9061a104565b91505061447d565b503073ffffffffffffffffffffffffffffffffffffffff168173ffffffffffffffffffffffffffffffffffffffff1614614628576145b2817f7b8deca0000000000000000000000000000000000000000000000000000000006156c8565b15614627578073ffffffffffffffffffffffffffffffffffffffff16637b8deca08585856040518463ffffffff1660e01b81526004016145f493929190619512565b600060405180830381600087803b15801561460e57600080fd5b505af1158015614622573d6000803e3d6000fd5b505050505b5b50505050565b828260d460003373ffffffffffffffffffffffffffffffffffffffff1673ffffffffffffffffffffffffffffffffffffffff168152602001908152602001600020919061467c929190617893565b508060d560003373ffffffffffffffffffffffffffffffffffffffff1673ffffffffffffffffffffffffffffffffffffffff16815260200190815260200160002060006101000a81548160ff021916908315150217905550505050565b3373ffffffffffffffffffffffffffffffffffffffff1660d3600085815260200190815260200160002060009054906101000a900473ffffffffffffffffffffffffffffffffffffffff1673ffffffffffffffffffffffffffffffffffffffff161461477a576040517f08c379a000000000000000000000000000000000000000000000000000000000815260040161477190619842565b60405180910390fd5b818160d76000868152602001908152602001600020919061479c929190617893565b50505050565b818160d660003373ffffffffffffffffffffffffffffffffffffffff1673ffffffffffffffffffffffffffffffffffffffff16815260200190815260200160002091906147f0929190617893565b505050565b3073ffffffffffffffffffffffffffffffffffffffff168473ffffffffffffffffffffffffffffffffffffffff161461483457614833838383616ac5565b5b60018351148015614846575060018251145b8015614853575060018151145b15614907576149028360008151811061486f5761486e61a23a565b5b60200260200101518360008151811061488b5761488a61a23a565b5b6020026020010151836000815181106148a7576148a661a23a565b5b6020026020010151600067ffffffffffffffff8111156148ca576148c961a269565b5b6040519080825280601f01601f1916602001820160405280156148fc5781602001600182028036833780820191505090505b50616c2e565b614c82565b60018351148015614919575080518251145b1561499757614992836000815181106149355761493461a23a565b5b60200260200101518383600067ffffffffffffffff81111561495a5761495961a269565b5b6040519080825280601f01601f19166020018201604052801561498c5781602001600182028036833780820191505090505b50616c6a565b614c81565b600182511480156149a9575060018151145b15614a7c5760005b8351811015614a7657614a638482815181106149d0576149cf61a23a565b5b6020026020010151846000815181106149ec576149eb61a23a565b5b602002602001015184600081518110614a0857614a0761a23a565b5b6020026020010151600067ffffffffffffffff811115614a2b57614a2a61a269565b5b6040519080825280601f01601f191660200182016040528015614a5d5781602001600182028036833780820191505090505b50616c2e565b8080614a6e9061a104565b9150506149b1565b50614c80565b60018251148015614a8e575080518351145b15614b605760005b8351811015614b5a57614b47848281518110614ab557614ab461a23a565b5b602002602001015184600081518110614ad157614ad061a23a565b5b6020026020010151848481518110614aec57614aeb61a23a565b5b6020026020010151600067ffffffffffffffff811115614b0f57614b0e61a269565b5b6040519080825280601f01601f191660200182016040528015614b415781602001600182028036833780820191505090505b50616c2e565b8080614b529061a104565b915050614a96565b50614c7f565b81518351148015614b72575080518351145b15614c435760005b8351811015614c3d57614c2a848281518110614b9957614b9861a23a565b5b6020026020010151848381518110614bb457614bb361a23a565b5b6020026020010151848481518110614bcf57614bce61a23a565b5b6020026020010151600067ffffffffffffffff811115614bf257614bf161a269565b5b6040519080825280601f01601f191660200182016040528015614c245781602001600182028036833780820191505090505b50616c2e565b8080614c359061a104565b915050614b7a565b50614c7e565b6040517f08c379a0000000000000000000000000000000000000000000000000000000008152600401614c75906199e2565b60405180910390fd5b5b5b5b5b50505050565b6000614cb0836000018373ffffffffffffffffffffffffffffffffffffffff1660001b616cf8565b905092915050565b6000603360009054906101000a900473ffffffffffffffffffffffffffffffffffffffff16905081603360006101000a81548173ffffffffffffffffffffffffffffffffffffffff021916908373ffffffffffffffffffffffffffffffffffffffff1602179055508173ffffffffffffffffffffffffffffffffffffffff168173ffffffffffffffffffffffffffffffffffffffff167f8be0079c531659141344cd1fd0a4f28419497f9722a3daafe3b4186f6b6457e060405160405180910390a35050565b60008060019054906101000a900460ff1615614df55760018260ff16148015614dad5750614dab3061654c565b155b614dec576040517f08c379a0000000000000000000000000000000000000000000000000000000008152600401614de390619902565b60405180910390fd5b60009050614e69565b8160ff1660008054906101000a900460ff1660ff1610614e4a576040517f08c379a0000000000000000000000000000000000000000000000000000000008152600401614e4190619902565b60405180910390fd5b816000806101000a81548160ff021916908360ff160217905550600190505b919050565b600060019054906101000a900460ff16614ebd576040517f08c379a0000000000000000000000000000000000000000000000000000000008152600401614eb490619aa2565b60405180910390fd5b614ec681616d68565b50565b600060019054906101000a900460ff16614f18576040517f08c379a0000000000000000000000000000000000000000000000000000000008152600401614f0f90619aa2565b60405180910390fd5b614f20616dc3565b565b6060600184511115614fdd57600167ffffffffffffffff811115614f4957614f4861a269565b5b604051908082528060200260200182016040528015614f775781602001602082028036833780820191505090505b5090506001825111158015614f995750600183511480614f98575082518451145b5b614fd8576040517f08c379a0000000000000000000000000000000000000000000000000000000008152600401614fcf906199e2565b60405180910390fd5b61507a565b825167ffffffffffffffff811115614ff857614ff761a269565b5b6040519080825280602002602001820160405280156150265781602001602082028036833780820191505090505b50905060008251148061503a575081518351145b615079576040517f08c379a0000000000000000000000000000000000000000000000000000000008152600401615070906199e2565b60405180910390fd5b5b60005b81518110156151275760cc60008154809291906150999061a104565b919050555060cc548282815181106150b4576150b361a23a565b5b6020026020010181815250508560d3600060cc54815260200190815260200160002060006101000a81548173ffffffffffffffffffffffffffffffffffffffff021916908373ffffffffffffffffffffffffffffffffffffffff160217905550808061511f9061a104565b91505061507d565b503073ffffffffffffffffffffffffffffffffffffffff168573ffffffffffffffffffffffffffffffffffffffff161461516757615166848285616ac5565b5b60018451148015615179575060018151145b1561522d57615228846000815181106151955761519461a23a565b5b6020026020010151826000815181106151b1576151b061a23a565b5b6020026020010151856000815181106151cd576151cc61a23a565b5b6020026020010151600067ffffffffffffffff8111156151f0576151ef61a269565b5b6040519080825280601f01601f1916602001820160405280156152225781602001600182028036833780820191505090505b50616c2e565b615453565b6001845111156153dd5760018351141561530f5760005b8451811015615309576152f68582815181106152635761526261a23a565b5b60200260200101518360008151811061527f5761527e61a23a565b5b60200260200101518660008151811061529b5761529a61a23a565b5b6020026020010151600067ffffffffffffffff8111156152be576152bd61a269565b5b6040519080825280601f01601f1916602001820160405280156152f05781602001600182028036833780820191505090505b50616c2e565b80806153019061a104565b915050615244565b506153d8565b60005b84518110156153d6576153c38582815181106153315761533061a23a565b5b60200260200101518360008151811061534d5761534c61a23a565b5b60200260200101518684815181106153685761536761a23a565b5b6020026020010151600067ffffffffffffffff81111561538b5761538a61a269565b5b6040519080825280601f01601f1916602001820160405280156153bd5781602001600182028036833780820191505090505b50616c2e565b80806153ce9061a104565b915050615312565b505b615452565b615451846000815181106153f4576153f361a23a565b5b60200260200101518285600067ffffffffffffffff8111156154195761541861a269565b5b6040519080825280601f01601f19166020018201604052801561544b5781602001600182028036833780820191505090505b50616c6a565b5b5b60005b81518110156154ff5782518110801561548a5750600083828151811061547f5761547e61a23a565b5b602002602001015151115b156154ec578281815181106154a2576154a161a23a565b5b602002602001015160d760008484815181106154c1576154c061a23a565b5b6020026020010151815260200190815260200160002090805190602001906154ea929190617a06565b505b80806154f79061a104565b915050615456565b50949350505050565b818160d660003073ffffffffffffffffffffffffffffffffffffffff1673ffffffffffffffffffffffffffffffffffffffff1681526020019081526020016000209190615556929190617893565b505050565b8173ffffffffffffffffffffffffffffffffffffffff168373ffffffffffffffffffffffffffffffffffffffff1614156155ca576040517f08c379a00000000000000000000000000000000000000000000000000000000081526004016155c190619b02565b60405180910390fd5b80609b60008573ffffffffffffffffffffffffffffffffffffffff1673ffffffffffffffffffffffffffffffffffffffff16815260200190815260200160002060008473ffffffffffffffffffffffffffffffffffffffff1673ffffffffffffffffffffffffffffffffffffffff16815260200190815260200160002060006101000a81548160ff0219169083151502179055508173ffffffffffffffffffffffffffffffffffffffff168373ffffffffffffffffffffffffffffffffffffffff167f17307eab39ab6107e8899845ad3d59bd9653f200f220920489ca2b5937696c31836040516156bb919061968f565b60405180910390a3505050565b60006156d383616e24565b80156156e557506156e48383616e71565b5b905092915050565b60008060da60008481526020019081526020016000208054905011156157275760da60008381526020019081526020016000209050615860565b600060d8600060d3600086815260200190815260200160002060009054906101000a900473ffffffffffffffffffffffffffffffffffffffff1673ffffffffffffffffffffffffffffffffffffffff1673ffffffffffffffffffffffffffffffffffffffff16815260200190815260200160002080549050111561581e5760d8600060d3600085815260200190815260200160002060009054906101000a900473ffffffffffffffffffffffffffffffffffffffff1673ffffffffffffffffffffffffffffffffffffffff1673ffffffffffffffffffffffffffffffffffffffff1681526020019081526020016000209050615860565b60d860003073ffffffffffffffffffffffffffffffffffffffff1673ffffffffffffffffffffffffffffffffffffffff16815260200190815260200160002090505b919050565b600080615871836156ed565b61587a8461354a565b91509150915091565b6158978160cd612f1890919063ffffffff16565b1561590c573373ffffffffffffffffffffffffffffffffffffffff168173ffffffffffffffffffffffffffffffffffffffff167fd19cf84cf0fec6bec9ddfa29c63adf83a55707c712f32c8285d6180a7890147960405160405180910390a361590a8160cd613af690919063ffffffff16565b505b50565b6159238260cd612f1890919063ffffffff16565b615962576040517f08c379a000000000000000000000000000000000000000000000000000000000815260040161595990619802565b60405180910390fd5b600073ffffffffffffffffffffffffffffffffffffffff168173ffffffffffffffffffffffffffffffffffffffff1614806159c357506159c2817ff1d4552e000000000000000000000000000000000000000000000000000000006156c8565b5b615a02576040517f08c379a00000000000000000000000000000000000000000000000000000000081526004016159f990619762565b60405180910390fd5b8073ffffffffffffffffffffffffffffffffffffffff1660d160008473ffffffffffffffffffffffffffffffffffffffff1673ffffffffffffffffffffffffffffffffffffffff16815260200190815260200160002060009054906101000a900473ffffffffffffffffffffffffffffffffffffffff1673ffffffffffffffffffffffffffffffffffffffff1614615b84578060d160008473ffffffffffffffffffffffffffffffffffffffff1673ffffffffffffffffffffffffffffffffffffffff16815260200190815260200160002060006101000a81548173ffffffffffffffffffffffffffffffffffffffff021916908373ffffffffffffffffffffffffffffffffffffffff1602179055503373ffffffffffffffffffffffffffffffffffffffff168173ffffffffffffffffffffffffffffffffffffffff168373ffffffffffffffffffffffffffffffffffffffff167f6a835c4fcf7e0d398db3762332fdaa1471814ad39f1e2d6d0b3fdabf8efee3e060405160405180910390a45b5050565b600073ffffffffffffffffffffffffffffffffffffffff168473ffffffffffffffffffffffffffffffffffffffff161415615bf8576040517f08c379a0000000000000000000000000000000000000000000000000000000008152600401615bef906198a2565b60405180910390fd5b6000615c02613aee565b90506000615c0f85616f9c565b90506000615c1c85616f9c565b9050615c2c838989858589616349565b6000609a600088815260200190815260200160002060008a73ffffffffffffffffffffffffffffffffffffffff1673ffffffffffffffffffffffffffffffffffffffff16815260200190815260200160002054905085811015615cc4576040517f08c379a0000000000000000000000000000000000000000000000000000000008152600401615cbb90619942565b60405180910390fd5b858103609a600089815260200190815260200160002060008b73ffffffffffffffffffffffffffffffffffffffff1673ffffffffffffffffffffffffffffffffffffffff1681526020019081526020016000208190555085609a600089815260200190815260200160002060008a73ffffffffffffffffffffffffffffffffffffffff1673ffffffffffffffffffffffffffffffffffffffff1681526020019081526020016000206000828254615d7b9190619e90565b925050819055508773ffffffffffffffffffffffffffffffffffffffff168973ffffffffffffffffffffffffffffffffffffffff168573ffffffffffffffffffffffffffffffffffffffff167fc3d58168c5ae7397731d063d5bbf3d657854427343f4c083240f7aacaa2d0f628a8a604051615df8929190619bbd565b60405180910390a4615e0e848a8a86868a61635d565b615e1c848a8a8a8a8a617016565b505050505050505050565b60007f28f10a21000000000000000000000000000000000000000000000000000000007bffffffffffffffffffffffffffffffffffffffffffffffffffffffff1916827bffffffffffffffffffffffffffffffffffffffffffffffffffffffff19161480615e9a5750615e9982612dbc565b5b80615ee9575063bb3bafd660e01b7bffffffffffffffffffffffffffffffffffffffffffffffffffffffff1916827bffffffffffffffffffffffffffffffffffffffffffffffffffffffff1916145b80615f38575063b779958460e01b7bffffffffffffffffffffffffffffffffffffffffffffffffffffffff1916827bffffffffffffffffffffffffffffffffffffffffffffffffffffffff1916145b80615f87575063d5a06d4c60e01b7bffffffffffffffffffffffffffffffffffffffffffffffffffffffff1916827bffffffffffffffffffffffffffffffffffffffffffffffffffffffff1916145b80615fd65750632a55205a60e01b7bffffffffffffffffffffffffffffffffffffffffffffffffffffffff1916827bffffffffffffffffffffffffffffffffffffffffffffffffffffffff1916145b9050919050565b60007f01ffc9a7000000000000000000000000000000000000000000000000000000007bffffffffffffffffffffffffffffffffffffffffffffffffffffffff1916827bffffffffffffffffffffffffffffffffffffffffffffffffffffffff1916149050919050565b60007f01ffc9a7000000000000000000000000000000000000000000000000000000007bffffffffffffffffffffffffffffffffffffffffffffffffffffffff1916827bffffffffffffffffffffffffffffffffffffffffffffffffffffffff1916149050919050565b600080836001016000848152602001908152602001600020541415905092915050565b6060600082141561611c576040518060400160405280600181526020017f30000000000000000000000000000000000000000000000000000000000000008152509050616230565b600082905060005b6000821461614e5780806161379061a104565b915050600a826161479190619ee6565b9150616124565b60008167ffffffffffffffff81111561616a5761616961a269565b5b6040519080825280601f01601f19166020018201604052801561619c5781602001600182028036833780820191505090505b5090505b60008514616229576001826161b59190619f71565b9150600a856161c4919061a14d565b60306161d09190619e90565b60f81b8183815181106161e6576161e561a23a565b5b60200101907effffffffffffffffffffffffffffffffffffffffffffffffffffffffffffff1916908160001a905350600a856162229190619ee6565b94506161a0565b8093505050505b919050565b6000808360010160008481526020019081526020016000205490506000811461633d5760006001826162679190619f71565b905060006001866000018054905061627f9190619f71565b90508181146162ee5760008660000182815481106162a05761629f61a23a565b5b90600052602060002001549050808760000184815481106162c4576162c361a23a565b5b90600052602060002001819055508387600101600083815260200190815260200160002081905550505b856000018054806163025761630161a20b565b5b600190038181906000526020600020016000905590558560010160008681526020019081526020016000206000905560019350505050616343565b60009150505b92915050565b616355858585856171fd565b505050505050565b505050505050565b6163848473ffffffffffffffffffffffffffffffffffffffff1661654c565b15616544578373ffffffffffffffffffffffffffffffffffffffff1663bc197c8187878686866040518663ffffffff1660e01b81526004016163ca9594939291906193f6565b602060405180830381600087803b1580156163e457600080fd5b505af192505050801561641557506040513d601f19601f8201168201806040525081019061641291906187af565b60015b6164bb5761642161a298565b806308c379a0141561647e575061643661ac15565b806164415750616480565b806040517f08c379a000000000000000000000000000000000000000000000000000000000815260040161647591906196e0565b60405180910390fd5b505b6040517f08c379a00000000000000000000000000000000000000000000000000000000081526004016164b290619702565b60405180910390fd5b63bc197c8160e01b7bffffffffffffffffffffffffffffffffffffffffffffffffffffffff1916817bffffffffffffffffffffffffffffffffffffffffffffffffffffffff191614616542576040517f08c379a000000000000000000000000000000000000000000000000000000000815260040161653990619722565b60405180910390fd5b505b505050505050565b6000808273ffffffffffffffffffffffffffffffffffffffff163b119050919050565b600081600001805490509050919050565b60008260000182815481106165985761659761a23a565b5b9060005260206000200154905092915050565b600073ffffffffffffffffffffffffffffffffffffffff168373ffffffffffffffffffffffffffffffffffffffff16141561661b576040517f08c379a000000000000000000000000000000000000000000000000000000000815260040161661290619922565b60405180910390fd5b6000616625613aee565b9050600061663284616f9c565b9050600061663f84616f9c565b905061665f83876000858560405180602001604052806000815250616349565b6000609a600087815260200190815260200160002060008873ffffffffffffffffffffffffffffffffffffffff1673ffffffffffffffffffffffffffffffffffffffff168152602001908152602001600020549050848110156166f7576040517f08c379a00000000000000000000000000000000000000000000000000000000081526004016166ee906197c2565b60405180910390fd5b848103609a600088815260200190815260200160002060008973ffffffffffffffffffffffffffffffffffffffff1673ffffffffffffffffffffffffffffffffffffffff16815260200190815260200160002081905550600073ffffffffffffffffffffffffffffffffffffffff168773ffffffffffffffffffffffffffffffffffffffff168573ffffffffffffffffffffffffffffffffffffffff167fc3d58168c5ae7397731d063d5bbf3d657854427343f4c083240f7aacaa2d0f6289896040516167c5929190619bbd565b60405180910390a46167eb8488600086866040518060200160405280600081525061635d565b50505050505050565b600073ffffffffffffffffffffffffffffffffffffffff168373ffffffffffffffffffffffffffffffffffffffff161415616864576040517f08c379a000000000000000000000000000000000000000000000000000000000815260040161685b90619922565b60405180910390fd5b80518251146168a8576040517f08c379a000000000000000000000000000000000000000000000000000000000815260040161689f90619b42565b60405180910390fd5b60006168b2613aee565b90506168d281856000868660405180602001604052806000815250616349565b60005b8351811015616a215760008482815181106168f3576168f261a23a565b5b6020026020010151905060008483815181106169125761691161a23a565b5b602002602001015190506000609a600084815260200190815260200160002060008973ffffffffffffffffffffffffffffffffffffffff1673ffffffffffffffffffffffffffffffffffffffff168152602001908152602001600020549050818110156169b4576040517f08c379a00000000000000000000000000000000000000000000000000000000081526004016169ab906197c2565b60405180910390fd5b818103609a600085815260200190815260200160002060008a73ffffffffffffffffffffffffffffffffffffffff1673ffffffffffffffffffffffffffffffffffffffff168152602001908152602001600020819055505050508080616a199061a104565b9150506168d5565b50600073ffffffffffffffffffffffffffffffffffffffff168473ffffffffffffffffffffffffffffffffffffffff168273ffffffffffffffffffffffffffffffffffffffff167f4a39dc06d4c0dbc64b70af90fd698a233a518aa5d07e595d983b8c0526c8f7fb8686604051616a99929190619658565b60405180910390a4616abf8185600086866040518060200160405280600081525061635d565b50505050565b600073ffffffffffffffffffffffffffffffffffffffff1660d160003373ffffffffffffffffffffffffffffffffffffffff1673ffffffffffffffffffffffffffffffffffffffff16815260200190815260200160002060009054906101000a900473ffffffffffffffffffffffffffffffffffffffff1673ffffffffffffffffffffffffffffffffffffffff1614616c295760d160003373ffffffffffffffffffffffffffffffffffffffff1673ffffffffffffffffffffffffffffffffffffffff16815260200190815260200160002060009054906101000a900473ffffffffffffffffffffffffffffffffffffffff1673ffffffffffffffffffffffffffffffffffffffff1663f1d4552e338585856040518563ffffffff1660e01b8152600401616bf694939291906194b8565b600060405180830381600087803b158015616c1057600080fd5b505af1158015616c24573d6000803e3d6000fd5b505050505b505050565b616c3a84848484617499565b8160dc60008581526020019081526020016000206000828254616c5d9190619e90565b9250508190555050505050565b616c768484848461764b565b60005b8351811015616cf157828181518110616c9557616c9461a23a565b5b602002602001015160dc6000868481518110616cb457616cb361a23a565b5b602002602001015181526020019081526020016000206000828254616cd99190619e90565b9250508190555080616cea9061a104565b9050616c79565b5050505050565b6000616d0483836160b1565b616d5d578260000182908060018154018082558091505060019003906000526020600020016000909190919091505582600001805490508360010160008481526020019081526020016000208190555060019050616d62565b600090505b92915050565b600060019054906101000a900460ff16616db7576040517f08c379a0000000000000000000000000000000000000000000000000000000008152600401616dae90619aa2565b60405180910390fd5b616dc081617879565b50565b600060019054906101000a900460ff16616e12576040517f08c379a0000000000000000000000000000000000000000000000000000000008152600401616e0990619aa2565b60405180910390fd5b616e22616e1d613aee565b614cb8565b565b6000616e50827f01ffc9a700000000000000000000000000000000000000000000000000000000616e71565b8015616e6a5750616e688263ffffffff60e01b616e71565b155b9050919050565b6000806301ffc9a760e01b83604051602401616e8d91906196aa565b604051602081830303815290604052907bffffffffffffffffffffffffffffffffffffffffffffffffffffffff19166020820180517bffffffffffffffffffffffffffffffffffffffffffffffffffffffff838183161783525050505090506000808573ffffffffffffffffffffffffffffffffffffffff1661753084604051616f179190619329565b6000604051808303818686fa925050503d8060008114616f53576040519150601f19603f3d011682016040523d82523d6000602084013e616f58565b606091505b5091509150602081511015616f735760009350505050616f96565b818015616f90575080806020019051810190616f8f9190618755565b5b93505050505b92915050565b60606000600167ffffffffffffffff811115616fbb57616fba61a269565b5b604051908082528060200260200182016040528015616fe95781602001602082028036833780820191505090505b50905082816000815181106170015761700061a23a565b5b60200260200101818152505080915050919050565b6170358473ffffffffffffffffffffffffffffffffffffffff1661654c565b156171f5578373ffffffffffffffffffffffffffffffffffffffff1663f23a6e6187878686866040518663ffffffff1660e01b815260040161707b95949392919061945e565b602060405180830381600087803b15801561709557600080fd5b505af19250505080156170c657506040513d601f19601f820116820180604052508101906170c391906187af565b60015b61716c576170d261a298565b806308c379a0141561712f57506170e761ac15565b806170f25750617131565b806040517f08c379a000000000000000000000000000000000000000000000000000000000815260040161712691906196e0565b60405180910390fd5b505b6040517f08c379a000000000000000000000000000000000000000000000000000000000815260040161716390619702565b60405180910390fd5b63f23a6e6160e01b7bffffffffffffffffffffffffffffffffffffffffffffffffffffffff1916817bffffffffffffffffffffffffffffffffffffffffffffffffffffffff1916146171f3576040517f08c379a00000000000000000000000000000000000000000000000000000000081526004016171ea90619722565b60405180910390fd5b505b505050505050565b6000825111617241576040517f08c379a0000000000000000000000000000000000000000000000000000000008152600401617238906199e2565b60405180910390fd5b600060d360008460008151811061725b5761725a61a23a565b5b6020026020010151815260200190815260200160002060009054906101000a900473ffffffffffffffffffffffffffffffffffffffff16905060005b835181101561736e578173ffffffffffffffffffffffffffffffffffffffff1660d360008684815181106172ce576172cd61a23a565b5b6020026020010151815260200190815260200160002060009054906101000a900473ffffffffffffffffffffffffffffffffffffffff1673ffffffffffffffffffffffffffffffffffffffff161461735b576040517f08c379a000000000000000000000000000000000000000000000000000000000815260040161735290619982565b60405180910390fd5b80806173669061a104565b915050617297565b5060d260008273ffffffffffffffffffffffffffffffffffffffff1673ffffffffffffffffffffffffffffffffffffffff16815260200190815260200160002060009054906101000a900460ff1615617492578073ffffffffffffffffffffffffffffffffffffffff1663883da933868686866040518563ffffffff1660e01b815260040161740094939291906193a3565b602060405180830381600087803b15801561741a57600080fd5b505af115801561742e573d6000803e3d6000fd5b505050506040513d601f19601f820116820180604052508101906174529190618755565b617491576040517f08c379a000000000000000000000000000000000000000000000000000000000815260040161748890619a22565b60405180910390fd5b5b5050505050565b600073ffffffffffffffffffffffffffffffffffffffff168473ffffffffffffffffffffffffffffffffffffffff161415617509576040517f08c379a000000000000000000000000000000000000000000000000000000000815260040161750090619b62565b60405180910390fd5b6000617513613aee565b9050600061752085616f9c565b9050600061752d85616f9c565b905061753e83600089858589616349565b84609a600088815260200190815260200160002060008973ffffffffffffffffffffffffffffffffffffffff1673ffffffffffffffffffffffffffffffffffffffff168152602001908152602001600020600082825461759e9190619e90565b925050819055508673ffffffffffffffffffffffffffffffffffffffff16600073ffffffffffffffffffffffffffffffffffffffff168473ffffffffffffffffffffffffffffffffffffffff167fc3d58168c5ae7397731d063d5bbf3d657854427343f4c083240f7aacaa2d0f62898960405161761c929190619bbd565b60405180910390a46176338360008985858961635d565b61764283600089898989617016565b50505050505050565b600073ffffffffffffffffffffffffffffffffffffffff168473ffffffffffffffffffffffffffffffffffffffff1614156176bb576040517f08c379a00000000000000000000000000000000000000000000000000000000081526004016176b290619b62565b60405180910390fd5b81518351146176ff576040517f08c379a00000000000000000000000000000000000000000000000000000000081526004016176f690619b42565b60405180910390fd5b6000617709613aee565b905061771a81600087878787616349565b60005b84518110156177d4578381815181106177395761773861a23a565b5b6020026020010151609a60008784815181106177585761775761a23a565b5b6020026020010151815260200190815260200160002060008873ffffffffffffffffffffffffffffffffffffffff1673ffffffffffffffffffffffffffffffffffffffff16815260200190815260200160002060008282546177ba9190619e90565b9250508190555080806177cc9061a104565b91505061771d565b508473ffffffffffffffffffffffffffffffffffffffff16600073ffffffffffffffffffffffffffffffffffffffff168273ffffffffffffffffffffffffffffffffffffffff167f4a39dc06d4c0dbc64b70af90fd698a233a518aa5d07e595d983b8c0526c8f7fb878760405161784c929190619658565b60405180910390a46178638160008787878761635d565b61787281600087878787616365565b5050505050565b80609c908051906020019061788f929190617a06565b5050565b82805461789f9061a0a1565b90600052602060002090601f0160209004810192826178c15760008555617908565b82601f106178da57803560ff1916838001178555617908565b82800160010185558215617908579182015b828111156179075782358255916020019190600101906178ec565b5b5090506179159190617a8c565b5090565b8280548282559060005260206000209081019282156179a8579160200282015b828111156179a757823573ffffffffffffffffffffffffffffffffffffffff168260006101000a81548173ffffffffffffffffffffffffffffffffffffffff021916908373ffffffffffffffffffffffffffffffffffffffff16021790555091602001919060010190617939565b5b5090506179b59190617a8c565b5090565b8280548282559060005260206000209081019282156179f5579160200282015b828111156179f45782358255916020019190600101906179d9565b5b509050617a029190617a8c565b5090565b828054617a129061a0a1565b90600052602060002090601f016020900481019282617a345760008555617a7b565b82601f10617a4d57805160ff1916838001178555617a7b565b82800160010185558215617a7b579182015b82811115617a7a578251825591602001919060010190617a5f565b5b509050617a889190617a8c565b5090565b5b80821115617aa5576000816000905550600101617a8d565b5090565b6000617abc617ab784619c6e565b619c49565b90508083825260208201905082856020860282011115617adf57617ade61a2ce565b5b60005b85811015617b0f5781617af58882617cdd565b845260208401935060208301925050600181019050617ae2565b5050509392505050565b6000617b2c617b2784619c9a565b619c49565b90508083825260208201905082856020860282011115617b4f57617b4e61a2ce565b5b60005b85811015617b9d57813567ffffffffffffffff811115617b7557617b7461a2bf565b5b808601617b828982617f93565b85526020850194506020840193505050600181019050617b52565b5050509392505050565b6000617bba617bb584619cc6565b619c49565b90508083825260208201905082856020860282011115617bdd57617bdc61a2ce565b5b60005b85811015617c0d5781617bf38882617fef565b845260208401935060208301925050600181019050617be0565b5050509392505050565b6000617c2a617c2584619cf2565b619c49565b905082815260208101848484011115617c4657617c4561a2d8565b5b617c5184828561a05f565b509392505050565b6000617c6c617c6784619d23565b619c49565b905082815260208101848484011115617c8857617c8761a2d8565b5b617c9384828561a05f565b509392505050565b6000617cae617ca984619d23565b619c49565b905082815260208101848484011115617cca57617cc961a2d8565b5b617cd584828561a06e565b509392505050565b600081359050617cec8161acab565b92915050565b600081359050617d018161acc2565b92915050565b60008083601f840112617d1d57617d1c61a2bf565b5b8235905067ffffffffffffffff811115617d3a57617d3961a2ba565b5b602083019150836020820283011115617d5657617d5561a2ce565b5b9250929050565b600082601f830112617d7257617d7161a2bf565b5b8135617d82848260208601617aa9565b91505092915050565b60008083601f840112617da157617da061a2bf565b5b8235905067ffffffffffffffff811115617dbe57617dbd61a2ba565b5b602083019150836020820283011115617dda57617dd961a2ce565b5b9250929050565b60008083601f840112617df757617df661a2bf565b5b8235905067ffffffffffffffff811115617e1457617e1361a2ba565b5b602083019150836020820283011115617e3057617e2f61a2ce565b5b9250929050565b60008083601f840112617e4d57617e4c61a2bf565b5b8235905067ffffffffffffffff811115617e6a57617e6961a2ba565b5b602083019150836020820283011115617e8657617e8561a2ce565b5b9250929050565b600082601f830112617ea257617ea161a2bf565b5b8135617eb2848260208601617ba7565b91505092915050565b600081359050617eca8161acd9565b92915050565b600081519050617edf8161acd9565b92915050565b600081359050617ef48161acf0565b92915050565b600081519050617f098161acf0565b92915050565b600082601f830112617f2457617f2361a2bf565b5b8135617f34848260208601617c17565b91505092915050565b60008083601f840112617f5357617f5261a2bf565b5b8235905067ffffffffffffffff811115617f7057617f6f61a2ba565b5b602083019150836001820283011115617f8c57617f8b61a2ce565b5b9250929050565b600082601f830112617fa857617fa761a2bf565b5b8135617fb8848260208601617c59565b91505092915050565b600082601f830112617fd657617fd561a2bf565b5b8151617fe6848260208601617c9b565b91505092915050565b600081359050617ffe8161ad07565b92915050565b60006020828403121561801a5761801961a2e7565b5b600061802884828501617cdd565b91505092915050565b600080604083850312156180485761804761a2e7565b5b600061805685828601617cdd565b925050602061806785828601617cdd565b9150509250929050565b600080600080600060a0868803121561808d5761808c61a2e7565b5b600061809b88828901617cdd565b95505060206180ac88828901617cdd565b945050604086013567ffffffffffffffff8111156180cd576180cc61a2dd565b5b6180d988828901617e8d565b935050606086013567ffffffffffffffff8111156180fa576180f961a2dd565b5b61810688828901617e8d565b925050608086013567ffffffffffffffff8111156181275761812661a2dd565b5b61813388828901617f0f565b9150509295509295909350565b600080600080600060a0868803121561815c5761815b61a2e7565b5b600061816a88828901617cdd565b955050602061817b88828901617cdd565b945050604061818c88828901617fef565b935050606061819d88828901617fef565b925050608086013567ffffffffffffffff8111156181be576181bd61a2dd565b5b6181ca88828901617f0f565b9150509295509295909350565b6000806000806000606086880312156181f3576181f261a2e7565b5b600061820188828901617cdd565b955050602086013567ffffffffffffffff8111156182225761822161a2dd565b5b61822e88828901617d8b565b9450945050604086013567ffffffffffffffff8111156182515761825061a2dd565b5b61825d88828901617e37565b92509250509295509295909350565b6000806000606084860312156182855761828461a2e7565b5b600061829386828701617cdd565b935050602084013567ffffffffffffffff8111156182b4576182b361a2dd565b5b6182c086828701617e8d565b925050604084013567ffffffffffffffff8111156182e1576182e061a2dd565b5b6182ed86828701617e8d565b9150509250925092565b6000806040838503121561830e5761830d61a2e7565b5b600061831c85828601617cdd565b925050602061832d85828601617ebb565b9150509250929050565b6000806000604084860312156183505761834f61a2e7565b5b600061835e86828701617cdd565b935050602084013567ffffffffffffffff81111561837f5761837e61a2dd565b5b61838b86828701617f3d565b92509250509250925092565b600080600080606085870312156183b1576183b061a2e7565b5b60006183bf87828801617cdd565b945050602085013567ffffffffffffffff8111156183e0576183df61a2dd565b5b6183ec87828801617f3d565b935093505060406183ff87828801617ebb565b91505092959194509250565b600080604083850312156184225761842161a2e7565b5b600061843085828601617cdd565b925050602061844185828601617fef565b9150509250929050565b600080600080600080606087890312156184685761846761a2e7565b5b600087013567ffffffffffffffff8111156184865761848561a2dd565b5b61849289828a01617d07565b9650965050602087013567ffffffffffffffff8111156184b5576184b461a2dd565b5b6184c189828a01617e37565b9450945050604087013567ffffffffffffffff8111156184e4576184e361a2dd565b5b6184f089828a01617de1565b92509250509295509295509295565b6000806000806000806060878903121561851c5761851b61a2e7565b5b600087013567ffffffffffffffff81111561853a5761853961a2dd565b5b61854689828a01617d07565b9650965050602087013567ffffffffffffffff8111156185695761856861a2dd565b5b61857589828a01617e37565b9450945050604087013567ffffffffffffffff8111156185985761859761a2dd565b5b6185a489828a01617e37565b92509250509295509295509295565b600080604083850312156185ca576185c961a2e7565b5b600083013567ffffffffffffffff8111156185e8576185e761a2dd565b5b6185f485828601617d5d565b925050602083013567ffffffffffffffff8111156186155761861461a2dd565b5b61862185828601617e8d565b9150509250929050565b600080600080604085870312156186455761864461a2e7565b5b600085013567ffffffffffffffff8111156186635761866261a2dd565b5b61866f87828801617d8b565b9450945050602085013567ffffffffffffffff8111156186925761869161a2dd565b5b61869e87828801617e37565b925092505092959194509250565b6000806000604084860312156186c5576186c461a2e7565b5b600084013567ffffffffffffffff8111156186e3576186e261a2dd565b5b6186ef86828701617e8d565b935050602084013567ffffffffffffffff8111156187105761870f61a2dd565b5b61871c86828701617de1565b92509250509250925092565b60006020828403121561873e5761873d61a2e7565b5b600061874c84828501617ebb565b91505092915050565b60006020828403121561876b5761876a61a2e7565b5b600061877984828501617ed0565b91505092915050565b6000602082840312156187985761879761a2e7565b5b60006187a684828501617ee5565b91505092915050565b6000602082840312156187c5576187c461a2e7565b5b60006187d384828501617efa565b91505092915050565b600080602083850312156187f3576187f261a2e7565b5b600083013567ffffffffffffffff8111156188115761881061a2dd565b5b61881d85828601617f3d565b92509250509250929050565b6000806000604084860312156188425761884161a2e7565b5b600084013567ffffffffffffffff8111156188605761885f61a2dd565b5b61886c86828701617f3d565b9350935050602061887f86828701617ebb565b9150509250925092565b60006020828403121561889f5761889e61a2e7565b5b600082015167ffffffffffffffff8111156188bd576188bc61a2dd565b5b6188c984828501617fc1565b91505092915050565b6000602082840312156188e8576188e761a2e7565b5b60006188f684828501617fef565b91505092915050565b60008060008060006060868803121561891b5761891a61a2e7565b5b600061892988828901617fef565b955050602086013567ffffffffffffffff81111561894a5761894961a2dd565b5b61895688828901617d8b565b9450945050604086013567ffffffffffffffff8111156189795761897861a2dd565b5b61898588828901617e37565b92509250509295509295909350565b6000806000604084860312156189ad576189ac61a2e7565b5b60006189bb86828701617fef565b935050602084013567ffffffffffffffff8111156189dc576189db61a2dd565b5b6189e886828701617f3d565b92509250509250925092565b60008060408385031215618a0b57618a0a61a2e7565b5b6000618a1985828601617fef565b9250506020618a2a85828601617fef565b9150509250929050565b6000618a408383618a7c565b60208301905092915050565b6000618a588383618a8b565b60208301905092915050565b6000618a70838361930b565b60208301905092915050565b618a8581619fb7565b82525050565b618a9481619fa5565b82525050565b618aa381619fa5565b82525050565b6000618ab482619da3565b618abe8185619e0e565b9350618ac983619d54565b8060005b83811015618afa578151618ae18882618a4c565b9750618aec83619dda565b925050600181019050618acd565b5085935050505092915050565b6000618b138385619e1f565b9350618b1e82619d64565b8060005b85811015618b5757618b348284619e79565b618b3e8882618a34565b9750618b4983619de7565b925050600181019050618b22565b5085925050509392505050565b6000618b6f82619dae565b618b798185619e1f565b9350618b8483619d6e565b8060005b83811015618bb5578151618b9c8882618a34565b9750618ba783619df4565b925050600181019050618b88565b5085935050505092915050565b6000618bce8385619e30565b93507f07ffffffffffffffffffffffffffffffffffffffffffffffffffffffffffffff831115618c0157618c0061a2e2565b5b602083029250618c1283858461a05f565b82840190509392505050565b6000618c2982619db9565b618c338185619e30565b9350618c3e83619d7e565b8060005b83811015618c6f578151618c568882618a64565b9750618c6183619e01565b925050600181019050618c42565b5085935050505092915050565b618c8581619fc9565b82525050565b618c9481619fd5565b82525050565b6000618ca582619dc4565b618caf8185619e41565b9350618cbf81856020860161a06e565b618cc88161a2ec565b840191505092915050565b6000618cde82619dc4565b618ce88185619e52565b9350618cf881856020860161a06e565b80840191505092915050565b618d0d8161a04d565b82525050565b6000618d1e82619dcf565b618d288185619e5d565b9350618d3881856020860161a06e565b618d418161a2ec565b840191505092915050565b6000618d5782619dcf565b618d618185619e6e565b9350618d7181856020860161a06e565b80840191505092915050565b60008154618d8a8161a0a1565b618d948186619e6e565b94506001821660008114618daf5760018114618dc057618df3565b60ff19831686528186019350618df3565b618dc985619d8e565b60005b83811015618deb57815481890152600182019150602081019050618dcc565b838801955050505b50505092915050565b6000618e09603483619e5d565b9150618e148261a30a565b604082019050919050565b6000618e2c602883619e5d565b9150618e378261a359565b604082019050919050565b6000618e4f601983619e5d565b9150618e5a8261a3a8565b602082019050919050565b6000618e72600f83619e5d565b9150618e7d8261a3d1565b602082019050919050565b6000618e95602b83619e5d565b9150618ea08261a3fa565b604082019050919050565b6000618eb8602683619e5d565b9150618ec38261a449565b604082019050919050565b6000618edb602483619e5d565b9150618ee68261a498565b604082019050919050565b6000618efe602983619e5d565b9150618f098261a4e7565b604082019050919050565b6000618f21601183619e5d565b9150618f2c8261a536565b602082019050919050565b6000618f44601583619e5d565b9150618f4f8261a55f565b602082019050919050565b6000618f67600d83619e5d565b9150618f728261a588565b602082019050919050565b6000618f8a601c83619e5d565b9150618f958261a5b1565b602082019050919050565b6000618fad604083619e5d565b9150618fb88261a5da565b604082019050919050565b6000618fd0602583619e5d565b9150618fdb8261a629565b604082019050919050565b6000618ff3603283619e5d565b9150618ffe8261a678565b604082019050919050565b6000619016601c83619e5d565b91506190218261a6c7565b602082019050919050565b6000619039602e83619e5d565b91506190448261a6f0565b604082019050919050565b600061905c602383619e5d565b91506190678261a73f565b604082019050919050565b600061907f602a83619e5d565b915061908a8261a78e565b604082019050919050565b60006190a2602583619e5d565b91506190ad8261a7dd565b604082019050919050565b60006190c5601c83619e5d565b91506190d08261a82c565b602082019050919050565b60006190e8602083619e5d565b91506190f38261a855565b602082019050919050565b600061910b601683619e5d565b91506191168261a87e565b602082019050919050565b600061912e600d83619e5d565b91506191398261a8a7565b602082019050919050565b6000619151601783619e5d565b915061915c8261a8d0565b602082019050919050565b6000619174601a83619e5d565b915061917f8261a8f9565b602082019050919050565b6000619197602083619e5d565b91506191a28261a922565b602082019050919050565b60006191ba602483619e5d565b91506191c58261a94b565b604082019050919050565b60006191dd602983619e5d565b91506191e88261a99a565b604082019050919050565b6000619200602b83619e5d565b915061920b8261a9e9565b604082019050919050565b6000619223601083619e5d565b915061922e8261aa38565b602082019050919050565b6000619246602383619e5d565b91506192518261aa61565b604082019050919050565b6000619269602983619e5d565b91506192748261aab0565b604082019050919050565b600061928c602983619e5d565b91506192978261aaff565b604082019050919050565b60006192af602883619e5d565b91506192ba8261ab4e565b604082019050919050565b60006192d2602183619e5d565b91506192dd8261ab9d565b604082019050919050565b60006192f5601f83619e5d565b91506193008261abec565b602082019050919050565b6193148161a021565b82525050565b6193238161a021565b82525050565b60006193358284618cd3565b915081905092915050565b600061934c8285618d7d565b91506193588284618d4c565b91508190509392505050565b60006193708285618d7d565b915061937c8284618d7d565b91508190509392505050565b600060208201905061939d6000830184618a9a565b92915050565b60006080820190506193b86000830187618a9a565b6193c56020830186618a9a565b81810360408301526193d78185618c1e565b905081810360608301526193eb8184618c1e565b905095945050505050565b600060a08201905061940b6000830188618a9a565b6194186020830187618a9a565b818103604083015261942a8186618c1e565b9050818103606083015261943e8185618c1e565b905081810360808301526194528184618c9a565b90509695505050505050565b600060a0820190506194736000830188618a9a565b6194806020830187618a9a565b61948d604083018661931a565b61949a606083018561931a565b81810360808301526194ac8184618c9a565b90509695505050505050565b60006080820190506194cd6000830187618a9a565b81810360208301526194df8186618aa9565b905081810360408301526194f38185618c1e565b905081810360608301526195078184618c1e565b905095945050505050565b60006060820190506195276000830186618a9a565b81810360208301526195398185618c1e565b9050818103604083015261954d8184618c1e565b9050949350505050565b600060408201905061956c6000830185618a9a565b619579602083018461931a565b9392505050565b6000602082019050818103600083015261959a8184618aa9565b905092915050565b600060408201905081810360008301526195bd818688618b07565b905081810360208301526195d2818486618bc2565b905095945050505050565b600060208201905081810360008301526195f78184618b64565b905092915050565b600060408201905081810360008301526196198185618b64565b9050818103602083015261962d8184618c1e565b90509392505050565b600060208201905081810360008301526196508184618c1e565b905092915050565b600060408201905081810360008301526196728185618c1e565b905081810360208301526196868184618c1e565b90509392505050565b60006020820190506196a46000830184618c7c565b92915050565b60006020820190506196bf6000830184618c8b565b92915050565b60006020820190506196da6000830184618d04565b92915050565b600060208201905081810360008301526196fa8184618d13565b905092915050565b6000602082019050818103600083015261971b81618dfc565b9050919050565b6000602082019050818103600083015261973b81618e1f565b9050919050565b6000602082019050818103600083015261975b81618e42565b9050919050565b6000602082019050818103600083015261977b81618e65565b9050919050565b6000602082019050818103600083015261979b81618e88565b9050919050565b600060208201905081810360008301526197bb81618eab565b9050919050565b600060208201905081810360008301526197db81618ece565b9050919050565b600060208201905081810360008301526197fb81618ef1565b9050919050565b6000602082019050818103600083015261981b81618f14565b9050919050565b6000602082019050818103600083015261983b81618f37565b9050919050565b6000602082019050818103600083015261985b81618f5a565b9050919050565b6000602082019050818103600083015261987b81618f7d565b9050919050565b6000602082019050818103600083015261989b81618fa0565b9050919050565b600060208201905081810360008301526198bb81618fc3565b9050919050565b600060208201905081810360008301526198db81618fe6565b9050919050565b600060208201905081810360008301526198fb81619009565b9050919050565b6000602082019050818103600083015261991b8161902c565b9050919050565b6000602082019050818103600083015261993b8161904f565b9050919050565b6000602082019050818103600083015261995b81619072565b9050919050565b6000602082019050818103600083015261997b81619095565b9050919050565b6000602082019050818103600083015261999b816190b8565b9050919050565b600060208201905081810360008301526199bb816190db565b9050919050565b600060208201905081810360008301526199db816190fe565b9050919050565b600060208201905081810360008301526199fb81619121565b9050919050565b60006020820190508181036000830152619a1b81619144565b9050919050565b60006020820190508181036000830152619a3b81619167565b9050919050565b60006020820190508181036000830152619a5b8161918a565b9050919050565b60006020820190508181036000830152619a7b816191ad565b9050919050565b60006020820190508181036000830152619a9b816191d0565b9050919050565b60006020820190508181036000830152619abb816191f3565b9050919050565b60006020820190508181036000830152619adb81619216565b9050919050565b60006020820190508181036000830152619afb81619239565b9050919050565b60006020820190508181036000830152619b1b8161925c565b9050919050565b60006020820190508181036000830152619b3b8161927f565b9050919050565b60006020820190508181036000830152619b5b816192a2565b9050919050565b60006020820190508181036000830152619b7b816192c5565b9050919050565b60006020820190508181036000830152619b9b816192e8565b9050919050565b6000602082019050619bb7600083018461931a565b92915050565b6000604082019050619bd2600083018561931a565b619bdf602083018461931a565b9392505050565b60008083356001602003843603038112619c0357619c0261a2c9565b5b80840192508235915067ffffffffffffffff821115619c2557619c2461a2c4565b5b602083019250600182023603831315619c4157619c4061a2d3565b5b509250929050565b6000619c53619c64565b9050619c5f828261a0d3565b919050565b6000604051905090565b600067ffffffffffffffff821115619c8957619c8861a269565b5b602082029050602081019050919050565b600067ffffffffffffffff821115619cb557619cb461a269565b5b602082029050602081019050919050565b600067ffffffffffffffff821115619ce157619ce061a269565b5b602082029050602081019050919050565b600067ffffffffffffffff821115619d0d57619d0c61a269565b5b619d168261a2ec565b9050602081019050919050565b600067ffffffffffffffff821115619d3e57619d3d61a269565b5b619d478261a2ec565b9050602081019050919050565b6000819050602082019050919050565b6000819050919050565b6000819050602082019050919050565b6000819050602082019050919050565b60008190508160005260206000209050919050565b600081519050919050565b600081519050919050565b600081519050919050565b600081519050919050565b600081519050919050565b6000602082019050919050565b6000602082019050919050565b6000602082019050919050565b6000602082019050919050565b600082825260208201905092915050565b600082825260208201905092915050565b600082825260208201905092915050565b600082825260208201905092915050565b600081905092915050565b600082825260208201905092915050565b600081905092915050565b6000619e886020840184617cf2565b905092915050565b6000619e9b8261a021565b9150619ea68361a021565b9250827fffffffffffffffffffffffffffffffffffffffffffffffffffffffffffffffff03821115619edb57619eda61a17e565b5b828201905092915050565b6000619ef18261a021565b9150619efc8361a021565b925082619f0c57619f0b61a1ad565b5b828204905092915050565b6000619f228261a021565b9150619f2d8361a021565b9250817fffffffffffffffffffffffffffffffffffffffffffffffffffffffffffffffff0483118215151615619f6657619f6561a17e565b5b828202905092915050565b6000619f7c8261a021565b9150619f878361a021565b925082821015619f9a57619f9961a17e565b5b828203905092915050565b6000619fb08261a001565b9050919050565b6000619fc28261a001565b9050919050565b60008115159050919050565b60007fffffffff0000000000000000000000000000000000000000000000000000000082169050919050565b600073ffffffffffffffffffffffffffffffffffffffff82169050919050565b6000819050919050565b600060ff82169050919050565b600061a045368484617b19565b905092915050565b600061a0588261a02b565b9050919050565b82818337600083830152505050565b60005b8381101561a08c57808201518184015260208101905061a071565b8381111561a09b576000848401525b50505050565b6000600282049050600182168061a0b957607f821691505b6020821081141561a0cd5761a0cc61a1dc565b5b50919050565b61a0dc8261a2ec565b810181811067ffffffffffffffff8211171561a0fb5761a0fa61a269565b5b80604052505050565b600061a10f8261a021565b91507fffffffffffffffffffffffffffffffffffffffffffffffffffffffffffffffff82141561a1425761a14161a17e565b5b600182019050919050565b600061a1588261a021565b915061a1638361a021565b92508261a1735761a17261a1ad565b5b828206905092915050565b7f4e487b7100000000000000000000000000000000000000000000000000000000600052601160045260246000fd5b7f4e487b7100000000000000000000000000000000000000000000000000000000600052601260045260246000fd5b7f4e487b7100000000000000000000000000000000000000000000000000000000600052602260045260246000fd5b7f4e487b7100000000000000000000000000000000000000000000000000000000600052603160045260246000fd5b7f4e487b7100000000000000000000000000000000000000000000000000000000600052603260045260246000fd5b7f4e487b7100000000000000000000000000000000000000000000000000000000600052604160045260246000fd5b600060033d111561a2b75760046000803e61a2b460005161a2fd565b90505b90565b600080fd5b600080fd5b600080fd5b600080fd5b600080fd5b600080fd5b600080fd5b600080fd5b600080fd5b600080fd5b6000601f19601f8301169050919050565b60008160e01c9050919050565b7f455243313135353a207472616e7366657220746f206e6f6e204552433131353560008201527f526563656976657220696d706c656d656e746572000000000000000000000000602082015250565b7f455243313135353a204552433131353552656365697665722072656a6563746560008201527f6420746f6b656e73000000000000000000000000000000000000000000000000602082015250565b7f43616e6e6f7420626c61636b6c69737420796f757273656c6600000000000000600082015250565b7f496e76616c696420616464726573730000000000000000000000000000000000600082015250565b7f455243313135353a2062616c616e636520717565727920666f7220746865207a60008201527f65726f2061646472657373000000000000000000000000000000000000000000602082015250565b7f4f776e61626c653a206e6577206f776e657220697320746865207a65726f206160008201527f6464726573730000000000000000000000000000000000000000000000000000602082015250565b7f455243313135353a206275726e20616d6f756e7420657863656564732062616c60008201527f616e636500000000000000000000000000000000000000000000000000000000602082015250565b7f455243313135353a2063616c6c6572206973206e6f74206f776e6572206e6f7260008201527f20617070726f7665640000000000000000000000000000000000000000000000602082015250565b7f496e76616c696420657874656e73696f6e000000000000000000000000000000600082015250565b7f457874656e73696f6e20626c61636b6c69737465640000000000000000000000600082015250565b7f496e76616c696420746f6b656e00000000000000000000000000000000000000600082015250565b7f4d757374206265207265676973746572656420657874656e73696f6e00000000600082015250565b7f457874656e73696f6e206d75737420696d706c656d656e74204945524331313560008201527f3543726561746f72457874656e73696f6e417070726f76655472616e73666572602082015250565b7f455243313135353a207472616e7366657220746f20746865207a65726f20616460008201527f6472657373000000000000000000000000000000000000000000000000000000602082015250565b7f455243313135353a207472616e736665722063616c6c6572206973206e6f742060008201527f6f776e6572206e6f7220617070726f7665640000000000000000000000000000602082015250565b7f4d6f7265207468616e203120726f79616c747920726563656976657200000000600082015250565b7f496e697469616c697a61626c653a20636f6e747261637420697320616c72656160008201527f647920696e697469616c697a6564000000000000000000000000000000000000602082015250565b7f455243313135353a206275726e2066726f6d20746865207a65726f206164647260008201527f6573730000000000000000000000000000000000000000000000000000000000602082015250565b7f455243313135353a20696e73756666696369656e742062616c616e636520666f60008201527f72207472616e7366657200000000000000000000000000000000000000000000602082015250565b7f43726561746f723a20457874656e73696f6e206d757374206265206120636f6e60008201527f7472616374000000000000000000000000000000000000000000000000000000602082015250565b7f4d69736d61746368656420746f6b656e206f726967696e61746f727300000000600082015250565b7f4f776e61626c653a2063616c6c6572206973206e6f7420746865206f776e6572600082015250565b7f4e6f20657874656e73696f6e20666f7220746f6b656e00000000000000000000600082015250565b7f496e76616c696420696e70757400000000000000000000000000000000000000600082015250565b7f496e76616c696420746f74616c20726f79616c74696573000000000000000000600082015250565b7f457874656e73696f6e20617070726f76616c206661696c757265000000000000600082015250565b7f43616c6c6572206973206e6f74206f776e6572206e6f7220617070726f766564600082015250565b7f41646d696e436f6e74726f6c3a204d757374206265206f776e6572206f72206160008201527f646d696e00000000000000000000000000000000000000000000000000000000602082015250565b7f4120746f6b656e20776173206e6f74206372656174656420627920746869732060008201527f657874656e73696f6e0000000000000000000000000000000000000000000000602082015250565b7f496e697469616c697a61626c653a20636f6e7472616374206973206e6f74206960008201527f6e697469616c697a696e67000000000000000000000000000000000000000000602082015250565b7f43726561746f723a20496e76616c696400000000000000000000000000000000600082015250565b7f4120746f6b656e20776173206372656174656420627920616e20657874656e7360008201527f696f6e0000000000000000000000000000000000000000000000000000000000602082015250565b7f455243313135353a2073657474696e6720617070726f76616c2073746174757360008201527f20666f722073656c660000000000000000000000000000000000000000000000602082015250565b7f455243313135353a206163636f756e747320616e6420696473206c656e67746860008201527f206d69736d617463680000000000000000000000000000000000000000000000602082015250565b7f455243313135353a2069647320616e6420616d6f756e7473206c656e6774682060008201527f6d69736d61746368000000000000000000000000000000000000000000000000602082015250565b7f455243313135353a206d696e7420746f20746865207a65726f2061646472657360008201527f7300000000000000000000000000000000000000000000000000000000000000602082015250565b7f5265656e7472616e637947756172643a207265656e7472616e742063616c6c00600082015250565b600060443d101561ac255761aca8565b61ac2d619c64565b60043d036004823e80513d602482011167ffffffffffffffff8211171561ac5557505061aca8565b808201805167ffffffffffffffff81111561ac73575050505061aca8565b80602083010160043d03850181111561ac9057505050505061aca8565b61ac9f8260200185018661a0d3565b82955050505050505b90565b61acb481619fa5565b811461acbf57600080fd5b50565b61accb81619fb7565b811461acd657600080fd5b50565b61ace281619fc9565b811461aced57600080fd5b50565b61acf981619fd5565b811461ad0457600080fd5b50565b61ad108161a021565b811461ad1b57600080fd5b5056fea264697066735822122015c6100f0381b37c765265e62d41074e80c5a741258ae9d2751553646255440f64736f6c63430008070033",
  "immutableReferences": {},
  "source": "// SPDX-License-Identifier: MIT\n\npragma solidity ^0.8.0;\n\n/// @author: manifold.xyz\n\nimport \"@openzeppelin/contracts-upgradeable/token/ERC1155/ERC1155Upgradeable.sol\";\nimport \"@manifoldxyz/libraries-solidity/contracts/access/AdminControlUpgradeable.sol\";\n\nimport \"./core/ERC1155CreatorCore.sol\";\n\n/**\n * @dev ERC1155Creator implementation (using transparent upgradeable proxy)\n */\ncontract ERC1155CreatorUpgradeable is AdminControlUpgradeable, ERC1155Upgradeable, ERC1155CreatorCore {\n\n    mapping(uint256 => uint256) private _totalSupply;\n\n    /**\n     * Initializer\n     */\n    function initialize() public initializer {\n        __ERC1155_init(\"\");\n        __Ownable_init();\n    }\n\n    /**\n     * @dev See {IERC165-supportsInterface}.\n     */\n    function supportsInterface(bytes4 interfaceId) public view virtual override(ERC1155Upgradeable, ERC1155CreatorCore, AdminControlUpgradeable) returns (bool) {\n        return ERC1155CreatorCore.supportsInterface(interfaceId) || ERC1155Upgradeable.supportsInterface(interfaceId) || AdminControlUpgradeable.supportsInterface(interfaceId);\n    }\n\n    function _beforeTokenTransfer(address, address from, address to, uint256[] memory ids, uint256[] memory amounts, bytes memory) internal virtual override {\n        _approveTransfer(from, to, ids, amounts);\n    }\n\n    /**\n     * @dev See {ICreatorCore-registerExtension}.\n     */\n    function registerExtension(address extension, string calldata baseURI) external override adminRequired nonBlacklistRequired(extension) {\n        _registerExtension(extension, baseURI, false);\n    }\n\n    /**\n     * @dev See {ICreatorCore-registerExtension}.\n     */\n    function registerExtension(address extension, string calldata baseURI, bool baseURIIdentical) external override adminRequired nonBlacklistRequired(extension) {\n        _registerExtension(extension, baseURI, baseURIIdentical);\n    }\n\n\n    /**\n     * @dev See {ICreatorCore-unregisterExtension}.\n     */\n    function unregisterExtension(address extension) external override adminRequired {\n        _unregisterExtension(extension);\n    }\n\n    /**\n     * @dev See {ICreatorCore-blacklistExtension}.\n     */\n    function blacklistExtension(address extension) external override adminRequired {\n        _blacklistExtension(extension);\n    }\n\n    /**\n     * @dev See {ICreatorCore-setBaseTokenURIExtension}.\n     */\n    function setBaseTokenURIExtension(string calldata uri_) external override extensionRequired {\n        _setBaseTokenURIExtension(uri_, false);\n    }\n\n    /**\n     * @dev See {ICreatorCore-setBaseTokenURIExtension}.\n     */\n    function setBaseTokenURIExtension(string calldata uri_, bool identical) external override extensionRequired {\n        _setBaseTokenURIExtension(uri_, identical);\n    }\n\n    /**\n     * @dev See {ICreatorCore-setTokenURIPrefixExtension}.\n     */\n    function setTokenURIPrefixExtension(string calldata prefix) external override extensionRequired {\n        _setTokenURIPrefixExtension(prefix);\n    }\n\n    /**\n     * @dev See {ICreatorCore-setTokenURIExtension}.\n     */\n    function setTokenURIExtension(uint256 tokenId, string calldata uri_) external override extensionRequired {\n        _setTokenURIExtension(tokenId, uri_);\n    }\n\n    /**\n     * @dev See {ICreatorCore-setTokenURIExtension}.\n     */\n    function setTokenURIExtension(uint256[] memory tokenIds, string[] calldata uris) external override extensionRequired {\n        require(tokenIds.length == uris.length, \"Invalid input\");\n        for (uint i = 0; i < tokenIds.length; i++) {\n            _setTokenURIExtension(tokenIds[i], uris[i]);            \n        }\n    }\n\n    /**\n     * @dev See {ICreatorCore-setBaseTokenURI}.\n     */\n    function setBaseTokenURI(string calldata uri_) external override adminRequired {\n        _setBaseTokenURI(uri_);\n    }\n\n    /**\n     * @dev See {ICreatorCore-setTokenURIPrefix}.\n     */\n    function setTokenURIPrefix(string calldata prefix) external override adminRequired {\n        _setTokenURIPrefix(prefix);\n    }\n\n    /**\n     * @dev See {ICreatorCore-setTokenURI}.\n     */\n    function setTokenURI(uint256 tokenId, string calldata uri_) external override adminRequired {\n        _setTokenURI(tokenId, uri_);\n    }\n\n    /**\n     * @dev See {ICreatorCore-setTokenURI}.\n     */\n    function setTokenURI(uint256[] memory tokenIds, string[] calldata uris) external override adminRequired {\n        require(tokenIds.length == uris.length, \"Invalid input\");\n        for (uint i = 0; i < tokenIds.length; i++) {\n            _setTokenURI(tokenIds[i], uris[i]);            \n        }\n    }\n\n    /**\n     * @dev See {ICreatorCore-setMintPermissions}.\n     */\n    function setMintPermissions(address extension, address permissions) external override adminRequired {\n        _setMintPermissions(extension, permissions);\n    }\n\n    /**\n     * @dev See {IERC1155CreatorCore-mintBaseNew}.\n     */\n    function mintBaseNew(address[] calldata to, uint256[] calldata amounts, string[] calldata uris) public virtual override nonReentrant adminRequired returns(uint256[] memory) {\n        return _mintNew(address(this), to, amounts, uris);\n    }\n\n    /**\n     * @dev See {IERC1155CreatorCore-mintBaseExisting}.\n     */\n    function mintBaseExisting(address[] calldata to, uint256[] calldata tokenIds, uint256[] calldata amounts) public virtual override nonReentrant adminRequired {\n        for (uint i = 0; i < tokenIds.length; i++) {\n            require(_tokensExtension[tokenIds[i]] == address(this), \"A token was created by an extension\");\n        }\n        _mintExisting(address(this), to, tokenIds, amounts);\n    }\n\n    /**\n     * @dev See {IERC1155CreatorCore-mintExtensionNew}.\n     */\n    function mintExtensionNew(address[] calldata to, uint256[] calldata amounts, string[] calldata uris) public virtual override nonReentrant extensionRequired returns(uint256[] memory tokenIds) {\n        return _mintNew(msg.sender, to, amounts, uris);\n    }\n\n    /**\n     * @dev See {IERC1155CreatorCore-mintExtensionExisting}.\n     */\n    function mintExtensionExisting(address[] calldata to, uint256[] calldata tokenIds, uint256[] calldata amounts) public virtual override nonReentrant extensionRequired {\n        for (uint i = 0; i < tokenIds.length; i++) {\n            require(_tokensExtension[tokenIds[i]] == address(msg.sender), \"A token was not created by this extension\");\n        }\n        _mintExisting(msg.sender, to, tokenIds, amounts);\n    }\n\n    /**\n     * @dev Mint new tokens\n     */\n    function _mintNew(address extension, address[] memory to, uint256[] memory amounts, string[] memory uris) internal returns(uint256[] memory tokenIds) {\n        if (to.length > 1) {\n            // Multiple receiver.  Give every receiver the same new token\n            tokenIds = new uint256[](1);\n            require(uris.length <= 1 && (amounts.length == 1 || to.length == amounts.length), \"Invalid input\");\n        } else {\n            // Single receiver.  Generating multiple tokens\n            tokenIds = new uint256[](amounts.length);\n            require(uris.length == 0 || amounts.length == uris.length, \"Invalid input\");\n        }\n\n        // Assign tokenIds\n        for (uint i = 0; i < tokenIds.length; i++) {\n            _tokenCount++;\n            tokenIds[i] = _tokenCount;\n            // Track the extension that minted the token\n            _tokensExtension[_tokenCount] = extension;\n        }\n\n        if (extension != address(this)) {\n            _checkMintPermissions(to, tokenIds, amounts);\n        }\n\n        if (to.length == 1 && tokenIds.length == 1) {\n           // Single mint\n           _mint(to[0], tokenIds[0], amounts[0], new bytes(0));\n        } else if (to.length > 1) {\n            // Multiple receivers.  Receiving the same token\n            if (amounts.length == 1) {\n                // Everyone receiving the same amount\n                for (uint i = 0; i < to.length; i++) {\n                    _mint(to[i], tokenIds[0], amounts[0], new bytes(0));\n                }\n            } else {\n                // Everyone receiving different amounts\n                for (uint i = 0; i < to.length; i++) {\n                    _mint(to[i], tokenIds[0], amounts[i], new bytes(0));\n                }\n            }\n        } else {\n            _mintBatch(to[0], tokenIds, amounts, new bytes(0));\n        }\n\n        for (uint i = 0; i < tokenIds.length; i++) {\n            if (i < uris.length && bytes(uris[i]).length > 0) {\n                _tokenURIs[tokenIds[i]] = uris[i];\n            }\n        }\n        return tokenIds;\n    }\n\n    /**\n     * @dev Mint existing tokens\n     */\n    function _mintExisting(address extension, address[] memory to, uint256[] memory tokenIds, uint256[] memory amounts) internal {\n        if (extension != address(this)) {\n            _checkMintPermissions(to, tokenIds, amounts);\n        }\n\n        if (to.length == 1 && tokenIds.length == 1 && amounts.length == 1) {\n             // Single mint\n            _mint(to[0], tokenIds[0], amounts[0], new bytes(0));            \n        } else if (to.length == 1 && tokenIds.length == amounts.length) {\n            // Batch mint to same receiver\n            _mintBatch(to[0], tokenIds, amounts, new bytes(0));\n        } else if (tokenIds.length == 1 && amounts.length == 1) {\n            // Mint of the same token/token amounts to various receivers\n            for (uint i = 0; i < to.length; i++) {\n                _mint(to[i], tokenIds[0], amounts[0], new bytes(0));\n            }\n        } else if (tokenIds.length == 1 && to.length == amounts.length) {\n            // Mint of the same token with different amounts to different receivers\n            for (uint i = 0; i < to.length; i++) {\n                _mint(to[i], tokenIds[0], amounts[i], new bytes(0));\n            }\n        } else if (to.length == tokenIds.length && to.length == amounts.length) {\n            // Mint of different tokens and different amounts to different receivers\n            for (uint i = 0; i < to.length; i++) {\n                _mint(to[i], tokenIds[i], amounts[i], new bytes(0));\n            }\n        } else {\n            revert(\"Invalid input\");\n        }\n    }\n\n    /**\n     * @dev See {IERC1155CreatorCore-tokenExtension}.\n     */\n    function tokenExtension(uint256 tokenId) public view virtual override returns (address) {\n        return _tokenExtension(tokenId);\n    }\n\n    /**\n     * @dev See {IERC1155CreatorCore-burn}.\n     */\n    function burn(address account, uint256[] memory tokenIds, uint256[] memory amounts) public virtual override nonReentrant {\n        require(account == msg.sender || isApprovedForAll(account, msg.sender), \"Caller is not owner nor approved\");\n        require(tokenIds.length == amounts.length, \"Invalid input\");\n        if (tokenIds.length == 1) {\n            _burn(account, tokenIds[0], amounts[0]);\n        } else {\n            _burnBatch(account, tokenIds, amounts);\n        }\n        _postBurn(account, tokenIds, amounts);\n    }\n\n    /**\n     * @dev See {ICreatorCore-setRoyalties}.\n     */\n    function setRoyalties(address payable[] calldata receivers, uint256[] calldata basisPoints) external override adminRequired {\n        _setRoyaltiesExtension(address(this), receivers, basisPoints);\n    }\n\n    /**\n     * @dev See {ICreatorCore-setRoyalties}.\n     */\n    function setRoyalties(uint256 tokenId, address payable[] calldata receivers, uint256[] calldata basisPoints) external override adminRequired {\n        _setRoyalties(tokenId, receivers, basisPoints);\n    }\n\n    /**\n     * @dev See {ICreatorCore-setRoyaltiesExtension}.\n     */\n    function setRoyaltiesExtension(address extension, address payable[] calldata receivers, uint256[] calldata basisPoints) external override adminRequired {\n        _setRoyaltiesExtension(extension, receivers, basisPoints);\n    }\n\n    /**\n     * @dev {See ICreatorCore-getRoyalties}.\n     */\n    function getRoyalties(uint256 tokenId) external view virtual override returns (address payable[] memory, uint256[] memory) {\n        return _getRoyalties(tokenId);\n    }\n\n    /**\n     * @dev {See ICreatorCore-getFees}.\n     */\n    function getFees(uint256 tokenId) external view virtual override returns (address payable[] memory, uint256[] memory) {\n        return _getRoyalties(tokenId);\n    }\n\n    /**\n     * @dev {See ICreatorCore-getFeeRecipients}.\n     */\n    function getFeeRecipients(uint256 tokenId) external view virtual override returns (address payable[] memory) {\n        return _getRoyaltyReceivers(tokenId);\n    }\n\n    /**\n     * @dev {See ICreatorCore-getFeeBps}.\n     */\n    function getFeeBps(uint256 tokenId) external view virtual override returns (uint[] memory) {\n        return _getRoyaltyBPS(tokenId);\n    }\n    \n    /**\n     * @dev {See ICreatorCore-royaltyInfo}.\n     */\n    function royaltyInfo(uint256 tokenId, uint256 value) external view virtual override returns (address, uint256) {\n        return _getRoyaltyInfo(tokenId, value);\n    } \n\n    /**\n     * @dev See {IERC721Metadata-tokenURI}.\n     */\n    function uri(uint256 tokenId) public view virtual override returns (string memory) {\n        return _tokenURI(tokenId);\n    }\n    \n    /**\n     * @dev Total amount of tokens in with a given id.\n     */\n    function totalSupply(uint256 tokenId) external view virtual override returns (uint256) {\n        return _totalSupply[tokenId];\n    }\n\n    /**\n     * @dev See {ERC1155-_mint}.\n     */\n    function _mint(address account, uint256 id, uint256 amount, bytes memory data) internal virtual override {\n        super._mint(account, id, amount, data);\n        _totalSupply[id] += amount;\n    }\n\n    /**\n     * @dev See {ERC1155-_mintBatch}.\n     */\n    function _mintBatch(address to, uint256[] memory ids, uint256[] memory amounts, bytes memory data) internal virtual override {\n        super._mintBatch(to, ids, amounts, data);\n        for (uint256 i = 0; i < ids.length; ++i) {\n            _totalSupply[ids[i]] += amounts[i];\n        }\n    }\n\n    /**\n     * @dev See {ERC1155-_burn}.\n     */\n    function _burn(address account, uint256 id, uint256 amount) internal virtual override {\n        super._burn(account, id, amount);\n        _totalSupply[id] -= amount;\n    }\n\n    /**\n     * @dev See {ERC1155-_burnBatch}.\n     */\n    function _burnBatch(address account, uint256[] memory ids, uint256[] memory amounts) internal virtual override {\n        super._burnBatch(account, ids, amounts);\n        for (uint256 i = 0; i < ids.length; ++i) {\n            _totalSupply[ids[i]] -= amounts[i];\n        }\n    }\n}",
  "sourcePath": "@manifoldxyz/creator-core-solidity/contracts/ERC1155CreatorUpgradeable.sol",
  "compiler": {
    "name": "solc",
    "version": "0.8.7+commit.e28d00a7.Emscripten.clang"
  },
  "schemaVersion": "3.4.7",
  "updatedAt": "2022-06-09T20:22:52.261Z",
  "devdoc": {
    "details": "ERC1155Creator implementation (using transparent upgradeable proxy)",
    "kind": "dev",
    "methods": {
      "approveAdmin(address)": {
        "details": "See {IAdminControl-approveAdmin}."
      },
      "balanceOf(address,uint256)": {
        "details": "See {IERC1155-balanceOf}. Requirements: - `account` cannot be the zero address."
      },
      "balanceOfBatch(address[],uint256[])": {
        "details": "See {IERC1155-balanceOfBatch}. Requirements: - `accounts` and `ids` must have the same length."
      },
      "blacklistExtension(address)": {
        "details": "See {ICreatorCore-blacklistExtension}."
      },
      "burn(address,uint256[],uint256[])": {
        "details": "See {IERC1155CreatorCore-burn}."
      },
      "getAdmins()": {
        "details": "See {IAdminControl-getAdmins}."
      },
      "getExtensions()": {
        "details": "See {ICreatorCore-getExtensions}."
      },
      "getFeeBps(uint256)": {
        "details": "{See ICreatorCore-getFeeBps}."
      },
      "getFeeRecipients(uint256)": {
        "details": "{See ICreatorCore-getFeeRecipients}."
      },
      "getFees(uint256)": {
        "details": "{See ICreatorCore-getFees}."
      },
      "getRoyalties(uint256)": {
        "details": "{See ICreatorCore-getRoyalties}."
      },
      "isAdmin(address)": {
        "details": "See {IAdminControl-isAdmin}."
      },
      "isApprovedForAll(address,address)": {
        "details": "See {IERC1155-isApprovedForAll}."
      },
      "mintBaseExisting(address[],uint256[],uint256[])": {
        "details": "See {IERC1155CreatorCore-mintBaseExisting}."
      },
      "mintBaseNew(address[],uint256[],string[])": {
        "details": "See {IERC1155CreatorCore-mintBaseNew}."
      },
      "mintExtensionExisting(address[],uint256[],uint256[])": {
        "details": "See {IERC1155CreatorCore-mintExtensionExisting}."
      },
      "mintExtensionNew(address[],uint256[],string[])": {
        "details": "See {IERC1155CreatorCore-mintExtensionNew}."
      },
      "owner()": {
        "details": "Returns the address of the current owner."
      },
      "registerExtension(address,string)": {
        "details": "See {ICreatorCore-registerExtension}."
      },
      "registerExtension(address,string,bool)": {
        "details": "See {ICreatorCore-registerExtension}."
      },
      "renounceOwnership()": {
        "details": "Leaves the contract without owner. It will not be possible to call `onlyOwner` functions anymore. Can only be called by the current owner. NOTE: Renouncing ownership will leave the contract without an owner, thereby removing any functionality that is only available to the owner."
      },
      "revokeAdmin(address)": {
        "details": "See {IAdminControl-revokeAdmin}."
      },
      "royaltyInfo(uint256,uint256)": {
        "details": "{See ICreatorCore-royaltyInfo}."
      },
      "safeBatchTransferFrom(address,address,uint256[],uint256[],bytes)": {
        "details": "See {IERC1155-safeBatchTransferFrom}."
      },
      "safeTransferFrom(address,address,uint256,uint256,bytes)": {
        "details": "See {IERC1155-safeTransferFrom}."
      },
      "setApprovalForAll(address,bool)": {
        "details": "See {IERC1155-setApprovalForAll}."
      },
      "setApproveTransferExtension(bool)": {
        "details": "See {ICreatorCore-setApproveTransferExtension}."
      },
      "setBaseTokenURI(string)": {
        "details": "See {ICreatorCore-setBaseTokenURI}."
      },
      "setBaseTokenURIExtension(string)": {
        "details": "See {ICreatorCore-setBaseTokenURIExtension}."
      },
      "setBaseTokenURIExtension(string,bool)": {
        "details": "See {ICreatorCore-setBaseTokenURIExtension}."
      },
      "setMintPermissions(address,address)": {
        "details": "See {ICreatorCore-setMintPermissions}."
      },
      "setRoyalties(address[],uint256[])": {
        "details": "See {ICreatorCore-setRoyalties}."
      },
      "setRoyalties(uint256,address[],uint256[])": {
        "details": "See {ICreatorCore-setRoyalties}."
      },
      "setRoyaltiesExtension(address,address[],uint256[])": {
        "details": "See {ICreatorCore-setRoyaltiesExtension}."
      },
      "setTokenURI(uint256,string)": {
        "details": "See {ICreatorCore-setTokenURI}."
      },
      "setTokenURI(uint256[],string[])": {
        "details": "See {ICreatorCore-setTokenURI}."
      },
      "setTokenURIExtension(uint256,string)": {
        "details": "See {ICreatorCore-setTokenURIExtension}."
      },
      "setTokenURIExtension(uint256[],string[])": {
        "details": "See {ICreatorCore-setTokenURIExtension}."
      },
      "setTokenURIPrefix(string)": {
        "details": "See {ICreatorCore-setTokenURIPrefix}."
      },
      "setTokenURIPrefixExtension(string)": {
        "details": "See {ICreatorCore-setTokenURIPrefixExtension}."
      },
      "supportsInterface(bytes4)": {
        "details": "See {IERC165-supportsInterface}."
      },
      "tokenExtension(uint256)": {
        "details": "See {IERC1155CreatorCore-tokenExtension}."
      },
      "totalSupply(uint256)": {
        "details": "Total amount of tokens in with a given id."
      },
      "transferOwnership(address)": {
        "details": "Transfers ownership of the contract to a new account (`newOwner`). Can only be called by the current owner."
      },
      "unregisterExtension(address)": {
        "details": "See {ICreatorCore-unregisterExtension}."
      },
      "uri(uint256)": {
        "details": "See {IERC721Metadata-tokenURI}."
      }
    },
    "version": 1
  },
  "userdoc": {
    "kind": "user",
    "methods": {
      "initialize()": {
        "notice": "Initializer"
      }
    },
    "version": 1
  },
  "db": {
    "callBytecode": {
      "id": "0x9c4f013cbbad09b78eebd7069a822e293987c54e81690ea715b7d4ceca70fde9"
    },
    "createBytecode": {
      "id": "0x61ed6a19a472aa39ad4effd9f94fe1fa043e5556709ee4a3f7d0c57e274f0948"
    },
    "contract": {
      "id": "0xf75f7fb0b8725d0c35ab2100713e6ff4d804e4cc09af47bca895b4ffe86456df"
    }
  }
}