{
  "contractName": "VennityCreator",
  "abi": [
    {
      "anonymous": false,
      "inputs": [
        {
          "indexed": true,
          "internalType": "address",
          "name": "account",
          "type": "address"
        },
        {
          "indexed": true,
          "internalType": "address",
          "name": "sender",
          "type": "address"
        }
      ],
      "name": "AdminApproved",
      "type": "event"
    },
    {
      "anonymous": false,
      "inputs": [
        {
          "indexed": true,
          "internalType": "address",
          "name": "account",
          "type": "address"
        },
        {
          "indexed": true,
          "internalType": "address",
          "name": "sender",
          "type": "address"
        }
      ],
      "name": "AdminRevoked",
      "type": "event"
    },
    {
      "anonymous": false,
      "inputs": [
        {
          "indexed": true,
          "internalType": "address",
          "name": "account",
          "type": "address"
        },
        {
          "indexed": true,
          "internalType": "address",
          "name": "operator",
          "type": "address"
        },
        {
          "indexed": false,
          "internalType": "bool",
          "name": "approved",
          "type": "bool"
        }
      ],
      "name": "ApprovalForAll",
      "type": "event"
    },
    {
      "anonymous": false,
      "inputs": [
        {
          "indexed": false,
          "internalType": "address payable[]",
          "name": "receivers",
          "type": "address[]"
        },
        {
          "indexed": false,
          "internalType": "uint256[]",
          "name": "basisPoints",
          "type": "uint256[]"
        }
      ],
      "name": "DefaultRoyaltiesUpdated",
      "type": "event"
    },
    {
      "anonymous": false,
      "inputs": [
        {
          "indexed": true,
          "internalType": "address",
          "name": "extension",
          "type": "address"
        },
        {
          "indexed": false,
          "internalType": "bool",
          "name": "enabled",
          "type": "bool"
        }
      ],
      "name": "ExtensionApproveTransferUpdated",
      "type": "event"
    },
    {
      "anonymous": false,
      "inputs": [
        {
          "indexed": true,
          "internalType": "address",
          "name": "extension",
          "type": "address"
        },
        {
          "indexed": true,
          "internalType": "address",
          "name": "sender",
          "type": "address"
        }
      ],
      "name": "ExtensionBlacklisted",
      "type": "event"
    },
    {
      "anonymous": false,
      "inputs": [
        {
          "indexed": true,
          "internalType": "address",
          "name": "extension",
          "type": "address"
        },
        {
          "indexed": true,
          "internalType": "address",
          "name": "sender",
          "type": "address"
        }
      ],
      "name": "ExtensionRegistered",
      "type": "event"
    },
    {
      "anonymous": false,
      "inputs": [
        {
          "indexed": true,
          "internalType": "address",
          "name": "extension",
          "type": "address"
        },
        {
          "indexed": false,
          "internalType": "address payable[]",
          "name": "receivers",
          "type": "address[]"
        },
        {
          "indexed": false,
          "internalType": "uint256[]",
          "name": "basisPoints",
          "type": "uint256[]"
        }
      ],
      "name": "ExtensionRoyaltiesUpdated",
      "type": "event"
    },
    {
      "anonymous": false,
      "inputs": [
        {
          "indexed": true,
          "internalType": "address",
          "name": "extension",
          "type": "address"
        },
        {
          "indexed": true,
          "internalType": "address",
          "name": "sender",
          "type": "address"
        }
      ],
      "name": "ExtensionUnregistered",
      "type": "event"
    },
    {
      "anonymous": false,
      "inputs": [
        {
          "indexed": false,
          "internalType": "uint8",
          "name": "version",
          "type": "uint8"
        }
      ],
      "name": "Initialized",
      "type": "event"
    },
    {
      "anonymous": false,
      "inputs": [
        {
          "indexed": true,
          "internalType": "address",
          "name": "extension",
          "type": "address"
        },
        {
          "indexed": true,
          "internalType": "address",
          "name": "permissions",
          "type": "address"
        },
        {
          "indexed": true,
          "internalType": "address",
          "name": "sender",
          "type": "address"
        }
      ],
      "name": "MintPermissionsUpdated",
      "type": "event"
    },
    {
      "anonymous": false,
      "inputs": [
        {
          "indexed": true,
          "internalType": "address",
          "name": "previousOwner",
          "type": "address"
        },
        {
          "indexed": true,
          "internalType": "address",
          "name": "newOwner",
          "type": "address"
        }
      ],
      "name": "OwnershipTransferred",
      "type": "event"
    },
    {
      "anonymous": false,
      "inputs": [
        {
          "indexed": true,
          "internalType": "uint256",
          "name": "tokenId",
          "type": "uint256"
        },
        {
          "indexed": false,
          "internalType": "address payable[]",
          "name": "receivers",
          "type": "address[]"
        },
        {
          "indexed": false,
          "internalType": "uint256[]",
          "name": "basisPoints",
          "type": "uint256[]"
        }
      ],
      "name": "RoyaltiesUpdated",
      "type": "event"
    },
    {
      "anonymous": false,
      "inputs": [
        {
          "indexed": true,
          "internalType": "address",
          "name": "operator",
          "type": "address"
        },
        {
          "indexed": true,
          "internalType": "address",
          "name": "from",
          "type": "address"
        },
        {
          "indexed": true,
          "internalType": "address",
          "name": "to",
          "type": "address"
        },
        {
          "indexed": false,
          "internalType": "uint256[]",
          "name": "ids",
          "type": "uint256[]"
        },
        {
          "indexed": false,
          "internalType": "uint256[]",
          "name": "values",
          "type": "uint256[]"
        }
      ],
      "name": "TransferBatch",
      "type": "event"
    },
    {
      "anonymous": false,
      "inputs": [
        {
          "indexed": true,
          "internalType": "address",
          "name": "operator",
          "type": "address"
        },
        {
          "indexed": true,
          "internalType": "address",
          "name": "from",
          "type": "address"
        },
        {
          "indexed": true,
          "internalType": "address",
          "name": "to",
          "type": "address"
        },
        {
          "indexed": false,
          "internalType": "uint256",
          "name": "id",
          "type": "uint256"
        },
        {
          "indexed": false,
          "internalType": "uint256",
          "name": "value",
          "type": "uint256"
        }
      ],
      "name": "TransferSingle",
      "type": "event"
    },
    {
      "anonymous": false,
      "inputs": [
        {
          "indexed": false,
          "internalType": "string",
          "name": "value",
          "type": "string"
        },
        {
          "indexed": true,
          "internalType": "uint256",
          "name": "id",
          "type": "uint256"
        }
      ],
      "name": "URI",
      "type": "event"
    },
    {
      "inputs": [
        {
          "internalType": "address",
          "name": "admin",
          "type": "address"
        }
      ],
      "name": "approveAdmin",
      "outputs": [],
      "stateMutability": "nonpayable",
      "type": "function"
    },
    {
      "inputs": [
        {
          "internalType": "address",
          "name": "account",
          "type": "address"
        },
        {
          "internalType": "uint256",
          "name": "id",
          "type": "uint256"
        }
      ],
      "name": "balanceOf",
      "outputs": [
        {
          "internalType": "uint256",
          "name": "",
          "type": "uint256"
        }
      ],
      "stateMutability": "view",
      "type": "function"
    },
    {
      "inputs": [
        {
          "internalType": "address[]",
          "name": "accounts",
          "type": "address[]"
        },
        {
          "internalType": "uint256[]",
          "name": "ids",
          "type": "uint256[]"
        }
      ],
      "name": "balanceOfBatch",
      "outputs": [
        {
          "internalType": "uint256[]",
          "name": "",
          "type": "uint256[]"
        }
      ],
      "stateMutability": "view",
      "type": "function"
    },
    {
      "inputs": [
        {
          "internalType": "address",
          "name": "extension",
          "type": "address"
        }
      ],
      "name": "blacklistExtension",
      "outputs": [],
      "stateMutability": "nonpayable",
      "type": "function"
    },
    {
      "inputs": [
        {
          "internalType": "address",
          "name": "account",
          "type": "address"
        },
        {
          "internalType": "uint256[]",
          "name": "tokenIds",
          "type": "uint256[]"
        },
        {
          "internalType": "uint256[]",
          "name": "amounts",
          "type": "uint256[]"
        }
      ],
      "name": "burn",
      "outputs": [],
      "stateMutability": "nonpayable",
      "type": "function"
    },
    {
      "inputs": [],
      "name": "contractURI",
      "outputs": [
        {
          "internalType": "string",
          "name": "",
          "type": "string"
        }
      ],
      "stateMutability": "view",
      "type": "function"
    },
    {
      "inputs": [],
      "name": "getAdmins",
      "outputs": [
        {
          "internalType": "address[]",
          "name": "admins",
          "type": "address[]"
        }
      ],
      "stateMutability": "view",
      "type": "function"
    },
    {
      "inputs": [],
      "name": "getExtensions",
      "outputs": [
        {
          "internalType": "address[]",
          "name": "extensions",
          "type": "address[]"
        }
      ],
      "stateMutability": "view",
      "type": "function"
    },
    {
      "inputs": [
        {
          "internalType": "uint256",
          "name": "tokenId",
          "type": "uint256"
        }
      ],
      "name": "getFeeBps",
      "outputs": [
        {
          "internalType": "uint256[]",
          "name": "",
          "type": "uint256[]"
        }
      ],
      "stateMutability": "view",
      "type": "function"
    },
    {
      "inputs": [
        {
          "internalType": "uint256",
          "name": "tokenId",
          "type": "uint256"
        }
      ],
      "name": "getFeeRecipients",
      "outputs": [
        {
          "internalType": "address payable[]",
          "name": "",
          "type": "address[]"
        }
      ],
      "stateMutability": "view",
      "type": "function"
    },
    {
      "inputs": [
        {
          "internalType": "uint256",
          "name": "tokenId",
          "type": "uint256"
        }
      ],
      "name": "getFees",
      "outputs": [
        {
          "internalType": "address payable[]",
          "name": "",
          "type": "address[]"
        },
        {
          "internalType": "uint256[]",
          "name": "",
          "type": "uint256[]"
        }
      ],
      "stateMutability": "view",
      "type": "function"
    },
    {
      "inputs": [
        {
          "internalType": "uint256",
          "name": "tokenId",
          "type": "uint256"
        }
      ],
      "name": "getRoyalties",
      "outputs": [
        {
          "internalType": "address payable[]",
          "name": "",
          "type": "address[]"
        },
        {
          "internalType": "uint256[]",
          "name": "",
          "type": "uint256[]"
        }
      ],
      "stateMutability": "view",
      "type": "function"
    },
    {
      "inputs": [
        {
          "internalType": "address",
          "name": "admin",
          "type": "address"
        }
      ],
      "name": "isAdmin",
      "outputs": [
        {
          "internalType": "bool",
          "name": "",
          "type": "bool"
        }
      ],
      "stateMutability": "view",
      "type": "function"
    },
    {
      "inputs": [
        {
          "internalType": "address",
          "name": "account",
          "type": "address"
        },
        {
          "internalType": "address",
          "name": "operator",
          "type": "address"
        }
      ],
      "name": "isApprovedForAll",
      "outputs": [
        {
          "internalType": "bool",
          "name": "",
          "type": "bool"
        }
      ],
      "stateMutability": "view",
      "type": "function"
    },
    {
      "inputs": [
        {
          "internalType": "address[]",
          "name": "to",
          "type": "address[]"
        },
        {
          "internalType": "uint256[]",
          "name": "tokenIds",
          "type": "uint256[]"
        },
        {
          "internalType": "uint256[]",
          "name": "amounts",
          "type": "uint256[]"
        }
      ],
      "name": "mintBaseExisting",
      "outputs": [],
      "stateMutability": "nonpayable",
      "type": "function"
    },
    {
      "inputs": [
        {
          "internalType": "address[]",
          "name": "to",
          "type": "address[]"
        },
        {
          "internalType": "uint256[]",
          "name": "amounts",
          "type": "uint256[]"
        },
        {
          "internalType": "string[]",
          "name": "uris",
          "type": "string[]"
        }
      ],
      "name": "mintBaseNew",
      "outputs": [
        {
          "internalType": "uint256[]",
          "name": "",
          "type": "uint256[]"
        }
      ],
      "stateMutability": "nonpayable",
      "type": "function"
    },
    {
      "inputs": [
        {
          "internalType": "address[]",
          "name": "to",
          "type": "address[]"
        },
        {
          "internalType": "uint256[]",
          "name": "tokenIds",
          "type": "uint256[]"
        },
        {
          "internalType": "uint256[]",
          "name": "amounts",
          "type": "uint256[]"
        }
      ],
      "name": "mintExtensionExisting",
      "outputs": [],
      "stateMutability": "nonpayable",
      "type": "function"
    },
    {
      "inputs": [
        {
          "internalType": "address[]",
          "name": "to",
          "type": "address[]"
        },
        {
          "internalType": "uint256[]",
          "name": "amounts",
          "type": "uint256[]"
        },
        {
          "internalType": "string[]",
          "name": "uris",
          "type": "string[]"
        }
      ],
      "name": "mintExtensionNew",
      "outputs": [
        {
          "internalType": "uint256[]",
          "name": "tokenIds",
          "type": "uint256[]"
        }
      ],
      "stateMutability": "nonpayable",
      "type": "function"
    },
    {
      "inputs": [],
      "name": "owner",
      "outputs": [
        {
          "internalType": "address",
          "name": "",
          "type": "address"
        }
      ],
      "stateMutability": "view",
      "type": "function"
    },
    {
      "inputs": [
        {
          "internalType": "address",
          "name": "extension",
          "type": "address"
        },
        {
          "internalType": "string",
          "name": "baseURI",
          "type": "string"
        }
      ],
      "name": "registerExtension",
      "outputs": [],
      "stateMutability": "nonpayable",
      "type": "function"
    },
    {
      "inputs": [
        {
          "internalType": "address",
          "name": "extension",
          "type": "address"
        },
        {
          "internalType": "string",
          "name": "baseURI",
          "type": "string"
        },
        {
          "internalType": "bool",
          "name": "baseURIIdentical",
          "type": "bool"
        }
      ],
      "name": "registerExtension",
      "outputs": [],
      "stateMutability": "nonpayable",
      "type": "function"
    },
    {
      "inputs": [],
      "name": "renounceOwnership",
      "outputs": [],
      "stateMutability": "nonpayable",
      "type": "function"
    },
    {
      "inputs": [
        {
          "internalType": "address",
          "name": "admin",
          "type": "address"
        }
      ],
      "name": "revokeAdmin",
      "outputs": [],
      "stateMutability": "nonpayable",
      "type": "function"
    },
    {
      "inputs": [
        {
          "internalType": "uint256",
          "name": "tokenId",
          "type": "uint256"
        },
        {
          "internalType": "uint256",
          "name": "value",
          "type": "uint256"
        }
      ],
      "name": "royaltyInfo",
      "outputs": [
        {
          "internalType": "address",
          "name": "",
          "type": "address"
        },
        {
          "internalType": "uint256",
          "name": "",
          "type": "uint256"
        }
      ],
      "stateMutability": "view",
      "type": "function"
    },
    {
      "inputs": [
        {
          "internalType": "address",
          "name": "from",
          "type": "address"
        },
        {
          "internalType": "address",
          "name": "to",
          "type": "address"
        },
        {
          "internalType": "uint256[]",
          "name": "ids",
          "type": "uint256[]"
        },
        {
          "internalType": "uint256[]",
          "name": "amounts",
          "type": "uint256[]"
        },
        {
          "internalType": "bytes",
          "name": "data",
          "type": "bytes"
        }
      ],
      "name": "safeBatchTransferFrom",
      "outputs": [],
      "stateMutability": "nonpayable",
      "type": "function"
    },
    {
      "inputs": [
        {
          "internalType": "address",
          "name": "from",
          "type": "address"
        },
        {
          "internalType": "address",
          "name": "to",
          "type": "address"
        },
        {
          "internalType": "uint256",
          "name": "id",
          "type": "uint256"
        },
        {
          "internalType": "uint256",
          "name": "amount",
          "type": "uint256"
        },
        {
          "internalType": "bytes",
          "name": "data",
          "type": "bytes"
        }
      ],
      "name": "safeTransferFrom",
      "outputs": [],
      "stateMutability": "nonpayable",
      "type": "function"
    },
    {
      "inputs": [
        {
          "internalType": "address",
          "name": "operator",
          "type": "address"
        },
        {
          "internalType": "bool",
          "name": "approved",
          "type": "bool"
        }
      ],
      "name": "setApprovalForAll",
      "outputs": [],
      "stateMutability": "nonpayable",
      "type": "function"
    },
    {
      "inputs": [
        {
          "internalType": "bool",
          "name": "enabled",
          "type": "bool"
        }
      ],
      "name": "setApproveTransferExtension",
      "outputs": [],
      "stateMutability": "nonpayable",
      "type": "function"
    },
    {
      "inputs": [
        {
          "internalType": "string",
          "name": "uri_",
          "type": "string"
        }
      ],
      "name": "setBaseTokenURI",
      "outputs": [],
      "stateMutability": "nonpayable",
      "type": "function"
    },
    {
      "inputs": [
        {
          "internalType": "string",
          "name": "uri_",
          "type": "string"
        }
      ],
      "name": "setBaseTokenURIExtension",
      "outputs": [],
      "stateMutability": "nonpayable",
      "type": "function"
    },
    {
      "inputs": [
        {
          "internalType": "string",
          "name": "uri_",
          "type": "string"
        },
        {
          "internalType": "bool",
          "name": "identical",
          "type": "bool"
        }
      ],
      "name": "setBaseTokenURIExtension",
      "outputs": [],
      "stateMutability": "nonpayable",
      "type": "function"
    },
    {
      "inputs": [
        {
          "internalType": "string",
          "name": "_cURI",
          "type": "string"
        }
      ],
      "name": "setContractURI",
      "outputs": [],
      "stateMutability": "nonpayable",
      "type": "function"
    },
    {
      "inputs": [
        {
          "internalType": "address",
          "name": "extension",
          "type": "address"
        },
        {
          "internalType": "address",
          "name": "permissions",
          "type": "address"
        }
      ],
      "name": "setMintPermissions",
      "outputs": [],
      "stateMutability": "nonpayable",
      "type": "function"
    },
    {
      "inputs": [
        {
          "internalType": "uint256",
          "name": "tokenId",
          "type": "uint256"
        },
        {
          "internalType": "address payable[]",
          "name": "receivers",
          "type": "address[]"
        },
        {
          "internalType": "uint256[]",
          "name": "basisPoints",
          "type": "uint256[]"
        }
      ],
      "name": "setRoyalties",
      "outputs": [],
      "stateMutability": "nonpayable",
      "type": "function"
    },
    {
      "inputs": [
        {
          "internalType": "address payable[]",
          "name": "receivers",
          "type": "address[]"
        },
        {
          "internalType": "uint256[]",
          "name": "basisPoints",
          "type": "uint256[]"
        }
      ],
      "name": "setRoyalties",
      "outputs": [],
      "stateMutability": "nonpayable",
      "type": "function"
    },
    {
      "inputs": [
        {
          "internalType": "address",
          "name": "extension",
          "type": "address"
        },
        {
          "internalType": "address payable[]",
          "name": "receivers",
          "type": "address[]"
        },
        {
          "internalType": "uint256[]",
          "name": "basisPoints",
          "type": "uint256[]"
        }
      ],
      "name": "setRoyaltiesExtension",
      "outputs": [],
      "stateMutability": "nonpayable",
      "type": "function"
    },
    {
      "inputs": [
        {
          "internalType": "uint256",
          "name": "tokenId",
          "type": "uint256"
        },
        {
          "internalType": "string",
          "name": "uri_",
          "type": "string"
        }
      ],
      "name": "setTokenURI",
      "outputs": [],
      "stateMutability": "nonpayable",
      "type": "function"
    },
    {
      "inputs": [
        {
          "internalType": "uint256[]",
          "name": "tokenIds",
          "type": "uint256[]"
        },
        {
          "internalType": "string[]",
          "name": "uris",
          "type": "string[]"
        }
      ],
      "name": "setTokenURI",
      "outputs": [],
      "stateMutability": "nonpayable",
      "type": "function"
    },
    {
      "inputs": [
        {
          "internalType": "uint256[]",
          "name": "tokenIds",
          "type": "uint256[]"
        },
        {
          "internalType": "string[]",
          "name": "uris",
          "type": "string[]"
        }
      ],
      "name": "setTokenURIExtension",
      "outputs": [],
      "stateMutability": "nonpayable",
      "type": "function"
    },
    {
      "inputs": [
        {
          "internalType": "uint256",
          "name": "tokenId",
          "type": "uint256"
        },
        {
          "internalType": "string",
          "name": "uri_",
          "type": "string"
        }
      ],
      "name": "setTokenURIExtension",
      "outputs": [],
      "stateMutability": "nonpayable",
      "type": "function"
    },
    {
      "inputs": [
        {
          "internalType": "string",
          "name": "prefix",
          "type": "string"
        }
      ],
      "name": "setTokenURIPrefix",
      "outputs": [],
      "stateMutability": "nonpayable",
      "type": "function"
    },
    {
      "inputs": [
        {
          "internalType": "string",
          "name": "prefix",
          "type": "string"
        }
      ],
      "name": "setTokenURIPrefixExtension",
      "outputs": [],
      "stateMutability": "nonpayable",
      "type": "function"
    },
    {
      "inputs": [
        {
          "internalType": "uint256",
          "name": "tokenId",
          "type": "uint256"
        }
      ],
      "name": "tokenExtension",
      "outputs": [
        {
          "internalType": "address",
          "name": "",
          "type": "address"
        }
      ],
      "stateMutability": "view",
      "type": "function"
    },
    {
      "inputs": [
        {
          "internalType": "uint256",
          "name": "tokenId",
          "type": "uint256"
        }
      ],
      "name": "totalSupply",
      "outputs": [
        {
          "internalType": "uint256",
          "name": "",
          "type": "uint256"
        }
      ],
      "stateMutability": "view",
      "type": "function"
    },
    {
      "inputs": [
        {
          "internalType": "address",
          "name": "newOwner",
          "type": "address"
        }
      ],
      "name": "transferOwnership",
      "outputs": [],
      "stateMutability": "nonpayable",
      "type": "function"
    },
    {
      "inputs": [
        {
          "internalType": "address",
          "name": "extension",
          "type": "address"
        }
      ],
      "name": "unregisterExtension",
      "outputs": [],
      "stateMutability": "nonpayable",
      "type": "function"
    },
    {
      "inputs": [
        {
          "internalType": "uint256",
          "name": "tokenId",
          "type": "uint256"
        }
      ],
      "name": "uri",
      "outputs": [
        {
          "internalType": "string",
          "name": "",
          "type": "string"
        }
      ],
      "stateMutability": "view",
      "type": "function"
    },
    {
      "inputs": [],
      "name": "initialize",
      "outputs": [],
      "stateMutability": "nonpayable",
      "type": "function"
    },
    {
      "inputs": [
        {
          "internalType": "string",
          "name": "_cURI",
          "type": "string"
        }
      ],
      "name": "initialize",
      "outputs": [],
      "stateMutability": "nonpayable",
      "type": "function"
    },
    {
      "inputs": [
        {
          "internalType": "bytes4",
          "name": "interfaceId",
          "type": "bytes4"
        }
      ],
      "name": "supportsInterface",
      "outputs": [
        {
          "internalType": "bool",
          "name": "",
          "type": "bool"
        }
      ],
      "stateMutability": "view",
      "type": "function"
    }
  ],
  "bytecode": "0x6080604052600060cc553480156200001657600080fd5b50600160658190555061b152806200002f6000396000f3fe608060405234801561001057600080fd5b50600436106102d55760003560e01c80638129fc1c11610182578063bb3bafd6116100e9578063e92a89f6116100a2578063f242432a1161007c578063f242432a146108e1578063f2fde38b146108fd578063f62d188814610919578063feeb5a9a14610935576102d5565b8063e92a89f614610879578063e985e9c514610895578063f0cdc499146108c5576102d5565b8063bb3bafd614610791578063bd85b039146107c2578063ce8aee9d146107f2578063d5a06d4c1461080e578063e6c884dc1461083f578063e8a3d4851461085b576102d5565b806399e0dd7c1161013b57806399e0dd7c146106d5578063a22cb465146106f1578063aafb2d441461070d578063ac0c8cfa14610729578063b0fe87c914610745578063b9c4d9fb14610761576102d5565b80638129fc1c1461062757806382dcc0c81461063157806383b7db631461064d5780638c6e84721461066b5780638da5cb5b1461069b578063938e3d7b146106b9576102d5565b806330176e13116102415780633f0f37f6116101fa57806366d1e9d0116101d457806366d1e9d0146105c9578063695c96e6146105e55780636d73e66914610601578063715018a61461061d576102d5565b80633f0f37f6146105615780634e1273f41461057d57806361e5bc6b146105ad576102d5565b806330176e13146104b75780633071a0f9146104d357806331ae450b146104ef578063332dd1ae1461050d5780633db0f8ab146105295780633e6134b814610545576102d5565b806320e4afe21161029357806320e4afe2146103d2578063239be317146103ee57806324d7806c1461041e5780632a55205a1461044e5780632d3456701461047f5780632eb2c2d61461049b576102d5565b8062fdd58e146102da57806301ffc9a71461030a57806302e7afb71461033a5780630e89341c146103565780630ebd4c7f14610386578063162094c4146103b6575b600080fd5b6102f460048036038101906102ef91906187c0565b610965565b6040516103019190619fa0565b60405180910390f35b610324600480360381019061031f9190618b37565b610a2f565b6040516103319190619a8d565b60405180910390f35b610354600480360381019061034f91906183b9565b610a51565b005b610370600480360381019061036b9190618cd0565b610aed565b60405161037d9190619ade565b60405180910390f35b6103a0600480360381019061039b9190618cd0565b610aff565b6040516103ad9190619a34565b60405180910390f35b6103d060048036038101906103cb9190618d92565b610b60565b005b6103ec60048036038101906103e79190618cfd565b610c00565b005b61040860048036038101906104039190618cd0565b610ca4565b6040516104159190619786565b60405180910390f35b610438600480360381019061043391906183b9565b610cb6565b6040516104459190619a8d565b60405180910390f35b61046860048036038101906104639190618df2565b610d10565b604051610476929190619955565b60405180910390f35b610499600480360381019061049491906183b9565b610d28565b005b6104b560048036038101906104b09190618426565b610e30565b005b6104d160048036038101906104cc9190618b91565b610ed1565b005b6104ed60048036038101906104e891906186ec565b610fb2565b005b6104f76110aa565b604051610504919061997e565b60405180910390f35b610527600480360381019061052291906189e0565b61118c565b005b610543600480360381019061053e9190618621565b61122f565b005b61055f600480360381019061055a9190618b91565b6113b4565b005b61057b6004803603810190610576919061874c565b611417565b005b61059760048036038101906105929190618968565b61150f565b6040516105a49190619a34565b60405180910390f35b6105c760048036038101906105c29190618a61565b611628565b005b6105e360048036038101906105de9190618b91565b61172e565b005b6105ff60048036038101906105fa91906188b4565b61178f565b005b61061b600480360381019061061691906183b9565b611a28565b005b610625611b2f565b005b61062f611bb7565b005b61064b60048036038101906106469190618bde565b611c63565b005b610655611cc6565b604051610662919061997e565b60405180910390f35b61068560048036038101906106809190618800565b611da8565b6040516106929190619a34565b60405180910390f35b6106a3611ef9565b6040516106b09190619786565b60405180910390f35b6106d360048036038101906106ce9190618c3e565b611f23565b005b6106ef60048036038101906106ea9190618b91565b611f2f565b005b61070b600480360381019061070691906186ac565b611fcd565b005b61072760048036038101906107229190618a61565b611fe3565b005b610743600480360381019061073e9190618add565b612126565b005b61075f600480360381019061075a919061858c565b6122eb565b005b61077b60048036038101906107769190618cd0565b61238f565b60405161078891906199db565b60405180910390f35b6107ab60048036038101906107a69190618cd0565b612426565b6040516107b99291906199fd565b60405180910390f35b6107dc60048036038101906107d79190618cd0565b612515565b6040516107e99190619fa0565b60405180910390f35b61080c600480360381019061080791906183b9565b612532565b005b61082860048036038101906108239190618cd0565b6125ce565b6040516108369291906199fd565b60405180910390f35b610859600480360381019061085491906188b4565b6126bd565b005b610863612919565b6040516108709190619ade565b60405180910390f35b610893600480360381019061088e9190618d92565b6129ab565b005b6108af60048036038101906108aa91906183e6565b612a0e565b6040516108bc9190619a8d565b60405180910390f35b6108df60048036038101906108da91906183e6565b612aa2565b005b6108fb60048036038101906108f691906184f5565b612b40565b005b610917600480360381019061091291906183b9565b612be1565b005b610933600480360381019061092e9190618c3e565b612cd9565b005b61094f600480360381019061094a9190618800565b612d77565b60405161095c9190619a34565b60405180910390f35b60008073ffffffffffffffffffffffffffffffffffffffff168373ffffffffffffffffffffffffffffffffffffffff1614156109d6576040517f08c379a00000000000000000000000000000000000000000000000000000000081526004016109cd90619b80565b60405180910390fd5b609a600083815260200190815260200160002060008473ffffffffffffffffffffffffffffffffffffffff1673ffffffffffffffffffffffffffffffffffffffff16815260200190815260200160002054905092915050565b6000610a3a82612f05565b80610a4a5750610a4982612f37565b5b9050919050565b3373ffffffffffffffffffffffffffffffffffffffff16610a70611ef9565b73ffffffffffffffffffffffffffffffffffffffff161480610aa25750610aa1336066612fb190919063ffffffff16565b5b610ae1576040517f08c379a0000000000000000000000000000000000000000000000000000000008152600401610ad890619e60565b60405180910390fd5b610aea81612fe1565b50565b6060610af882613164565b9050919050565b6060610b0a826135e3565b805480602002602001604051908101604052809291908181526020018280548015610b5457602002820191906000526020600020905b815481526020019060010190808311610b40575b50505050509050919050565b3373ffffffffffffffffffffffffffffffffffffffff16610b7f611ef9565b73ffffffffffffffffffffffffffffffffffffffff161480610bb15750610bb0336066612fb190919063ffffffff16565b5b610bf0576040517f08c379a0000000000000000000000000000000000000000000000000000000008152600401610be790619e60565b60405180910390fd5b610bfb83838361375b565b505050565b3373ffffffffffffffffffffffffffffffffffffffff16610c1f611ef9565b73ffffffffffffffffffffffffffffffffffffffff161480610c515750610c50336066612fb190919063ffffffff16565b5b610c90576040517f08c379a0000000000000000000000000000000000000000000000000000000008152600401610c8790619e60565b60405180910390fd5b610c9d8585858585613824565b5050505050565b6000610caf8261398a565b9050919050565b60008173ffffffffffffffffffffffffffffffffffffffff16610cd7611ef9565b73ffffffffffffffffffffffffffffffffffffffff161480610d095750610d08826066612fb190919063ffffffff16565b5b9050919050565b600080610d1d8484613a8a565b915091509250929050565b610d30613b87565b73ffffffffffffffffffffffffffffffffffffffff16610d4e611ef9565b73ffffffffffffffffffffffffffffffffffffffff1614610da4576040517f08c379a0000000000000000000000000000000000000000000000000000000008152600401610d9b90619da0565b60405180910390fd5b610db8816066612fb190919063ffffffff16565b15610e2d573373ffffffffffffffffffffffffffffffffffffffff168173ffffffffffffffffffffffffffffffffffffffff167f7c0c3c84c67c85fcac635147348bfe374c24a1a93d0366d1cfe9d8853cbf89d560405160405180910390a3610e2b816066613b8f90919063ffffffff16565b505b50565b610e38613b87565b73ffffffffffffffffffffffffffffffffffffffff168573ffffffffffffffffffffffffffffffffffffffff161480610e7e5750610e7d85610e78613b87565b612a0e565b5b610ebd576040517f08c379a0000000000000000000000000000000000000000000000000000000008152600401610eb490619cc0565b60405180910390fd5b610eca8585858585613bbf565b5050505050565b3373ffffffffffffffffffffffffffffffffffffffff16610ef0611ef9565b73ffffffffffffffffffffffffffffffffffffffff161480610f225750610f21336066612fb190919063ffffffff16565b5b610f61576040517f08c379a0000000000000000000000000000000000000000000000000000000008152600401610f5890619e60565b60405180910390fd5b610fae82828080601f016020809104026020016040519081016040528093929190818152602001838380828437600081840152601f19601f82011690508083019250505050505050613ee4565b5050565b3373ffffffffffffffffffffffffffffffffffffffff16610fd1611ef9565b73ffffffffffffffffffffffffffffffffffffffff1614806110035750611002336066612fb190919063ffffffff16565b5b611042576040517f08c379a000000000000000000000000000000000000000000000000000000000815260040161103990619e60565b60405180910390fd5b826110578160cf612fb190919063ffffffff16565b15611097576040517f08c379a000000000000000000000000000000000000000000000000000000000815260040161108e90619c20565b60405180910390fd5b6110a48484846000613f3b565b50505050565b60606110b6606661413c565b67ffffffffffffffff8111156110cf576110ce61a667565b5b6040519080825280602002602001820160405280156110fd5781602001602082028036833780820191505090505b50905060005b61110d606661413c565b8110156111885761112881606661415190919063ffffffff16565b82828151811061113b5761113a61a638565b5b602002602001019073ffffffffffffffffffffffffffffffffffffffff16908173ffffffffffffffffffffffffffffffffffffffff168152505080806111809061a502565b915050611103565b5090565b3373ffffffffffffffffffffffffffffffffffffffff166111ab611ef9565b73ffffffffffffffffffffffffffffffffffffffff1614806111dd57506111dc336066612fb190919063ffffffff16565b5b61121c576040517f08c379a000000000000000000000000000000000000000000000000000000000815260040161121390619e60565b60405180910390fd5b611229308585858561416b565b50505050565b60026065541415611275576040517f08c379a000000000000000000000000000000000000000000000000000000000815260040161126c90619f80565b60405180910390fd5b60026065819055503373ffffffffffffffffffffffffffffffffffffffff168373ffffffffffffffffffffffffffffffffffffffff1614806112bd57506112bc8333612a0e565b5b6112fc576040517f08c379a00000000000000000000000000000000000000000000000000000000081526004016112f390619e40565b60405180910390fd5b8051825114611340576040517f08c379a000000000000000000000000000000000000000000000000000000000815260040161133790619de0565b60405180910390fd5b6001825114156113905761138b83836000815181106113625761136161a638565b5b60200260200101518360008151811061137e5761137d61a638565b5b60200260200101516143b6565b61139c565b61139b8383836143f0565b5b6113a783838361447c565b6001606581905550505050565b6113c83360cd612fb190919063ffffffff16565b611407576040517f08c379a00000000000000000000000000000000000000000000000000000000081526004016113fe90619c60565b60405180910390fd5b611413828260006146c7565b5050565b3373ffffffffffffffffffffffffffffffffffffffff16611436611ef9565b73ffffffffffffffffffffffffffffffffffffffff1614806114685750611467336066612fb190919063ffffffff16565b5b6114a7576040517f08c379a000000000000000000000000000000000000000000000000000000000815260040161149e90619e60565b60405180910390fd5b836114bc8160cf612fb190919063ffffffff16565b156114fc576040517f08c379a00000000000000000000000000000000000000000000000000000000081526004016114f390619c20565b60405180910390fd5b61150885858585613f3b565b5050505050565b60608151835114611555576040517f08c379a000000000000000000000000000000000000000000000000000000000815260040161154c90619f20565b60405180910390fd5b6000835167ffffffffffffffff8111156115725761157161a667565b5b6040519080825280602002602001820160405280156115a05781602001602082028036833780820191505090505b50905060005b845181101561161d576115ed8582815181106115c5576115c461a638565b5b60200260200101518583815181106115e0576115df61a638565b5b6020026020010151610965565b828281518110611600576115ff61a638565b5b602002602001018181525050806116169061a502565b90506115a6565b508091505092915050565b61163c3360cd612fb190919063ffffffff16565b61167b576040517f08c379a000000000000000000000000000000000000000000000000000000000815260040161167290619c60565b60405180910390fd5b818190508351146116c1576040517f08c379a00000000000000000000000000000000000000000000000000000000081526004016116b890619de0565b60405180910390fd5b60005b8351811015611728576117158482815181106116e3576116e261a638565b5b60200260200101518484848181106116fe576116fd61a638565b5b90506020028101906117109190619fe4565b614772565b80806117209061a502565b9150506116c4565b50505050565b6117423360cd612fb190919063ffffffff16565b611781576040517f08c379a000000000000000000000000000000000000000000000000000000000815260040161177890619c60565b60405180910390fd5b61178b828261483b565b5050565b600260655414156117d5576040517f08c379a00000000000000000000000000000000000000000000000000000000081526004016117cc90619f80565b60405180910390fd5b60026065819055503373ffffffffffffffffffffffffffffffffffffffff166117fc611ef9565b73ffffffffffffffffffffffffffffffffffffffff16148061182e575061182d336066612fb190919063ffffffff16565b5b61186d576040517f08c379a000000000000000000000000000000000000000000000000000000000815260040161186490619e60565b60405180910390fd5b60005b84849050811015611948573073ffffffffffffffffffffffffffffffffffffffff1660d360008787858181106118a9576118a861a638565b5b90506020020135815260200190815260200160002060009054906101000a900473ffffffffffffffffffffffffffffffffffffffff1673ffffffffffffffffffffffffffffffffffffffff1614611935576040517f08c379a000000000000000000000000000000000000000000000000000000000815260040161192c90619ee0565b60405180910390fd5b80806119409061a502565b915050611870565b50611a1830878780806020026020016040519081016040528093929190818152602001838360200280828437600081840152601f19601f82011690508083019250505050505050868680806020026020016040519081016040528093929190818152602001838360200280828437600081840152601f19601f82011690508083019250505050505050858580806020026020016040519081016040528093929190818152602001838360200280828437600081840152601f19601f8201169050808301925050505050505061488e565b6001606581905550505050505050565b611a30613b87565b73ffffffffffffffffffffffffffffffffffffffff16611a4e611ef9565b73ffffffffffffffffffffffffffffffffffffffff1614611aa4576040517f08c379a0000000000000000000000000000000000000000000000000000000008152600401611a9b90619da0565b60405180910390fd5b611ab8816066612fb190919063ffffffff16565b611b2c573373ffffffffffffffffffffffffffffffffffffffff168173ffffffffffffffffffffffffffffffffffffffff167f7e1a1a08d52e4ba0e21554733d66165fd5151f99460116223d9e3a608eec5cb160405160405180910390a3611b2a816066614d2190919063ffffffff16565b505b50565b611b37613b87565b73ffffffffffffffffffffffffffffffffffffffff16611b55611ef9565b73ffffffffffffffffffffffffffffffffffffffff1614611bab576040517f08c379a0000000000000000000000000000000000000000000000000000000008152600401611ba290619da0565b60405180910390fd5b611bb56000614d51565b565b6000611bc36001614e17565b90508015611be7576001600060016101000a81548160ff0219169083151502179055505b611bff60405180602001604052806000815250614f07565b611c07614f62565b8015611c605760008060016101000a81548160ff0219169083151502179055507f7f26b83ff96e1f2b6a682f133852f6798a09c465da95921460cefb38474024986001604051611c579190619ac3565b60405180910390a15b50565b611c773360cd612fb190919063ffffffff16565b611cb6576040517f08c379a0000000000000000000000000000000000000000000000000000000008152600401611cad90619c60565b60405180910390fd5b611cc18383836146c7565b505050565b6060611cd260cd61413c565b67ffffffffffffffff811115611ceb57611cea61a667565b5b604051908082528060200260200182016040528015611d195781602001602082028036833780820191505090505b50905060005b611d2960cd61413c565b811015611da457611d448160cd61415190919063ffffffff16565b828281518110611d5757611d5661a638565b5b602002602001019073ffffffffffffffffffffffffffffffffffffffff16908173ffffffffffffffffffffffffffffffffffffffff16815250508080611d9c9061a502565b915050611d1f565b5090565b606060026065541415611df0576040517f08c379a0000000000000000000000000000000000000000000000000000000008152600401611de790619f80565b60405180910390fd5b6002606581905550611e0c3360cd612fb190919063ffffffff16565b611e4b576040517f08c379a0000000000000000000000000000000000000000000000000000000008152600401611e4290619c60565b60405180910390fd5b611ee533888880806020026020016040519081016040528093929190818152602001838360200280828437600081840152601f19601f82011690508083019250505050505050878780806020026020016040519081016040528093929190818152602001838360200280828437600081840152601f19601f82011690508083019250505050505050868690611ee0919061a436565b614fbb565b905060016065819055509695505050505050565b6000603360009054906101000a900473ffffffffffffffffffffffffffffffffffffffff16905090565b611f2c816155a1565b50565b3373ffffffffffffffffffffffffffffffffffffffff16611f4e611ef9565b73ffffffffffffffffffffffffffffffffffffffff161480611f805750611f7f336066612fb190919063ffffffff16565b5b611fbf576040517f08c379a0000000000000000000000000000000000000000000000000000000008152600401611fb690619e60565b60405180910390fd5b611fc982826155bb565b5050565b611fdf611fd8613b87565b838361560e565b5050565b3373ffffffffffffffffffffffffffffffffffffffff16612002611ef9565b73ffffffffffffffffffffffffffffffffffffffff1614806120345750612033336066612fb190919063ffffffff16565b5b612073576040517f08c379a000000000000000000000000000000000000000000000000000000000815260040161206a90619e60565b60405180910390fd5b818190508351146120b9576040517f08c379a00000000000000000000000000000000000000000000000000000000081526004016120b090619de0565b60405180910390fd5b60005b83518110156121205761210d8482815181106120db576120da61a638565b5b60200260200101518484848181106120f6576120f561a638565b5b90506020028101906121089190619fe4565b61375b565b80806121189061a502565b9150506120bc565b50505050565b61213a3360cd612fb190919063ffffffff16565b612179576040517f08c379a000000000000000000000000000000000000000000000000000000000815260040161217090619c60565b60405180910390fd5b8015806121ac57506121ab337f93a80b140000000000000000000000000000000000000000000000000000000061577b565b5b6121eb576040517f08c379a00000000000000000000000000000000000000000000000000000000081526004016121e290619c80565b60405180910390fd5b80151560d260003373ffffffffffffffffffffffffffffffffffffffff1673ffffffffffffffffffffffffffffffffffffffff16815260200190815260200160002060009054906101000a900460ff161515146122e8578060d260003373ffffffffffffffffffffffffffffffffffffffff1673ffffffffffffffffffffffffffffffffffffffff16815260200190815260200160002060006101000a81548160ff0219169083151502179055503373ffffffffffffffffffffffffffffffffffffffff167f072a7592283e2c2d1d56d21517ff6013325e0f55483f4828373ff4d98b0a1a36826040516122df9190619a8d565b60405180910390a25b50565b3373ffffffffffffffffffffffffffffffffffffffff1661230a611ef9565b73ffffffffffffffffffffffffffffffffffffffff16148061233c575061233b336066612fb190919063ffffffff16565b5b61237b576040517f08c379a000000000000000000000000000000000000000000000000000000000815260040161237290619e60565b60405180910390fd5b612388858585858561416b565b5050505050565b606061239a826157a0565b80548060200260200160405190810160405280929190818152602001828054801561241a57602002820191906000526020600020905b8160009054906101000a900473ffffffffffffffffffffffffffffffffffffffff1673ffffffffffffffffffffffffffffffffffffffff16815260200190600101908083116123d0575b50505050509050919050565b60608061243283615918565b818054806020026020016040519081016040528092919081815260200182805480156124b357602002820191906000526020600020905b8160009054906101000a900473ffffffffffffffffffffffffffffffffffffffff1673ffffffffffffffffffffffffffffffffffffffff1681526020019060010190808311612469575b505050505091508080548060200260200160405190810160405280929190818152602001828054801561250557602002820191906000526020600020905b8154815260200190600101908083116124f1575b5050505050905091509150915091565b600060dc6000838152602001908152602001600020549050919050565b3373ffffffffffffffffffffffffffffffffffffffff16612551611ef9565b73ffffffffffffffffffffffffffffffffffffffff1614806125835750612582336066612fb190919063ffffffff16565b5b6125c2576040517f08c379a00000000000000000000000000000000000000000000000000000000081526004016125b990619e60565b60405180910390fd5b6125cb81615936565b50565b6060806125da83615918565b8180548060200260200160405190810160405280929190818152602001828054801561265b57602002820191906000526020600020905b8160009054906101000a900473ffffffffffffffffffffffffffffffffffffffff1673ffffffffffffffffffffffffffffffffffffffff1681526020019060010190808311612611575b50505050509150808054806020026020016040519081016040528092919081815260200182805480156126ad57602002820191906000526020600020905b815481526020019060010190808311612699575b5050505050905091509150915091565b60026065541415612703576040517f08c379a00000000000000000000000000000000000000000000000000000000081526004016126fa90619f80565b60405180910390fd5b600260658190555061271f3360cd612fb190919063ffffffff16565b61275e576040517f08c379a000000000000000000000000000000000000000000000000000000000815260040161275590619c60565b60405180910390fd5b60005b84849050811015612839573373ffffffffffffffffffffffffffffffffffffffff1660d3600087878581811061279a5761279961a638565b5b90506020020135815260200190815260200160002060009054906101000a900473ffffffffffffffffffffffffffffffffffffffff1673ffffffffffffffffffffffffffffffffffffffff1614612826576040517f08c379a000000000000000000000000000000000000000000000000000000000815260040161281d90619e80565b60405180910390fd5b80806128319061a502565b915050612761565b5061290933878780806020026020016040519081016040528093929190818152602001838360200280828437600081840152601f19601f82011690508083019250505050505050868680806020026020016040519081016040528093929190818152602001838360200280828437600081840152601f19601f82011690508083019250505050505050858580806020026020016040519081016040528093929190818152602001838360200280828437600081840152601f19601f8201169050808301925050505050505061488e565b6001606581905550505050505050565b606060dd80546129289061a49f565b80601f01602080910402602001604051908101604052809291908181526020018280546129549061a49f565b80156129a15780601f10612976576101008083540402835291602001916129a1565b820191906000526020600020905b81548152906001019060200180831161298457829003601f168201915b5050505050905090565b6129bf3360cd612fb190919063ffffffff16565b6129fe576040517f08c379a00000000000000000000000000000000000000000000000000000000081526004016129f590619c60565b60405180910390fd5b612a09838383614772565b505050565b6000609b60008473ffffffffffffffffffffffffffffffffffffffff1673ffffffffffffffffffffffffffffffffffffffff16815260200190815260200160002060008373ffffffffffffffffffffffffffffffffffffffff1673ffffffffffffffffffffffffffffffffffffffff16815260200190815260200160002060009054906101000a900460ff16905092915050565b3373ffffffffffffffffffffffffffffffffffffffff16612ac1611ef9565b73ffffffffffffffffffffffffffffffffffffffff161480612af35750612af2336066612fb190919063ffffffff16565b5b612b32576040517f08c379a0000000000000000000000000000000000000000000000000000000008152600401612b2990619e60565b60405180910390fd5b612b3c82826159c2565b5050565b612b48613b87565b73ffffffffffffffffffffffffffffffffffffffff168573ffffffffffffffffffffffffffffffffffffffff161480612b8e5750612b8d85612b88613b87565b612a0e565b5b612bcd576040517f08c379a0000000000000000000000000000000000000000000000000000000008152600401612bc490619be0565b60405180910390fd5b612bda8585858585615c3b565b5050505050565b612be9613b87565b73ffffffffffffffffffffffffffffffffffffffff16612c07611ef9565b73ffffffffffffffffffffffffffffffffffffffff1614612c5d576040517f08c379a0000000000000000000000000000000000000000000000000000000008152600401612c5490619da0565b60405180910390fd5b600073ffffffffffffffffffffffffffffffffffffffff168173ffffffffffffffffffffffffffffffffffffffff161415612ccd576040517f08c379a0000000000000000000000000000000000000000000000000000000008152600401612cc490619ba0565b60405180910390fd5b612cd681614d51565b50565b6000612ce56001614e17565b90508015612d09576001600060016101000a81548160ff0219169083151502179055505b612d11611bb7565b612d1a82615eda565b8015612d735760008060016101000a81548160ff0219169083151502179055507f7f26b83ff96e1f2b6a682f133852f6798a09c465da95921460cefb38474024986001604051612d6a9190619ac3565b60405180910390a15b5050565b606060026065541415612dbf576040517f08c379a0000000000000000000000000000000000000000000000000000000008152600401612db690619f80565b60405180910390fd5b60026065819055503373ffffffffffffffffffffffffffffffffffffffff16612de6611ef9565b73ffffffffffffffffffffffffffffffffffffffff161480612e185750612e17336066612fb190919063ffffffff16565b5b612e57576040517f08c379a0000000000000000000000000000000000000000000000000000000008152600401612e4e90619e60565b60405180910390fd5b612ef130888880806020026020016040519081016040528093929190818152602001838360200280828437600081840152601f19601f82011690508083019250505050505050878780806020026020016040519081016040528093929190818152602001838360200280828437600081840152601f19601f82011690508083019250505050505050868690612eec919061a436565b614fbb565b905060016065819055509695505050505050565b6000612f1082615f70565b80612f205750612f1f82615fea565b5b80612f305750612f2f826160cc565b5b9050919050565b60007f7b2de9fe000000000000000000000000000000000000000000000000000000007bffffffffffffffffffffffffffffffffffffffffffffffffffffffff1916827bffffffffffffffffffffffffffffffffffffffffffffffffffffffff19161480612faa5750612fa982612f05565b5b9050919050565b6000612fd9836000018373ffffffffffffffffffffffffffffffffffffffff1660001b616146565b905092915050565b3073ffffffffffffffffffffffffffffffffffffffff168173ffffffffffffffffffffffffffffffffffffffff161415613050576040517f08c379a000000000000000000000000000000000000000000000000000000000815260040161304790619b40565b60405180910390fd5b6130648160cd612fb190919063ffffffff16565b156130d9573373ffffffffffffffffffffffffffffffffffffffff168173ffffffffffffffffffffffffffffffffffffffff167fd19cf84cf0fec6bec9ddfa29c63adf83a55707c712f32c8285d6180a7890147960405160405180910390a36130d78160cd613b8f90919063ffffffff16565b505b6130ed8160cf612fb190919063ffffffff16565b613161573373ffffffffffffffffffffffffffffffffffffffff168173ffffffffffffffffffffffffffffffffffffffff167f05ac7bc5a606cd92a63365f9fda244499b9add0526b22d99937b6bd88181059c60405160405180910390a361315f8160cf614d2190919063ffffffff16565b505b50565b6060600060d3600084815260200190815260200160002060009054906101000a900473ffffffffffffffffffffffffffffffffffffffff1690506131b28160cf612fb190919063ffffffff16565b156131f2576040517f08c379a00000000000000000000000000000000000000000000000000000000081526004016131e990619c20565b60405180910390fd5b600060d7600085815260200190815260200160002080546132129061a49f565b90501461338a57600060d660008373ffffffffffffffffffffffffffffffffffffffff1673ffffffffffffffffffffffffffffffffffffffff16815260200190815260200160002080546132659061a49f565b9050146132e65760d660008273ffffffffffffffffffffffffffffffffffffffff1673ffffffffffffffffffffffffffffffffffffffff16815260200190815260200160002060d760008581526020019081526020016000206040516020016132cf929190619762565b6040516020818303038152906040529150506135de565b60d7600084815260200190815260200160002080546133049061a49f565b80601f01602080910402602001604051908101604052809291908181526020018280546133309061a49f565b801561337d5780601f106133525761010080835404028352916020019161337d565b820191906000526020600020905b81548152906001019060200180831161336057829003601f168201915b50505050509150506135de565b6133b4817fe9dc63750000000000000000000000000000000000000000000000000000000061577b565b15613451578073ffffffffffffffffffffffffffffffffffffffff1663e9dc637530856040518363ffffffff1660e01b81526004016133f4929190619955565b60006040518083038186803b15801561340c57600080fd5b505afa158015613420573d6000803e3d6000fd5b505050506040513d6000823e3d601f19601f820116820180604052508101906134499190618c87565b9150506135de565b60d560008273ffffffffffffffffffffffffffffffffffffffff1673ffffffffffffffffffffffffffffffffffffffff16815260200190815260200160002060009054906101000a900460ff166135125760d460008273ffffffffffffffffffffffffffffffffffffffff1673ffffffffffffffffffffffffffffffffffffffff1681526020019081526020016000206134ea84616169565b6040516020016134fb92919061973e565b6040516020818303038152906040529150506135de565b60d460008273ffffffffffffffffffffffffffffffffffffffff1673ffffffffffffffffffffffffffffffffffffffff168152602001908152602001600020805461355c9061a49f565b80601f01602080910402602001604051908101604052809291908181526020018280546135889061a49f565b80156135d55780601f106135aa576101008083540402835291602001916135d5565b820191906000526020600020905b8154815290600101906020018083116135b857829003601f168201915b50505050509150505b919050565b60008060db600084815260200190815260200160002080549050111561361d5760db60008381526020019081526020016000209050613756565b600060d9600060d3600086815260200190815260200160002060009054906101000a900473ffffffffffffffffffffffffffffffffffffffff1673ffffffffffffffffffffffffffffffffffffffff1673ffffffffffffffffffffffffffffffffffffffff1681526020019081526020016000208054905011156137145760d9600060d3600085815260200190815260200160002060009054906101000a900473ffffffffffffffffffffffffffffffffffffffff1673ffffffffffffffffffffffffffffffffffffffff1673ffffffffffffffffffffffffffffffffffffffff1681526020019081526020016000209050613756565b60d960003073ffffffffffffffffffffffffffffffffffffffff1673ffffffffffffffffffffffffffffffffffffffff16815260200190815260200160002090505b919050565b3073ffffffffffffffffffffffffffffffffffffffff1660d3600085815260200190815260200160002060009054906101000a900473ffffffffffffffffffffffffffffffffffffffff1673ffffffffffffffffffffffffffffffffffffffff16146137fc576040517f08c379a00000000000000000000000000000000000000000000000000000000081526004016137f390619c40565b60405180910390fd5b818160d76000868152602001908152602001600020919061381e929190617c48565b50505050565b81819050848490501461386c576040517f08c379a000000000000000000000000000000000000000000000000000000000815260040161386390619de0565b60405180910390fd5b600080600090505b838390508110156138b9578383828181106138925761389161a638565b5b90506020020135826138a4919061a28e565b915080806138b19061a502565b915050613874565b5061271081106138fe576040517f08c379a00000000000000000000000000000000000000000000000000000000081526004016138f590619e00565b60405180910390fd5b848460da60008981526020019081526020016000209190613920929190617cce565b50828260db60008981526020019081526020016000209190613943929190617d6e565b50857fabb46fe0761d77584bde75697647804ffd8113abd4d8d06bc664150395eccdee8686868660405161397a94939291906199a0565b60405180910390a2505050505050565b600060d3600083815260200190815260200160002060009054906101000a900473ffffffffffffffffffffffffffffffffffffffff1690503073ffffffffffffffffffffffffffffffffffffffff168173ffffffffffffffffffffffffffffffffffffffff161415613a31576040517f08c379a0000000000000000000000000000000000000000000000000000000008152600401613a2890619dc0565b60405180910390fd5b613a458160cf612fb190919063ffffffff16565b15613a85576040517f08c379a0000000000000000000000000000000000000000000000000000000008152600401613a7c90619c20565b60405180910390fd5b919050565b6000806000613a98856157a0565b9050600181805490501115613ae2576040517f08c379a0000000000000000000000000000000000000000000000000000000008152600401613ad990619ce0565b60405180910390fd5b600081805490501415613afc573060009250925050613b80565b80600081548110613b1057613b0f61a638565b5b9060005260206000200160009054906101000a900473ffffffffffffffffffffffffffffffffffffffff1661271085613b48886135e3565b600081548110613b5b57613b5a61a638565b5b9060005260206000200154613b70919061a315565b613b7a919061a2e4565b92509250505b9250929050565b600033905090565b6000613bb7836000018373ffffffffffffffffffffffffffffffffffffffff1660001b6162ca565b905092915050565b8151835114613c03576040517f08c379a0000000000000000000000000000000000000000000000000000000008152600401613bfa90619f40565b60405180910390fd5b600073ffffffffffffffffffffffffffffffffffffffff168473ffffffffffffffffffffffffffffffffffffffff161415613c73576040517f08c379a0000000000000000000000000000000000000000000000000000000008152600401613c6a90619ca0565b60405180910390fd5b6000613c7d613b87565b9050613c8d8187878787876163de565b60005b8451811015613e41576000858281518110613cae57613cad61a638565b5b602002602001015190506000858381518110613ccd57613ccc61a638565b5b602002602001015190506000609a600084815260200190815260200160002060008b73ffffffffffffffffffffffffffffffffffffffff1673ffffffffffffffffffffffffffffffffffffffff16815260200190815260200160002054905081811015613d6f576040517f08c379a0000000000000000000000000000000000000000000000000000000008152600401613d6690619d40565b60405180910390fd5b818103609a600085815260200190815260200160002060008c73ffffffffffffffffffffffffffffffffffffffff1673ffffffffffffffffffffffffffffffffffffffff1681526020019081526020016000208190555081609a600085815260200190815260200160002060008b73ffffffffffffffffffffffffffffffffffffffff1673ffffffffffffffffffffffffffffffffffffffff1681526020019081526020016000206000828254613e26919061a28e565b9250508190555050505080613e3a9061a502565b9050613c90565b508473ffffffffffffffffffffffffffffffffffffffff168673ffffffffffffffffffffffffffffffffffffffff168273ffffffffffffffffffffffffffffffffffffffff167f4a39dc06d4c0dbc64b70af90fd698a233a518aa5d07e595d983b8c0526c8f7fb8787604051613eb8929190619a56565b60405180910390a4613ece8187878787876163f2565b613edc8187878787876163fa565b505050505050565b8060d460003073ffffffffffffffffffffffffffffffffffffffff1673ffffffffffffffffffffffffffffffffffffffff1681526020019081526020016000209080519060200190613f37929190617dbb565b5050565b3073ffffffffffffffffffffffffffffffffffffffff168473ffffffffffffffffffffffffffffffffffffffff161415613faa576040517f08c379a0000000000000000000000000000000000000000000000000000000008152600401613fa190619ec0565b60405180910390fd5b613fc98473ffffffffffffffffffffffffffffffffffffffff166165e1565b614008576040517f08c379a0000000000000000000000000000000000000000000000000000000008152600401613fff90619d60565b60405180910390fd5b61401c8460cd612fb190919063ffffffff16565b61413657828260d460008773ffffffffffffffffffffffffffffffffffffffff1673ffffffffffffffffffffffffffffffffffffffff168152602001908152602001600020919061406e929190617c48565b508060d560008673ffffffffffffffffffffffffffffffffffffffff1673ffffffffffffffffffffffffffffffffffffffff16815260200190815260200160002060006101000a81548160ff0219169083151502179055503373ffffffffffffffffffffffffffffffffffffffff168473ffffffffffffffffffffffffffffffffffffffff167fd8cb8ba4086944eabf43c5535b7712015e4d4c714b24bf812c040ea5b7a3e42a60405160405180910390a36141348460cd614d2190919063ffffffff16565b505b50505050565b600061414a82600001616604565b9050919050565b60006141608360000183616615565b60001c905092915050565b8181905084849050146141b3576040517f08c379a00000000000000000000000000000000000000000000000000000000081526004016141aa90619de0565b60405180910390fd5b600080600090505b83839050811015614200578383828181106141d9576141d861a638565b5b90506020020135826141eb919061a28e565b915080806141f89061a502565b9150506141bb565b506127108110614245576040517f08c379a000000000000000000000000000000000000000000000000000000000815260040161423c90619e00565b60405180910390fd5b848460d860008973ffffffffffffffffffffffffffffffffffffffff1673ffffffffffffffffffffffffffffffffffffffff1681526020019081526020016000209190614293929190617cce565b50828260d960008973ffffffffffffffffffffffffffffffffffffffff1673ffffffffffffffffffffffffffffffffffffffff16815260200190815260200160002091906142e2929190617d6e565b503073ffffffffffffffffffffffffffffffffffffffff168673ffffffffffffffffffffffffffffffffffffffff161415614359577f2b6849d5976d799a5b0ca4dfd6b40a3d7afe9ea72c091fa01a958594f9a2659b8585858560405161434c94939291906199a0565b60405180910390a16143ae565b8573ffffffffffffffffffffffffffffffffffffffff167f535a93d2cb000582c0ebeaa9be4890ec6a287f98eb2df00c54c300612fd78d8f868686866040516143a594939291906199a0565b60405180910390a25b505050505050565b6143c1838383616640565b8060dc600084815260200190815260200160002060008282546143e4919061a36f565b92505081905550505050565b6143fb838383616889565b60005b82518110156144765781818151811061441a5761441961a638565b5b602002602001015160dc60008584815181106144395761443861a638565b5b60200260200101518152602001908152602001600020600082825461445e919061a36f565b925050819055508061446f9061a502565b90506143fe565b50505050565b60008251116144c0576040517f08c379a00000000000000000000000000000000000000000000000000000000081526004016144b790619de0565b60405180910390fd5b600060d36000846000815181106144da576144d961a638565b5b6020026020010151815260200190815260200160002060009054906101000a900473ffffffffffffffffffffffffffffffffffffffff16905060005b83518110156145ed578173ffffffffffffffffffffffffffffffffffffffff1660d3600086848151811061454d5761454c61a638565b5b6020026020010151815260200190815260200160002060009054906101000a900473ffffffffffffffffffffffffffffffffffffffff1673ffffffffffffffffffffffffffffffffffffffff16146145da576040517f08c379a00000000000000000000000000000000000000000000000000000000081526004016145d190619d80565b60405180910390fd5b80806145e59061a502565b915050614516565b503073ffffffffffffffffffffffffffffffffffffffff168173ffffffffffffffffffffffffffffffffffffffff16146146c15761464b817f7b8deca00000000000000000000000000000000000000000000000000000000061577b565b156146c0578073ffffffffffffffffffffffffffffffffffffffff16637b8deca08585856040518463ffffffff1660e01b815260040161468d93929190619910565b600060405180830381600087803b1580156146a757600080fd5b505af11580156146bb573d6000803e3d6000fd5b505050505b5b50505050565b828260d460003373ffffffffffffffffffffffffffffffffffffffff1673ffffffffffffffffffffffffffffffffffffffff1681526020019081526020016000209190614715929190617c48565b508060d560003373ffffffffffffffffffffffffffffffffffffffff1673ffffffffffffffffffffffffffffffffffffffff16815260200190815260200160002060006101000a81548160ff021916908315150217905550505050565b3373ffffffffffffffffffffffffffffffffffffffff1660d3600085815260200190815260200160002060009054906101000a900473ffffffffffffffffffffffffffffffffffffffff1673ffffffffffffffffffffffffffffffffffffffff1614614813576040517f08c379a000000000000000000000000000000000000000000000000000000000815260040161480a90619c40565b60405180910390fd5b818160d760008681526020019081526020016000209190614835929190617c48565b50505050565b818160d660003373ffffffffffffffffffffffffffffffffffffffff1673ffffffffffffffffffffffffffffffffffffffff1681526020019081526020016000209190614889929190617c48565b505050565b3073ffffffffffffffffffffffffffffffffffffffff168473ffffffffffffffffffffffffffffffffffffffff16146148cd576148cc838383616b5a565b5b600183511480156148df575060018251145b80156148ec575060018151145b156149a05761499b836000815181106149085761490761a638565b5b6020026020010151836000815181106149245761492361a638565b5b6020026020010151836000815181106149405761493f61a638565b5b6020026020010151600067ffffffffffffffff8111156149635761496261a667565b5b6040519080825280601f01601f1916602001820160405280156149955781602001600182028036833780820191505090505b50616cc3565b614d1b565b600183511480156149b2575080518251145b15614a3057614a2b836000815181106149ce576149cd61a638565b5b60200260200101518383600067ffffffffffffffff8111156149f3576149f261a667565b5b6040519080825280601f01601f191660200182016040528015614a255781602001600182028036833780820191505090505b50616cff565b614d1a565b60018251148015614a42575060018151145b15614b155760005b8351811015614b0f57614afc848281518110614a6957614a6861a638565b5b602002602001015184600081518110614a8557614a8461a638565b5b602002602001015184600081518110614aa157614aa061a638565b5b6020026020010151600067ffffffffffffffff811115614ac457614ac361a667565b5b6040519080825280601f01601f191660200182016040528015614af65781602001600182028036833780820191505090505b50616cc3565b8080614b079061a502565b915050614a4a565b50614d19565b60018251148015614b27575080518351145b15614bf95760005b8351811015614bf357614be0848281518110614b4e57614b4d61a638565b5b602002602001015184600081518110614b6a57614b6961a638565b5b6020026020010151848481518110614b8557614b8461a638565b5b6020026020010151600067ffffffffffffffff811115614ba857614ba761a667565b5b6040519080825280601f01601f191660200182016040528015614bda5781602001600182028036833780820191505090505b50616cc3565b8080614beb9061a502565b915050614b2f565b50614d18565b81518351148015614c0b575080518351145b15614cdc5760005b8351811015614cd657614cc3848281518110614c3257614c3161a638565b5b6020026020010151848381518110614c4d57614c4c61a638565b5b6020026020010151848481518110614c6857614c6761a638565b5b6020026020010151600067ffffffffffffffff811115614c8b57614c8a61a667565b5b6040519080825280601f01601f191660200182016040528015614cbd5781602001600182028036833780820191505090505b50616cc3565b8080614cce9061a502565b915050614c13565b50614d17565b6040517f08c379a0000000000000000000000000000000000000000000000000000000008152600401614d0e90619de0565b60405180910390fd5b5b5b5b5b50505050565b6000614d49836000018373ffffffffffffffffffffffffffffffffffffffff1660001b616d8d565b905092915050565b6000603360009054906101000a900473ffffffffffffffffffffffffffffffffffffffff16905081603360006101000a81548173ffffffffffffffffffffffffffffffffffffffff021916908373ffffffffffffffffffffffffffffffffffffffff1602179055508173ffffffffffffffffffffffffffffffffffffffff168173ffffffffffffffffffffffffffffffffffffffff167f8be0079c531659141344cd1fd0a4f28419497f9722a3daafe3b4186f6b6457e060405160405180910390a35050565b60008060019054906101000a900460ff1615614e8e5760018260ff16148015614e465750614e44306165e1565b155b614e85576040517f08c379a0000000000000000000000000000000000000000000000000000000008152600401614e7c90619d00565b60405180910390fd5b60009050614f02565b8160ff1660008054906101000a900460ff1660ff1610614ee3576040517f08c379a0000000000000000000000000000000000000000000000000000000008152600401614eda90619d00565b60405180910390fd5b816000806101000a81548160ff021916908360ff160217905550600190505b919050565b600060019054906101000a900460ff16614f56576040517f08c379a0000000000000000000000000000000000000000000000000000000008152600401614f4d90619ea0565b60405180910390fd5b614f5f81616dfd565b50565b600060019054906101000a900460ff16614fb1576040517f08c379a0000000000000000000000000000000000000000000000000000000008152600401614fa890619ea0565b60405180910390fd5b614fb9616e58565b565b606060018451111561507657600167ffffffffffffffff811115614fe257614fe161a667565b5b6040519080825280602002602001820160405280156150105781602001602082028036833780820191505090505b50905060018251111580156150325750600183511480615031575082518451145b5b615071576040517f08c379a000000000000000000000000000000000000000000000000000000000815260040161506890619de0565b60405180910390fd5b615113565b825167ffffffffffffffff8111156150915761509061a667565b5b6040519080825280602002602001820160405280156150bf5781602001602082028036833780820191505090505b5090506000825114806150d3575081518351145b615112576040517f08c379a000000000000000000000000000000000000000000000000000000000815260040161510990619de0565b60405180910390fd5b5b60005b81518110156151c05760cc60008154809291906151329061a502565b919050555060cc5482828151811061514d5761514c61a638565b5b6020026020010181815250508560d3600060cc54815260200190815260200160002060006101000a81548173ffffffffffffffffffffffffffffffffffffffff021916908373ffffffffffffffffffffffffffffffffffffffff16021790555080806151b89061a502565b915050615116565b503073ffffffffffffffffffffffffffffffffffffffff168573ffffffffffffffffffffffffffffffffffffffff1614615200576151ff848285616b5a565b5b60018451148015615212575060018151145b156152c6576152c18460008151811061522e5761522d61a638565b5b60200260200101518260008151811061524a5761524961a638565b5b6020026020010151856000815181106152665761526561a638565b5b6020026020010151600067ffffffffffffffff8111156152895761528861a667565b5b6040519080825280601f01601f1916602001820160405280156152bb5781602001600182028036833780820191505090505b50616cc3565b6154ec565b600184511115615476576001835114156153a85760005b84518110156153a25761538f8582815181106152fc576152fb61a638565b5b6020026020010151836000815181106153185761531761a638565b5b6020026020010151866000815181106153345761533361a638565b5b6020026020010151600067ffffffffffffffff8111156153575761535661a667565b5b6040519080825280601f01601f1916602001820160405280156153895781602001600182028036833780820191505090505b50616cc3565b808061539a9061a502565b9150506152dd565b50615471565b60005b845181101561546f5761545c8582815181106153ca576153c961a638565b5b6020026020010151836000815181106153e6576153e561a638565b5b60200260200101518684815181106154015761540061a638565b5b6020026020010151600067ffffffffffffffff8111156154245761542361a667565b5b6040519080825280601f01601f1916602001820160405280156154565781602001600182028036833780820191505090505b50616cc3565b80806154679061a502565b9150506153ab565b505b6154eb565b6154ea8460008151811061548d5761548c61a638565b5b60200260200101518285600067ffffffffffffffff8111156154b2576154b161a667565b5b6040519080825280601f01601f1916602001820160405280156154e45781602001600182028036833780820191505090505b50616cff565b5b5b60005b815181101561559857825181108015615523575060008382815181106155185761551761a638565b5b602002602001015151115b156155855782818151811061553b5761553a61a638565b5b602002602001015160d7600084848151811061555a5761555961a638565b5b602002602001015181526020019081526020016000209080519060200190615583929190617dbb565b505b80806155909061a502565b9150506154ef565b50949350505050565b8060dd90805190602001906155b7929190617dbb565b5050565b818160d660003073ffffffffffffffffffffffffffffffffffffffff1673ffffffffffffffffffffffffffffffffffffffff1681526020019081526020016000209190615609929190617c48565b505050565b8173ffffffffffffffffffffffffffffffffffffffff168373ffffffffffffffffffffffffffffffffffffffff16141561567d576040517f08c379a000000000000000000000000000000000000000000000000000000000815260040161567490619f00565b60405180910390fd5b80609b60008573ffffffffffffffffffffffffffffffffffffffff1673ffffffffffffffffffffffffffffffffffffffff16815260200190815260200160002060008473ffffffffffffffffffffffffffffffffffffffff1673ffffffffffffffffffffffffffffffffffffffff16815260200190815260200160002060006101000a81548160ff0219169083151502179055508173ffffffffffffffffffffffffffffffffffffffff168373ffffffffffffffffffffffffffffffffffffffff167f17307eab39ab6107e8899845ad3d59bd9653f200f220920489ca2b5937696c318360405161576e9190619a8d565b60405180910390a3505050565b600061578683616eb9565b801561579857506157978383616f06565b5b905092915050565b60008060da60008481526020019081526020016000208054905011156157da5760da60008381526020019081526020016000209050615913565b600060d8600060d3600086815260200190815260200160002060009054906101000a900473ffffffffffffffffffffffffffffffffffffffff1673ffffffffffffffffffffffffffffffffffffffff1673ffffffffffffffffffffffffffffffffffffffff1681526020019081526020016000208054905011156158d15760d8600060d3600085815260200190815260200160002060009054906101000a900473ffffffffffffffffffffffffffffffffffffffff1673ffffffffffffffffffffffffffffffffffffffff1673ffffffffffffffffffffffffffffffffffffffff1681526020019081526020016000209050615913565b60d860003073ffffffffffffffffffffffffffffffffffffffff1673ffffffffffffffffffffffffffffffffffffffff16815260200190815260200160002090505b919050565b600080615924836157a0565b61592d846135e3565b91509150915091565b61594a8160cd612fb190919063ffffffff16565b156159bf573373ffffffffffffffffffffffffffffffffffffffff168173ffffffffffffffffffffffffffffffffffffffff167fd19cf84cf0fec6bec9ddfa29c63adf83a55707c712f32c8285d6180a7890147960405160405180910390a36159bd8160cd613b8f90919063ffffffff16565b505b50565b6159d68260cd612fb190919063ffffffff16565b615a15576040517f08c379a0000000000000000000000000000000000000000000000000000000008152600401615a0c90619c00565b60405180910390fd5b600073ffffffffffffffffffffffffffffffffffffffff168173ffffffffffffffffffffffffffffffffffffffff161480615a765750615a75817ff1d4552e0000000000000000000000000000000000000000000000000000000061577b565b5b615ab5576040517f08c379a0000000000000000000000000000000000000000000000000000000008152600401615aac90619b60565b60405180910390fd5b8073ffffffffffffffffffffffffffffffffffffffff1660d160008473ffffffffffffffffffffffffffffffffffffffff1673ffffffffffffffffffffffffffffffffffffffff16815260200190815260200160002060009054906101000a900473ffffffffffffffffffffffffffffffffffffffff1673ffffffffffffffffffffffffffffffffffffffff1614615c37578060d160008473ffffffffffffffffffffffffffffffffffffffff1673ffffffffffffffffffffffffffffffffffffffff16815260200190815260200160002060006101000a81548173ffffffffffffffffffffffffffffffffffffffff021916908373ffffffffffffffffffffffffffffffffffffffff1602179055503373ffffffffffffffffffffffffffffffffffffffff168173ffffffffffffffffffffffffffffffffffffffff168373ffffffffffffffffffffffffffffffffffffffff167f6a835c4fcf7e0d398db3762332fdaa1471814ad39f1e2d6d0b3fdabf8efee3e060405160405180910390a45b5050565b600073ffffffffffffffffffffffffffffffffffffffff168473ffffffffffffffffffffffffffffffffffffffff161415615cab576040517f08c379a0000000000000000000000000000000000000000000000000000000008152600401615ca290619ca0565b60405180910390fd5b6000615cb5613b87565b90506000615cc285617031565b90506000615ccf85617031565b9050615cdf8389898585896163de565b6000609a600088815260200190815260200160002060008a73ffffffffffffffffffffffffffffffffffffffff1673ffffffffffffffffffffffffffffffffffffffff16815260200190815260200160002054905085811015615d77576040517f08c379a0000000000000000000000000000000000000000000000000000000008152600401615d6e90619d40565b60405180910390fd5b858103609a600089815260200190815260200160002060008b73ffffffffffffffffffffffffffffffffffffffff1673ffffffffffffffffffffffffffffffffffffffff1681526020019081526020016000208190555085609a600089815260200190815260200160002060008a73ffffffffffffffffffffffffffffffffffffffff1673ffffffffffffffffffffffffffffffffffffffff1681526020019081526020016000206000828254615e2e919061a28e565b925050819055508773ffffffffffffffffffffffffffffffffffffffff168973ffffffffffffffffffffffffffffffffffffffff168573ffffffffffffffffffffffffffffffffffffffff167fc3d58168c5ae7397731d063d5bbf3d657854427343f4c083240f7aacaa2d0f628a8a604051615eab929190619fbb565b60405180910390a4615ec1848a8a86868a6163f2565b615ecf848a8a8a8a8a6170ab565b505050505050505050565b6000615ee66001614e17565b90508015615f0a576001600060016101000a81548160ff0219169083151502179055505b615f1382617292565b8015615f6c5760008060016101000a81548160ff0219169083151502179055507f7f26b83ff96e1f2b6a682f133852f6798a09c465da95921460cefb38474024986001604051615f639190619ac3565b60405180910390a15b5050565b60007f7d248440000000000000000000000000000000000000000000000000000000007bffffffffffffffffffffffffffffffffffffffffffffffffffffffff1916827bffffffffffffffffffffffffffffffffffffffffffffffffffffffff19161480615fe35750615fe282617328565b5b9050919050565b60007fd9b67a26000000000000000000000000000000000000000000000000000000007bffffffffffffffffffffffffffffffffffffffffffffffffffffffff1916827bffffffffffffffffffffffffffffffffffffffffffffffffffffffff191614806160b557507f0e89341c000000000000000000000000000000000000000000000000000000007bffffffffffffffffffffffffffffffffffffffffffffffffffffffff1916827bffffffffffffffffffffffffffffffffffffffffffffffffffffffff1916145b806160c557506160c4826174de565b5b9050919050565b60007f553e757e000000000000000000000000000000000000000000000000000000007bffffffffffffffffffffffffffffffffffffffffffffffffffffffff1916827bffffffffffffffffffffffffffffffffffffffffffffffffffffffff1916148061613f575061613e82617548565b5b9050919050565b600080836001016000848152602001908152602001600020541415905092915050565b606060008214156161b1576040518060400160405280600181526020017f300000000000000000000000000000000000000000000000000000000000000081525090506162c5565b600082905060005b600082146161e35780806161cc9061a502565b915050600a826161dc919061a2e4565b91506161b9565b60008167ffffffffffffffff8111156161ff576161fe61a667565b5b6040519080825280601f01601f1916602001820160405280156162315781602001600182028036833780820191505090505b5090505b600085146162be5760018261624a919061a36f565b9150600a85616259919061a54b565b6030616265919061a28e565b60f81b81838151811061627b5761627a61a638565b5b60200101907effffffffffffffffffffffffffffffffffffffffffffffffffffffffffffff1916908160001a905350600a856162b7919061a2e4565b9450616235565b8093505050505b919050565b600080836001016000848152602001908152602001600020549050600081146163d25760006001826162fc919061a36f565b9050600060018660000180549050616314919061a36f565b90508181146163835760008660000182815481106163355761633461a638565b5b90600052602060002001549050808760000184815481106163595761635861a638565b5b90600052602060002001819055508387600101600083815260200190815260200160002081905550505b856000018054806163975761639661a609565b5b6001900381819060005260206000200160009055905585600101600086815260200190815260200160002060009055600193505050506163d8565b60009150505b92915050565b6163ea858585856175b2565b505050505050565b505050505050565b6164198473ffffffffffffffffffffffffffffffffffffffff166165e1565b156165d9578373ffffffffffffffffffffffffffffffffffffffff1663bc197c8187878686866040518663ffffffff1660e01b815260040161645f9594939291906197f4565b602060405180830381600087803b15801561647957600080fd5b505af19250505080156164aa57506040513d601f19601f820116820180604052508101906164a79190618b64565b60015b616550576164b661a696565b806308c379a0141561651357506164cb61b013565b806164d65750616515565b806040517f08c379a000000000000000000000000000000000000000000000000000000000815260040161650a9190619ade565b60405180910390fd5b505b6040517f08c379a000000000000000000000000000000000000000000000000000000000815260040161654790619b00565b60405180910390fd5b63bc197c8160e01b7bffffffffffffffffffffffffffffffffffffffffffffffffffffffff1916817bffffffffffffffffffffffffffffffffffffffffffffffffffffffff1916146165d7576040517f08c379a00000000000000000000000000000000000000000000000000000000081526004016165ce90619b20565b60405180910390fd5b505b505050505050565b6000808273ffffffffffffffffffffffffffffffffffffffff163b119050919050565b600081600001805490509050919050565b600082600001828154811061662d5761662c61a638565b5b9060005260206000200154905092915050565b600073ffffffffffffffffffffffffffffffffffffffff168373ffffffffffffffffffffffffffffffffffffffff1614156166b0576040517f08c379a00000000000000000000000000000000000000000000000000000000081526004016166a790619d20565b60405180910390fd5b60006166ba613b87565b905060006166c784617031565b905060006166d484617031565b90506166f4838760008585604051806020016040528060008152506163de565b6000609a600087815260200190815260200160002060008873ffffffffffffffffffffffffffffffffffffffff1673ffffffffffffffffffffffffffffffffffffffff1681526020019081526020016000205490508481101561678c576040517f08c379a000000000000000000000000000000000000000000000000000000000815260040161678390619bc0565b60405180910390fd5b848103609a600088815260200190815260200160002060008973ffffffffffffffffffffffffffffffffffffffff1673ffffffffffffffffffffffffffffffffffffffff16815260200190815260200160002081905550600073ffffffffffffffffffffffffffffffffffffffff168773ffffffffffffffffffffffffffffffffffffffff168573ffffffffffffffffffffffffffffffffffffffff167fc3d58168c5ae7397731d063d5bbf3d657854427343f4c083240f7aacaa2d0f62898960405161685a929190619fbb565b60405180910390a4616880848860008686604051806020016040528060008152506163f2565b50505050505050565b600073ffffffffffffffffffffffffffffffffffffffff168373ffffffffffffffffffffffffffffffffffffffff1614156168f9576040517f08c379a00000000000000000000000000000000000000000000000000000000081526004016168f090619d20565b60405180910390fd5b805182511461693d576040517f08c379a000000000000000000000000000000000000000000000000000000000815260040161693490619f40565b60405180910390fd5b6000616947613b87565b9050616967818560008686604051806020016040528060008152506163de565b60005b8351811015616ab65760008482815181106169885761698761a638565b5b6020026020010151905060008483815181106169a7576169a661a638565b5b602002602001015190506000609a600084815260200190815260200160002060008973ffffffffffffffffffffffffffffffffffffffff1673ffffffffffffffffffffffffffffffffffffffff16815260200190815260200160002054905081811015616a49576040517f08c379a0000000000000000000000000000000000000000000000000000000008152600401616a4090619bc0565b60405180910390fd5b818103609a600085815260200190815260200160002060008a73ffffffffffffffffffffffffffffffffffffffff1673ffffffffffffffffffffffffffffffffffffffff168152602001908152602001600020819055505050508080616aae9061a502565b91505061696a565b50600073ffffffffffffffffffffffffffffffffffffffff168473ffffffffffffffffffffffffffffffffffffffff168273ffffffffffffffffffffffffffffffffffffffff167f4a39dc06d4c0dbc64b70af90fd698a233a518aa5d07e595d983b8c0526c8f7fb8686604051616b2e929190619a56565b60405180910390a4616b54818560008686604051806020016040528060008152506163f2565b50505050565b600073ffffffffffffffffffffffffffffffffffffffff1660d160003373ffffffffffffffffffffffffffffffffffffffff1673ffffffffffffffffffffffffffffffffffffffff16815260200190815260200160002060009054906101000a900473ffffffffffffffffffffffffffffffffffffffff1673ffffffffffffffffffffffffffffffffffffffff1614616cbe5760d160003373ffffffffffffffffffffffffffffffffffffffff1673ffffffffffffffffffffffffffffffffffffffff16815260200190815260200160002060009054906101000a900473ffffffffffffffffffffffffffffffffffffffff1673ffffffffffffffffffffffffffffffffffffffff1663f1d4552e338585856040518563ffffffff1660e01b8152600401616c8b94939291906198b6565b600060405180830381600087803b158015616ca557600080fd5b505af1158015616cb9573d6000803e3d6000fd5b505050505b505050565b616ccf8484848461784e565b8160dc60008581526020019081526020016000206000828254616cf2919061a28e565b9250508190555050505050565b616d0b84848484617a00565b60005b8351811015616d8657828181518110616d2a57616d2961a638565b5b602002602001015160dc6000868481518110616d4957616d4861a638565b5b602002602001015181526020019081526020016000206000828254616d6e919061a28e565b9250508190555080616d7f9061a502565b9050616d0e565b5050505050565b6000616d998383616146565b616df2578260000182908060018154018082558091505060019003906000526020600020016000909190919091505582600001805490508360010160008481526020019081526020016000208190555060019050616df7565b600090505b92915050565b600060019054906101000a900460ff16616e4c576040517f08c379a0000000000000000000000000000000000000000000000000000000008152600401616e4390619ea0565b60405180910390fd5b616e5581617c2e565b50565b600060019054906101000a900460ff16616ea7576040517f08c379a0000000000000000000000000000000000000000000000000000000008152600401616e9e90619ea0565b60405180910390fd5b616eb7616eb2613b87565b614d51565b565b6000616ee5827f01ffc9a700000000000000000000000000000000000000000000000000000000616f06565b8015616eff5750616efd8263ffffffff60e01b616f06565b155b9050919050565b6000806301ffc9a760e01b83604051602401616f229190619aa8565b604051602081830303815290604052907bffffffffffffffffffffffffffffffffffffffffffffffffffffffff19166020820180517bffffffffffffffffffffffffffffffffffffffffffffffffffffffff838183161783525050505090506000808573ffffffffffffffffffffffffffffffffffffffff1661753084604051616fac9190619727565b6000604051808303818686fa925050503d8060008114616fe8576040519150601f19603f3d011682016040523d82523d6000602084013e616fed565b606091505b5091509150602081511015617008576000935050505061702b565b8180156170255750808060200190518101906170249190618b0a565b5b93505050505b92915050565b60606000600167ffffffffffffffff8111156170505761704f61a667565b5b60405190808252806020026020018201604052801561707e5781602001602082028036833780820191505090505b50905082816000815181106170965761709561a638565b5b60200260200101818152505080915050919050565b6170ca8473ffffffffffffffffffffffffffffffffffffffff166165e1565b1561728a578373ffffffffffffffffffffffffffffffffffffffff1663f23a6e6187878686866040518663ffffffff1660e01b815260040161711095949392919061985c565b602060405180830381600087803b15801561712a57600080fd5b505af192505050801561715b57506040513d601f19601f820116820180604052508101906171589190618b64565b60015b6172015761716761a696565b806308c379a014156171c4575061717c61b013565b8061718757506171c6565b806040517f08c379a00000000000000000000000000000000000000000000000000000000081526004016171bb9190619ade565b60405180910390fd5b505b6040517f08c379a00000000000000000000000000000000000000000000000000000000081526004016171f890619b00565b60405180910390fd5b63f23a6e6160e01b7bffffffffffffffffffffffffffffffffffffffffffffffffffffffff1916817bffffffffffffffffffffffffffffffffffffffffffffffffffffffff191614617288576040517f08c379a000000000000000000000000000000000000000000000000000000000815260040161727f90619b20565b60405180910390fd5b505b505050505050565b600061729e6001614e17565b905080156172c2576001600060016101000a81548160ff0219169083151502179055505b6172cb82611f23565b80156173245760008060016101000a81548160ff0219169083151502179055507f7f26b83ff96e1f2b6a682f133852f6798a09c465da95921460cefb3847402498600160405161731b9190619ac3565b60405180910390a15b5050565b60007f28f10a21000000000000000000000000000000000000000000000000000000007bffffffffffffffffffffffffffffffffffffffffffffffffffffffff1916827bffffffffffffffffffffffffffffffffffffffffffffffffffffffff1916148061739b575061739a82615fea565b5b806173ea575063bb3bafd660e01b7bffffffffffffffffffffffffffffffffffffffffffffffffffffffff1916827bffffffffffffffffffffffffffffffffffffffffffffffffffffffff1916145b80617439575063b779958460e01b7bffffffffffffffffffffffffffffffffffffffffffffffffffffffff1916827bffffffffffffffffffffffffffffffffffffffffffffffffffffffff1916145b80617488575063d5a06d4c60e01b7bffffffffffffffffffffffffffffffffffffffffffffffffffffffff1916827bffffffffffffffffffffffffffffffffffffffffffffffffffffffff1916145b806174d75750632a55205a60e01b7bffffffffffffffffffffffffffffffffffffffffffffffffffffffff1916827bffffffffffffffffffffffffffffffffffffffffffffffffffffffff1916145b9050919050565b60007f01ffc9a7000000000000000000000000000000000000000000000000000000007bffffffffffffffffffffffffffffffffffffffffffffffffffffffff1916827bffffffffffffffffffffffffffffffffffffffffffffffffffffffff1916149050919050565b60007f01ffc9a7000000000000000000000000000000000000000000000000000000007bffffffffffffffffffffffffffffffffffffffffffffffffffffffff1916827bffffffffffffffffffffffffffffffffffffffffffffffffffffffff1916149050919050565b60008251116175f6576040517f08c379a00000000000000000000000000000000000000000000000000000000081526004016175ed90619de0565b60405180910390fd5b600060d36000846000815181106176105761760f61a638565b5b6020026020010151815260200190815260200160002060009054906101000a900473ffffffffffffffffffffffffffffffffffffffff16905060005b8351811015617723578173ffffffffffffffffffffffffffffffffffffffff1660d360008684815181106176835761768261a638565b5b6020026020010151815260200190815260200160002060009054906101000a900473ffffffffffffffffffffffffffffffffffffffff1673ffffffffffffffffffffffffffffffffffffffff1614617710576040517f08c379a000000000000000000000000000000000000000000000000000000000815260040161770790619d80565b60405180910390fd5b808061771b9061a502565b91505061764c565b5060d260008273ffffffffffffffffffffffffffffffffffffffff1673ffffffffffffffffffffffffffffffffffffffff16815260200190815260200160002060009054906101000a900460ff1615617847578073ffffffffffffffffffffffffffffffffffffffff1663883da933868686866040518563ffffffff1660e01b81526004016177b594939291906197a1565b602060405180830381600087803b1580156177cf57600080fd5b505af11580156177e3573d6000803e3d6000fd5b505050506040513d601f19601f820116820180604052508101906178079190618b0a565b617846576040517f08c379a000000000000000000000000000000000000000000000000000000000815260040161783d90619e20565b60405180910390fd5b5b5050505050565b600073ffffffffffffffffffffffffffffffffffffffff168473ffffffffffffffffffffffffffffffffffffffff1614156178be576040517f08c379a00000000000000000000000000000000000000000000000000000000081526004016178b590619f60565b60405180910390fd5b60006178c8613b87565b905060006178d585617031565b905060006178e285617031565b90506178f3836000898585896163de565b84609a600088815260200190815260200160002060008973ffffffffffffffffffffffffffffffffffffffff1673ffffffffffffffffffffffffffffffffffffffff1681526020019081526020016000206000828254617953919061a28e565b925050819055508673ffffffffffffffffffffffffffffffffffffffff16600073ffffffffffffffffffffffffffffffffffffffff168473ffffffffffffffffffffffffffffffffffffffff167fc3d58168c5ae7397731d063d5bbf3d657854427343f4c083240f7aacaa2d0f6289896040516179d1929190619fbb565b60405180910390a46179e8836000898585896163f2565b6179f7836000898989896170ab565b50505050505050565b600073ffffffffffffffffffffffffffffffffffffffff168473ffffffffffffffffffffffffffffffffffffffff161415617a70576040517f08c379a0000000000000000000000000000000000000000000000000000000008152600401617a6790619f60565b60405180910390fd5b8151835114617ab4576040517f08c379a0000000000000000000000000000000000000000000000000000000008152600401617aab90619f40565b60405180910390fd5b6000617abe613b87565b9050617acf816000878787876163de565b60005b8451811015617b8957838181518110617aee57617aed61a638565b5b6020026020010151609a6000878481518110617b0d57617b0c61a638565b5b6020026020010151815260200190815260200160002060008873ffffffffffffffffffffffffffffffffffffffff1673ffffffffffffffffffffffffffffffffffffffff1681526020019081526020016000206000828254617b6f919061a28e565b925050819055508080617b819061a502565b915050617ad2565b508473ffffffffffffffffffffffffffffffffffffffff16600073ffffffffffffffffffffffffffffffffffffffff168273ffffffffffffffffffffffffffffffffffffffff167f4a39dc06d4c0dbc64b70af90fd698a233a518aa5d07e595d983b8c0526c8f7fb8787604051617c01929190619a56565b60405180910390a4617c18816000878787876163f2565b617c27816000878787876163fa565b5050505050565b80609c9080519060200190617c44929190617dbb565b5050565b828054617c549061a49f565b90600052602060002090601f016020900481019282617c765760008555617cbd565b82601f10617c8f57803560ff1916838001178555617cbd565b82800160010185558215617cbd579182015b82811115617cbc578235825591602001919060010190617ca1565b5b509050617cca9190617e41565b5090565b828054828255906000526020600020908101928215617d5d579160200282015b82811115617d5c57823573ffffffffffffffffffffffffffffffffffffffff168260006101000a81548173ffffffffffffffffffffffffffffffffffffffff021916908373ffffffffffffffffffffffffffffffffffffffff16021790555091602001919060010190617cee565b5b509050617d6a9190617e41565b5090565b828054828255906000526020600020908101928215617daa579160200282015b82811115617da9578235825591602001919060010190617d8e565b5b509050617db79190617e41565b5090565b828054617dc79061a49f565b90600052602060002090601f016020900481019282617de95760008555617e30565b82601f10617e0257805160ff1916838001178555617e30565b82800160010185558215617e30579182015b82811115617e2f578251825591602001919060010190617e14565b5b509050617e3d9190617e41565b5090565b5b80821115617e5a576000816000905550600101617e42565b5090565b6000617e71617e6c8461a06c565b61a047565b90508083825260208201905082856020860282011115617e9457617e9361a6cc565b5b60005b85811015617ec45781617eaa8882618092565b845260208401935060208301925050600181019050617e97565b5050509392505050565b6000617ee1617edc8461a098565b61a047565b90508083825260208201905082856020860282011115617f0457617f0361a6cc565b5b60005b85811015617f5257813567ffffffffffffffff811115617f2a57617f2961a6bd565b5b808601617f378982618348565b85526020850194506020840193505050600181019050617f07565b5050509392505050565b6000617f6f617f6a8461a0c4565b61a047565b90508083825260208201905082856020860282011115617f9257617f9161a6cc565b5b60005b85811015617fc25781617fa888826183a4565b845260208401935060208301925050600181019050617f95565b5050509392505050565b6000617fdf617fda8461a0f0565b61a047565b905082815260208101848484011115617ffb57617ffa61a6d6565b5b61800684828561a45d565b509392505050565b600061802161801c8461a121565b61a047565b90508281526020810184848401111561803d5761803c61a6d6565b5b61804884828561a45d565b509392505050565b600061806361805e8461a121565b61a047565b90508281526020810184848401111561807f5761807e61a6d6565b5b61808a84828561a46c565b509392505050565b6000813590506180a18161b0a9565b92915050565b6000813590506180b68161b0c0565b92915050565b60008083601f8401126180d2576180d161a6bd565b5b8235905067ffffffffffffffff8111156180ef576180ee61a6b8565b5b60208301915083602082028301111561810b5761810a61a6cc565b5b9250929050565b600082601f8301126181275761812661a6bd565b5b8135618137848260208601617e5e565b91505092915050565b60008083601f8401126181565761815561a6bd565b5b8235905067ffffffffffffffff8111156181735761817261a6b8565b5b60208301915083602082028301111561818f5761818e61a6cc565b5b9250929050565b60008083601f8401126181ac576181ab61a6bd565b5b8235905067ffffffffffffffff8111156181c9576181c861a6b8565b5b6020830191508360208202830111156181e5576181e461a6cc565b5b9250929050565b60008083601f8401126182025761820161a6bd565b5b8235905067ffffffffffffffff81111561821f5761821e61a6b8565b5b60208301915083602082028301111561823b5761823a61a6cc565b5b9250929050565b600082601f8301126182575761825661a6bd565b5b8135618267848260208601617f5c565b91505092915050565b60008135905061827f8161b0d7565b92915050565b6000815190506182948161b0d7565b92915050565b6000813590506182a98161b0ee565b92915050565b6000815190506182be8161b0ee565b92915050565b600082601f8301126182d9576182d861a6bd565b5b81356182e9848260208601617fcc565b91505092915050565b60008083601f8401126183085761830761a6bd565b5b8235905067ffffffffffffffff8111156183255761832461a6b8565b5b6020830191508360018202830111156183415761834061a6cc565b5b9250929050565b600082601f83011261835d5761835c61a6bd565b5b813561836d84826020860161800e565b91505092915050565b600082601f83011261838b5761838a61a6bd565b5b815161839b848260208601618050565b91505092915050565b6000813590506183b38161b105565b92915050565b6000602082840312156183cf576183ce61a6e5565b5b60006183dd84828501618092565b91505092915050565b600080604083850312156183fd576183fc61a6e5565b5b600061840b85828601618092565b925050602061841c85828601618092565b9150509250929050565b600080600080600060a086880312156184425761844161a6e5565b5b600061845088828901618092565b955050602061846188828901618092565b945050604086013567ffffffffffffffff8111156184825761848161a6db565b5b61848e88828901618242565b935050606086013567ffffffffffffffff8111156184af576184ae61a6db565b5b6184bb88828901618242565b925050608086013567ffffffffffffffff8111156184dc576184db61a6db565b5b6184e8888289016182c4565b9150509295509295909350565b600080600080600060a086880312156185115761851061a6e5565b5b600061851f88828901618092565b955050602061853088828901618092565b9450506040618541888289016183a4565b9350506060618552888289016183a4565b925050608086013567ffffffffffffffff8111156185735761857261a6db565b5b61857f888289016182c4565b9150509295509295909350565b6000806000806000606086880312156185a8576185a761a6e5565b5b60006185b688828901618092565b955050602086013567ffffffffffffffff8111156185d7576185d661a6db565b5b6185e388828901618140565b9450945050604086013567ffffffffffffffff8111156186065761860561a6db565b5b618612888289016181ec565b92509250509295509295909350565b60008060006060848603121561863a5761863961a6e5565b5b600061864886828701618092565b935050602084013567ffffffffffffffff8111156186695761866861a6db565b5b61867586828701618242565b925050604084013567ffffffffffffffff8111156186965761869561a6db565b5b6186a286828701618242565b9150509250925092565b600080604083850312156186c3576186c261a6e5565b5b60006186d185828601618092565b92505060206186e285828601618270565b9150509250929050565b6000806000604084860312156187055761870461a6e5565b5b600061871386828701618092565b935050602084013567ffffffffffffffff8111156187345761873361a6db565b5b618740868287016182f2565b92509250509250925092565b600080600080606085870312156187665761876561a6e5565b5b600061877487828801618092565b945050602085013567ffffffffffffffff8111156187955761879461a6db565b5b6187a1878288016182f2565b935093505060406187b487828801618270565b91505092959194509250565b600080604083850312156187d7576187d661a6e5565b5b60006187e585828601618092565b92505060206187f6858286016183a4565b9150509250929050565b6000806000806000806060878903121561881d5761881c61a6e5565b5b600087013567ffffffffffffffff81111561883b5761883a61a6db565b5b61884789828a016180bc565b9650965050602087013567ffffffffffffffff81111561886a5761886961a6db565b5b61887689828a016181ec565b9450945050604087013567ffffffffffffffff8111156188995761889861a6db565b5b6188a589828a01618196565b92509250509295509295509295565b600080600080600080606087890312156188d1576188d061a6e5565b5b600087013567ffffffffffffffff8111156188ef576188ee61a6db565b5b6188fb89828a016180bc565b9650965050602087013567ffffffffffffffff81111561891e5761891d61a6db565b5b61892a89828a016181ec565b9450945050604087013567ffffffffffffffff81111561894d5761894c61a6db565b5b61895989828a016181ec565b92509250509295509295509295565b6000806040838503121561897f5761897e61a6e5565b5b600083013567ffffffffffffffff81111561899d5761899c61a6db565b5b6189a985828601618112565b925050602083013567ffffffffffffffff8111156189ca576189c961a6db565b5b6189d685828601618242565b9150509250929050565b600080600080604085870312156189fa576189f961a6e5565b5b600085013567ffffffffffffffff811115618a1857618a1761a6db565b5b618a2487828801618140565b9450945050602085013567ffffffffffffffff811115618a4757618a4661a6db565b5b618a53878288016181ec565b925092505092959194509250565b600080600060408486031215618a7a57618a7961a6e5565b5b600084013567ffffffffffffffff811115618a9857618a9761a6db565b5b618aa486828701618242565b935050602084013567ffffffffffffffff811115618ac557618ac461a6db565b5b618ad186828701618196565b92509250509250925092565b600060208284031215618af357618af261a6e5565b5b6000618b0184828501618270565b91505092915050565b600060208284031215618b2057618b1f61a6e5565b5b6000618b2e84828501618285565b91505092915050565b600060208284031215618b4d57618b4c61a6e5565b5b6000618b5b8482850161829a565b91505092915050565b600060208284031215618b7a57618b7961a6e5565b5b6000618b88848285016182af565b91505092915050565b60008060208385031215618ba857618ba761a6e5565b5b600083013567ffffffffffffffff811115618bc657618bc561a6db565b5b618bd2858286016182f2565b92509250509250929050565b600080600060408486031215618bf757618bf661a6e5565b5b600084013567ffffffffffffffff811115618c1557618c1461a6db565b5b618c21868287016182f2565b93509350506020618c3486828701618270565b9150509250925092565b600060208284031215618c5457618c5361a6e5565b5b600082013567ffffffffffffffff811115618c7257618c7161a6db565b5b618c7e84828501618348565b91505092915050565b600060208284031215618c9d57618c9c61a6e5565b5b600082015167ffffffffffffffff811115618cbb57618cba61a6db565b5b618cc784828501618376565b91505092915050565b600060208284031215618ce657618ce561a6e5565b5b6000618cf4848285016183a4565b91505092915050565b600080600080600060608688031215618d1957618d1861a6e5565b5b6000618d27888289016183a4565b955050602086013567ffffffffffffffff811115618d4857618d4761a6db565b5b618d5488828901618140565b9450945050604086013567ffffffffffffffff811115618d7757618d7661a6db565b5b618d83888289016181ec565b92509250509295509295909350565b600080600060408486031215618dab57618daa61a6e5565b5b6000618db9868287016183a4565b935050602084013567ffffffffffffffff811115618dda57618dd961a6db565b5b618de6868287016182f2565b92509250509250925092565b60008060408385031215618e0957618e0861a6e5565b5b6000618e17858286016183a4565b9250506020618e28858286016183a4565b9150509250929050565b6000618e3e8383618e7a565b60208301905092915050565b6000618e568383618e89565b60208301905092915050565b6000618e6e8383619709565b60208301905092915050565b618e838161a3b5565b82525050565b618e928161a3a3565b82525050565b618ea18161a3a3565b82525050565b6000618eb28261a1a1565b618ebc818561a20c565b9350618ec78361a152565b8060005b83811015618ef8578151618edf8882618e4a565b9750618eea8361a1d8565b925050600181019050618ecb565b5085935050505092915050565b6000618f11838561a21d565b9350618f1c8261a162565b8060005b85811015618f5557618f32828461a277565b618f3c8882618e32565b9750618f478361a1e5565b925050600181019050618f20565b5085925050509392505050565b6000618f6d8261a1ac565b618f77818561a21d565b9350618f828361a16c565b8060005b83811015618fb3578151618f9a8882618e32565b9750618fa58361a1f2565b925050600181019050618f86565b5085935050505092915050565b6000618fcc838561a22e565b93507f07ffffffffffffffffffffffffffffffffffffffffffffffffffffffffffffff831115618fff57618ffe61a6e0565b5b60208302925061901083858461a45d565b82840190509392505050565b60006190278261a1b7565b619031818561a22e565b935061903c8361a17c565b8060005b8381101561906d5781516190548882618e62565b975061905f8361a1ff565b925050600181019050619040565b5085935050505092915050565b6190838161a3c7565b82525050565b6190928161a3d3565b82525050565b60006190a38261a1c2565b6190ad818561a23f565b93506190bd81856020860161a46c565b6190c68161a6ea565b840191505092915050565b60006190dc8261a1c2565b6190e6818561a250565b93506190f681856020860161a46c565b80840191505092915050565b61910b8161a44b565b82525050565b600061911c8261a1cd565b619126818561a25b565b935061913681856020860161a46c565b61913f8161a6ea565b840191505092915050565b60006191558261a1cd565b61915f818561a26c565b935061916f81856020860161a46c565b80840191505092915050565b600081546191888161a49f565b619192818661a26c565b945060018216600081146191ad57600181146191be576191f1565b60ff198316865281860193506191f1565b6191c78561a18c565b60005b838110156191e9578154818901526001820191506020810190506191ca565b838801955050505b50505092915050565b600061920760348361a25b565b91506192128261a708565b604082019050919050565b600061922a60288361a25b565b91506192358261a757565b604082019050919050565b600061924d60198361a25b565b91506192588261a7a6565b602082019050919050565b6000619270600f8361a25b565b915061927b8261a7cf565b602082019050919050565b6000619293602b8361a25b565b915061929e8261a7f8565b604082019050919050565b60006192b660268361a25b565b91506192c18261a847565b604082019050919050565b60006192d960248361a25b565b91506192e48261a896565b604082019050919050565b60006192fc60298361a25b565b91506193078261a8e5565b604082019050919050565b600061931f60118361a25b565b915061932a8261a934565b602082019050919050565b600061934260158361a25b565b915061934d8261a95d565b602082019050919050565b6000619365600d8361a25b565b91506193708261a986565b602082019050919050565b6000619388601c8361a25b565b91506193938261a9af565b602082019050919050565b60006193ab60408361a25b565b91506193b68261a9d8565b604082019050919050565b60006193ce60258361a25b565b91506193d98261aa27565b604082019050919050565b60006193f160328361a25b565b91506193fc8261aa76565b604082019050919050565b6000619414601c8361a25b565b915061941f8261aac5565b602082019050919050565b6000619437602e8361a25b565b91506194428261aaee565b604082019050919050565b600061945a60238361a25b565b91506194658261ab3d565b604082019050919050565b600061947d602a8361a25b565b91506194888261ab8c565b604082019050919050565b60006194a060258361a25b565b91506194ab8261abdb565b604082019050919050565b60006194c3601c8361a25b565b91506194ce8261ac2a565b602082019050919050565b60006194e660208361a25b565b91506194f18261ac53565b602082019050919050565b600061950960168361a25b565b91506195148261ac7c565b602082019050919050565b600061952c600d8361a25b565b91506195378261aca5565b602082019050919050565b600061954f60178361a25b565b915061955a8261acce565b602082019050919050565b6000619572601a8361a25b565b915061957d8261acf7565b602082019050919050565b600061959560208361a25b565b91506195a08261ad20565b602082019050919050565b60006195b860248361a25b565b91506195c38261ad49565b604082019050919050565b60006195db60298361a25b565b91506195e68261ad98565b604082019050919050565b60006195fe602b8361a25b565b91506196098261ade7565b604082019050919050565b600061962160108361a25b565b915061962c8261ae36565b602082019050919050565b600061964460238361a25b565b915061964f8261ae5f565b604082019050919050565b600061966760298361a25b565b91506196728261aeae565b604082019050919050565b600061968a60298361a25b565b91506196958261aefd565b604082019050919050565b60006196ad60288361a25b565b91506196b88261af4c565b604082019050919050565b60006196d060218361a25b565b91506196db8261af9b565b604082019050919050565b60006196f3601f8361a25b565b91506196fe8261afea565b602082019050919050565b6197128161a41f565b82525050565b6197218161a41f565b82525050565b600061973382846190d1565b915081905092915050565b600061974a828561917b565b9150619756828461914a565b91508190509392505050565b600061976e828561917b565b915061977a828461917b565b91508190509392505050565b600060208201905061979b6000830184618e98565b92915050565b60006080820190506197b66000830187618e98565b6197c36020830186618e98565b81810360408301526197d5818561901c565b905081810360608301526197e9818461901c565b905095945050505050565b600060a0820190506198096000830188618e98565b6198166020830187618e98565b8181036040830152619828818661901c565b9050818103606083015261983c818561901c565b905081810360808301526198508184619098565b90509695505050505050565b600060a0820190506198716000830188618e98565b61987e6020830187618e98565b61988b6040830186619718565b6198986060830185619718565b81810360808301526198aa8184619098565b90509695505050505050565b60006080820190506198cb6000830187618e98565b81810360208301526198dd8186618ea7565b905081810360408301526198f1818561901c565b90508181036060830152619905818461901c565b905095945050505050565b60006060820190506199256000830186618e98565b8181036020830152619937818561901c565b9050818103604083015261994b818461901c565b9050949350505050565b600060408201905061996a6000830185618e98565b6199776020830184619718565b9392505050565b600060208201905081810360008301526199988184618ea7565b905092915050565b600060408201905081810360008301526199bb818688618f05565b905081810360208301526199d0818486618fc0565b905095945050505050565b600060208201905081810360008301526199f58184618f62565b905092915050565b60006040820190508181036000830152619a178185618f62565b90508181036020830152619a2b818461901c565b90509392505050565b60006020820190508181036000830152619a4e818461901c565b905092915050565b60006040820190508181036000830152619a70818561901c565b90508181036020830152619a84818461901c565b90509392505050565b6000602082019050619aa2600083018461907a565b92915050565b6000602082019050619abd6000830184619089565b92915050565b6000602082019050619ad86000830184619102565b92915050565b60006020820190508181036000830152619af88184619111565b905092915050565b60006020820190508181036000830152619b19816191fa565b9050919050565b60006020820190508181036000830152619b398161921d565b9050919050565b60006020820190508181036000830152619b5981619240565b9050919050565b60006020820190508181036000830152619b7981619263565b9050919050565b60006020820190508181036000830152619b9981619286565b9050919050565b60006020820190508181036000830152619bb9816192a9565b9050919050565b60006020820190508181036000830152619bd9816192cc565b9050919050565b60006020820190508181036000830152619bf9816192ef565b9050919050565b60006020820190508181036000830152619c1981619312565b9050919050565b60006020820190508181036000830152619c3981619335565b9050919050565b60006020820190508181036000830152619c5981619358565b9050919050565b60006020820190508181036000830152619c798161937b565b9050919050565b60006020820190508181036000830152619c998161939e565b9050919050565b60006020820190508181036000830152619cb9816193c1565b9050919050565b60006020820190508181036000830152619cd9816193e4565b9050919050565b60006020820190508181036000830152619cf981619407565b9050919050565b60006020820190508181036000830152619d198161942a565b9050919050565b60006020820190508181036000830152619d398161944d565b9050919050565b60006020820190508181036000830152619d5981619470565b9050919050565b60006020820190508181036000830152619d7981619493565b9050919050565b60006020820190508181036000830152619d99816194b6565b9050919050565b60006020820190508181036000830152619db9816194d9565b9050919050565b60006020820190508181036000830152619dd9816194fc565b9050919050565b60006020820190508181036000830152619df98161951f565b9050919050565b60006020820190508181036000830152619e1981619542565b9050919050565b60006020820190508181036000830152619e3981619565565b9050919050565b60006020820190508181036000830152619e5981619588565b9050919050565b60006020820190508181036000830152619e79816195ab565b9050919050565b60006020820190508181036000830152619e99816195ce565b9050919050565b60006020820190508181036000830152619eb9816195f1565b9050919050565b60006020820190508181036000830152619ed981619614565b9050919050565b60006020820190508181036000830152619ef981619637565b9050919050565b60006020820190508181036000830152619f198161965a565b9050919050565b60006020820190508181036000830152619f398161967d565b9050919050565b60006020820190508181036000830152619f59816196a0565b9050919050565b60006020820190508181036000830152619f79816196c3565b9050919050565b60006020820190508181036000830152619f99816196e6565b9050919050565b6000602082019050619fb56000830184619718565b92915050565b6000604082019050619fd06000830185619718565b619fdd6020830184619718565b9392505050565b6000808335600160200384360303811261a0015761a00061a6c7565b5b80840192508235915067ffffffffffffffff82111561a0235761a02261a6c2565b5b60208301925060018202360383131561a03f5761a03e61a6d1565b5b509250929050565b600061a05161a062565b905061a05d828261a4d1565b919050565b6000604051905090565b600067ffffffffffffffff82111561a0875761a08661a667565b5b602082029050602081019050919050565b600067ffffffffffffffff82111561a0b35761a0b261a667565b5b602082029050602081019050919050565b600067ffffffffffffffff82111561a0df5761a0de61a667565b5b602082029050602081019050919050565b600067ffffffffffffffff82111561a10b5761a10a61a667565b5b61a1148261a6ea565b9050602081019050919050565b600067ffffffffffffffff82111561a13c5761a13b61a667565b5b61a1458261a6ea565b9050602081019050919050565b6000819050602082019050919050565b6000819050919050565b6000819050602082019050919050565b6000819050602082019050919050565b60008190508160005260206000209050919050565b600081519050919050565b600081519050919050565b600081519050919050565b600081519050919050565b600081519050919050565b6000602082019050919050565b6000602082019050919050565b6000602082019050919050565b6000602082019050919050565b600082825260208201905092915050565b600082825260208201905092915050565b600082825260208201905092915050565b600082825260208201905092915050565b600081905092915050565b600082825260208201905092915050565b600081905092915050565b600061a28660208401846180a7565b905092915050565b600061a2998261a41f565b915061a2a48361a41f565b9250827fffffffffffffffffffffffffffffffffffffffffffffffffffffffffffffffff0382111561a2d95761a2d861a57c565b5b828201905092915050565b600061a2ef8261a41f565b915061a2fa8361a41f565b92508261a30a5761a30961a5ab565b5b828204905092915050565b600061a3208261a41f565b915061a32b8361a41f565b9250817fffffffffffffffffffffffffffffffffffffffffffffffffffffffffffffffff048311821515161561a3645761a36361a57c565b5b828202905092915050565b600061a37a8261a41f565b915061a3858361a41f565b92508282101561a3985761a39761a57c565b5b828203905092915050565b600061a3ae8261a3ff565b9050919050565b600061a3c08261a3ff565b9050919050565b60008115159050919050565b60007fffffffff0000000000000000000000000000000000000000000000000000000082169050919050565b600073ffffffffffffffffffffffffffffffffffffffff82169050919050565b6000819050919050565b600060ff82169050919050565b600061a443368484617ece565b905092915050565b600061a4568261a429565b9050919050565b82818337600083830152505050565b60005b8381101561a48a57808201518184015260208101905061a46f565b8381111561a499576000848401525b50505050565b6000600282049050600182168061a4b757607f821691505b6020821081141561a4cb5761a4ca61a5da565b5b50919050565b61a4da8261a6ea565b810181811067ffffffffffffffff8211171561a4f95761a4f861a667565b5b80604052505050565b600061a50d8261a41f565b91507fffffffffffffffffffffffffffffffffffffffffffffffffffffffffffffffff82141561a5405761a53f61a57c565b5b600182019050919050565b600061a5568261a41f565b915061a5618361a41f565b92508261a5715761a57061a5ab565b5b828206905092915050565b7f4e487b7100000000000000000000000000000000000000000000000000000000600052601160045260246000fd5b7f4e487b7100000000000000000000000000000000000000000000000000000000600052601260045260246000fd5b7f4e487b7100000000000000000000000000000000000000000000000000000000600052602260045260246000fd5b7f4e487b7100000000000000000000000000000000000000000000000000000000600052603160045260246000fd5b7f4e487b7100000000000000000000000000000000000000000000000000000000600052603260045260246000fd5b7f4e487b7100000000000000000000000000000000000000000000000000000000600052604160045260246000fd5b600060033d111561a6b55760046000803e61a6b260005161a6fb565b90505b90565b600080fd5b600080fd5b600080fd5b600080fd5b600080fd5b600080fd5b600080fd5b600080fd5b600080fd5b600080fd5b6000601f19601f8301169050919050565b60008160e01c9050919050565b7f455243313135353a207472616e7366657220746f206e6f6e204552433131353560008201527f526563656976657220696d706c656d656e746572000000000000000000000000602082015250565b7f455243313135353a204552433131353552656365697665722072656a6563746560008201527f6420746f6b656e73000000000000000000000000000000000000000000000000602082015250565b7f43616e6e6f7420626c61636b6c69737420796f757273656c6600000000000000600082015250565b7f496e76616c696420616464726573730000000000000000000000000000000000600082015250565b7f455243313135353a2062616c616e636520717565727920666f7220746865207a60008201527f65726f2061646472657373000000000000000000000000000000000000000000602082015250565b7f4f776e61626c653a206e6577206f776e657220697320746865207a65726f206160008201527f6464726573730000000000000000000000000000000000000000000000000000602082015250565b7f455243313135353a206275726e20616d6f756e7420657863656564732062616c60008201527f616e636500000000000000000000000000000000000000000000000000000000602082015250565b7f455243313135353a2063616c6c6572206973206e6f74206f776e6572206e6f7260008201527f20617070726f7665640000000000000000000000000000000000000000000000602082015250565b7f496e76616c696420657874656e73696f6e000000000000000000000000000000600082015250565b7f457874656e73696f6e20626c61636b6c69737465640000000000000000000000600082015250565b7f496e76616c696420746f6b656e00000000000000000000000000000000000000600082015250565b7f4d757374206265207265676973746572656420657874656e73696f6e00000000600082015250565b7f457874656e73696f6e206d75737420696d706c656d656e74204945524331313560008201527f3543726561746f72457874656e73696f6e417070726f76655472616e73666572602082015250565b7f455243313135353a207472616e7366657220746f20746865207a65726f20616460008201527f6472657373000000000000000000000000000000000000000000000000000000602082015250565b7f455243313135353a207472616e736665722063616c6c6572206973206e6f742060008201527f6f776e6572206e6f7220617070726f7665640000000000000000000000000000602082015250565b7f4d6f7265207468616e203120726f79616c747920726563656976657200000000600082015250565b7f496e697469616c697a61626c653a20636f6e747261637420697320616c72656160008201527f647920696e697469616c697a6564000000000000000000000000000000000000602082015250565b7f455243313135353a206275726e2066726f6d20746865207a65726f206164647260008201527f6573730000000000000000000000000000000000000000000000000000000000602082015250565b7f455243313135353a20696e73756666696369656e742062616c616e636520666f60008201527f72207472616e7366657200000000000000000000000000000000000000000000602082015250565b7f43726561746f723a20457874656e73696f6e206d757374206265206120636f6e60008201527f7472616374000000000000000000000000000000000000000000000000000000602082015250565b7f4d69736d61746368656420746f6b656e206f726967696e61746f727300000000600082015250565b7f4f776e61626c653a2063616c6c6572206973206e6f7420746865206f776e6572600082015250565b7f4e6f20657874656e73696f6e20666f7220746f6b656e00000000000000000000600082015250565b7f496e76616c696420696e70757400000000000000000000000000000000000000600082015250565b7f496e76616c696420746f74616c20726f79616c74696573000000000000000000600082015250565b7f457874656e73696f6e20617070726f76616c206661696c757265000000000000600082015250565b7f43616c6c6572206973206e6f74206f776e6572206e6f7220617070726f766564600082015250565b7f41646d696e436f6e74726f6c3a204d757374206265206f776e6572206f72206160008201527f646d696e00000000000000000000000000000000000000000000000000000000602082015250565b7f4120746f6b656e20776173206e6f74206372656174656420627920746869732060008201527f657874656e73696f6e0000000000000000000000000000000000000000000000602082015250565b7f496e697469616c697a61626c653a20636f6e7472616374206973206e6f74206960008201527f6e697469616c697a696e67000000000000000000000000000000000000000000602082015250565b7f43726561746f723a20496e76616c696400000000000000000000000000000000600082015250565b7f4120746f6b656e20776173206372656174656420627920616e20657874656e7360008201527f696f6e0000000000000000000000000000000000000000000000000000000000602082015250565b7f455243313135353a2073657474696e6720617070726f76616c2073746174757360008201527f20666f722073656c660000000000000000000000000000000000000000000000602082015250565b7f455243313135353a206163636f756e747320616e6420696473206c656e67746860008201527f206d69736d617463680000000000000000000000000000000000000000000000602082015250565b7f455243313135353a2069647320616e6420616d6f756e7473206c656e6774682060008201527f6d69736d61746368000000000000000000000000000000000000000000000000602082015250565b7f455243313135353a206d696e7420746f20746865207a65726f2061646472657360008201527f7300000000000000000000000000000000000000000000000000000000000000602082015250565b7f5265656e7472616e637947756172643a207265656e7472616e742063616c6c00600082015250565b600060443d101561b0235761b0a6565b61b02b61a062565b60043d036004823e80513d602482011167ffffffffffffffff8211171561b05357505061b0a6565b808201805167ffffffffffffffff81111561b071575050505061b0a6565b80602083010160043d03850181111561b08e57505050505061b0a6565b61b09d8260200185018661a4d1565b82955050505050505b90565b61b0b28161a3a3565b811461b0bd57600080fd5b50565b61b0c98161a3b5565b811461b0d457600080fd5b50565b61b0e08161a3c7565b811461b0eb57600080fd5b50565b61b0f78161a3d3565b811461b10257600080fd5b50565b61b10e8161a41f565b811461b11957600080fd5b5056fea26469706673582212208304b0fd3991d2f4b241e4f65e4367f05a77b59b1e1087fb3adddf4a3429678164736f6c63430008070033",
  "immutableReferences": {},
  "source": "// SPDX-License-Identifier: MIT\n\npragma solidity ^0.8.0;\n\nimport \"@manifoldxyz/creator-core-solidity/contracts/ERC1155CreatorUpgradeable.sol\";\nimport \"./extensions/ContractMetadataURIUpgradeable.sol\";\n\ncontract VennityCreator is ERC1155CreatorUpgradeable, ContractMetadataURIUpgradeable {\n    \n    \n    function initialize(string memory _cURI) public initializer {\n        ERC1155CreatorUpgradeable.initialize(); // Do not forget this call!\n        __ContractMetadataURIUpgradeable_init(_cURI);\n    }\n\n    /**\n     * @dev See {IERC165-supportsInterface}.\n     */\n    function supportsInterface(bytes4 interfaceId) public view virtual override(ERC1155CreatorUpgradeable, ContractMetadataURIUpgradeable) returns (bool) {\n        return ERC1155CreatorUpgradeable.supportsInterface(interfaceId) || ContractMetadataURIUpgradeable.supportsInterface(interfaceId);\n    }\n}",
  "sourcePath": "/Users/mazurbeam/dev/Vennity/vennity-contracts/contracts/VennityCreator.sol",
  "compiler": {
    "name": "solc",
    "version": "0.8.7+commit.e28d00a7.Emscripten.clang"
  },
  "schemaVersion": "3.4.7",
  "updatedAt": "2022-06-09T20:22:52.621Z",
  "devdoc": {
    "kind": "dev",
    "methods": {
      "approveAdmin(address)": {
        "details": "See {IAdminControl-approveAdmin}."
      },
      "balanceOf(address,uint256)": {
        "details": "See {IERC1155-balanceOf}. Requirements: - `account` cannot be the zero address."
      },
      "balanceOfBatch(address[],uint256[])": {
        "details": "See {IERC1155-balanceOfBatch}. Requirements: - `accounts` and `ids` must have the same length."
      },
      "blacklistExtension(address)": {
        "details": "See {ICreatorCore-blacklistExtension}."
      },
      "burn(address,uint256[],uint256[])": {
        "details": "See {IERC1155CreatorCore-burn}."
      },
      "contractURI()": {
        "details": "gets collection details for opensea"
      },
      "getAdmins()": {
        "details": "See {IAdminControl-getAdmins}."
      },
      "getExtensions()": {
        "details": "See {ICreatorCore-getExtensions}."
      },
      "getFeeBps(uint256)": {
        "details": "{See ICreatorCore-getFeeBps}."
      },
      "getFeeRecipients(uint256)": {
        "details": "{See ICreatorCore-getFeeRecipients}."
      },
      "getFees(uint256)": {
        "details": "{See ICreatorCore-getFees}."
      },
      "getRoyalties(uint256)": {
        "details": "{See ICreatorCore-getRoyalties}."
      },
      "isAdmin(address)": {
        "details": "See {IAdminControl-isAdmin}."
      },
      "isApprovedForAll(address,address)": {
        "details": "See {IERC1155-isApprovedForAll}."
      },
      "mintBaseExisting(address[],uint256[],uint256[])": {
        "details": "See {IERC1155CreatorCore-mintBaseExisting}."
      },
      "mintBaseNew(address[],uint256[],string[])": {
        "details": "See {IERC1155CreatorCore-mintBaseNew}."
      },
      "mintExtensionExisting(address[],uint256[],uint256[])": {
        "details": "See {IERC1155CreatorCore-mintExtensionExisting}."
      },
      "mintExtensionNew(address[],uint256[],string[])": {
        "details": "See {IERC1155CreatorCore-mintExtensionNew}."
      },
      "owner()": {
        "details": "Returns the address of the current owner."
      },
      "registerExtension(address,string)": {
        "details": "See {ICreatorCore-registerExtension}."
      },
      "registerExtension(address,string,bool)": {
        "details": "See {ICreatorCore-registerExtension}."
      },
      "renounceOwnership()": {
        "details": "Leaves the contract without owner. It will not be possible to call `onlyOwner` functions anymore. Can only be called by the current owner. NOTE: Renouncing ownership will leave the contract without an owner, thereby removing any functionality that is only available to the owner."
      },
      "revokeAdmin(address)": {
        "details": "See {IAdminControl-revokeAdmin}."
      },
      "royaltyInfo(uint256,uint256)": {
        "details": "{See ICreatorCore-royaltyInfo}."
      },
      "safeBatchTransferFrom(address,address,uint256[],uint256[],bytes)": {
        "details": "See {IERC1155-safeBatchTransferFrom}."
      },
      "safeTransferFrom(address,address,uint256,uint256,bytes)": {
        "details": "See {IERC1155-safeTransferFrom}."
      },
      "setApprovalForAll(address,bool)": {
        "details": "See {IERC1155-setApprovalForAll}."
      },
      "setApproveTransferExtension(bool)": {
        "details": "See {ICreatorCore-setApproveTransferExtension}."
      },
      "setBaseTokenURI(string)": {
        "details": "See {ICreatorCore-setBaseTokenURI}."
      },
      "setBaseTokenURIExtension(string)": {
        "details": "See {ICreatorCore-setBaseTokenURIExtension}."
      },
      "setBaseTokenURIExtension(string,bool)": {
        "details": "See {ICreatorCore-setBaseTokenURIExtension}."
      },
      "setContractURI(string)": {
        "details": "sets the contract URI"
      },
      "setMintPermissions(address,address)": {
        "details": "See {ICreatorCore-setMintPermissions}."
      },
      "setRoyalties(address[],uint256[])": {
        "details": "See {ICreatorCore-setRoyalties}."
      },
      "setRoyalties(uint256,address[],uint256[])": {
        "details": "See {ICreatorCore-setRoyalties}."
      },
      "setRoyaltiesExtension(address,address[],uint256[])": {
        "details": "See {ICreatorCore-setRoyaltiesExtension}."
      },
      "setTokenURI(uint256,string)": {
        "details": "See {ICreatorCore-setTokenURI}."
      },
      "setTokenURI(uint256[],string[])": {
        "details": "See {ICreatorCore-setTokenURI}."
      },
      "setTokenURIExtension(uint256,string)": {
        "details": "See {ICreatorCore-setTokenURIExtension}."
      },
      "setTokenURIExtension(uint256[],string[])": {
        "details": "See {ICreatorCore-setTokenURIExtension}."
      },
      "setTokenURIPrefix(string)": {
        "details": "See {ICreatorCore-setTokenURIPrefix}."
      },
      "setTokenURIPrefixExtension(string)": {
        "details": "See {ICreatorCore-setTokenURIPrefixExtension}."
      },
      "supportsInterface(bytes4)": {
        "details": "See {IERC165-supportsInterface}."
      },
      "tokenExtension(uint256)": {
        "details": "See {IERC1155CreatorCore-tokenExtension}."
      },
      "totalSupply(uint256)": {
        "details": "Total amount of tokens in with a given id."
      },
      "transferOwnership(address)": {
        "details": "Transfers ownership of the contract to a new account (`newOwner`). Can only be called by the current owner."
      },
      "unregisterExtension(address)": {
        "details": "See {ICreatorCore-unregisterExtension}."
      },
      "uri(uint256)": {
        "details": "See {IERC721Metadata-tokenURI}."
      }
    },
    "version": 1
  },
  "userdoc": {
    "kind": "user",
    "methods": {
      "initialize()": {
        "notice": "Initializer"
      }
    },
    "version": 1
  },
  "db": {
    "callBytecode": {
      "id": "0xd366aa9a9b448004908f06fbd9bab3ce8f3cfda807c0065c40c7435b60ce65eb"
    },
    "createBytecode": {
      "id": "0xa02c0513e044c91bebfa287a85963d75e6ac649e2d37bfacff78ef0cb9097503"
    },
    "contract": {
      "id": "0xaebdd7aa7a14883e22fa0a3d033da9d91698ef22b0705766daf889f6c16bcb06"
    }
  }
}